{"contracts/WhaleKnowledgeGraph.sol":{"WhaleKnowledgeGraph":{"abi":[{"inputs":[],"stateMutability":"nonpayable","type":"constructor"},{"inputs":[],"name":"AccessControlBadConfirmation","type":"error"},{"inputs":[{"internalType":"address","name":"account","type":"address"},{"internalType":"bytes32","name":"neededRole","type":"bytes32"}],"name":"AccessControlUnauthorizedAccount","type":"error"},{"anonymous":false,"inputs":[{"indexed":true,"internalType":"address","name":"targetProxy","type":"address"}],"name":"EntityRemoved","type":"event"},{"anonymous":false,"inputs":[{"indexed":true,"internalType":"address","name":"targetProxy","type":"address"},{"indexed":false,"internalType":"string","name":"name","type":"string"},{"indexed":false,"internalType":"string","name":"category","type":"string"},{"indexed":false,"internalType":"uint8","name":"riskScore","type":"uint8"}],"name":"EntityUpdated","type":"event"},{"anonymous":false,"inputs":[{"indexed":true,"internalType":"bytes32","name":"role","type":"bytes32"},{"indexed":true,"internalType":"bytes32","name":"previousAdminRole","type":"bytes32"},{"indexed":true,"internalType":"bytes32","name":"newAdminRole","type":"bytes32"}],"name":"RoleAdminChanged","type":"event"},{"anonymous":false,"inputs":[{"indexed":true,"internalType":"bytes32","name":"role","type":"bytes32"},{"indexed":true,"internalType":"address","name":"account","type":"address"},{"indexed":true,"internalType":"address","name":"sender","type":"address"}],"name":"RoleGranted","type":"event"},{"anonymous":false,"inputs":[{"indexed":true,"internalType":"bytes32","name":"role","type":"bytes32"},{"indexed":true,"internalType":"address","name":"account","type":"address"},{"indexed":true,"internalType":"address","name":"sender","type":"address"}],"name":"RoleRevoked","type":"event"},{"inputs":[],"name":"DEFAULT_ADMIN_ROLE","outputs":[{"internalType":"bytes32","name":"","type":"bytes32"}],"stateMutability":"view","type":"function"},{"inputs":[],"name":"INTEL_NODE_ROLE","outputs":[{"internalType":"bytes32","name":"","type":"bytes32"}],"stateMutability":"view","type":"function"},{"inputs":[{"internalType":"address[]","name":"targets","type":"address[]"}],"name":"getBatchEntityIntelligence","outputs":[{"components":[{"internalType":"string","name":"name","type":"string"},{"internalType":"string","name":"category","type":"string"},{"internalType":"uint8","name":"riskScore","type":"uint8"},{"internalType":"uint8","name":"confidence","type":"uint8"},{"internalType":"uint256","name":"lastUpdated","type":"uint256"},{"internalType":"bool","name":"exists","type":"bool"}],"internalType":"struct WhaleKnowledgeGraph.EntityIntelligence[]","name":"","type":"tuple[]"}],"stateMutability":"view","type":"function"},{"inputs":[{"internalType":"address","name":"target","type":"address"}],"name":"getEntityIntelligence","outputs":[{"internalType":"string","name":"name","type":"string"},{"internalType":"string","name":"category","type":"string"},{"internalType":"uint8","name":"riskScore","type":"uint8"},{"internalType":"uint8","name":"confidence","type":"uint8"},{"internalType":"uint256","name":"lastUpdated","type":"uint256"},{"internalType":"bool","name":"exists","type":"bool"}],"stateMutability":"view","type":"function"},{"inputs":[{"internalType":"bytes32","name":"role","type":"bytes32"}],"name":"getRoleAdmin","outputs":[{"internalType":"bytes32","name":"","type":"bytes32"}],"stateMutability":"view","type":"function"},{"inputs":[{"internalType":"bytes32","name":"role","type":"bytes32"},{"internalType":"address","name":"account","type":"address"}],"name":"grantRole","outputs":[],"stateMutability":"nonpayable","type":"function"},{"inputs":[{"internalType":"bytes32","name":"role","type":"bytes32"},{"internalType":"address","name":"account","type":"address"}],"name":"hasRole","outputs":[{"internalType":"bool","name":"","type":"bool"}],"stateMutability":"view","type":"function"},{"inputs":[{"internalType":"bytes32","name":"","type":"bytes32"},{"internalType":"address","name":"","type":"address"}],"name":"hasSigned","outputs":[{"internalType":"bool","name":"","type":"bool"}],"stateMutability":"view","type":"function"},{"inputs":[{"internalType":"address","name":"target","type":"address"}],"name":"removeEntity","outputs":[],"stateMutability":"nonpayable","type":"function"},{"inputs":[{"internalType":"bytes32","name":"role","type":"bytes32"},{"internalType":"address","name":"callerConfirmation","type":"address"}],"name":"renounceRole","outputs":[],"stateMutability":"nonpayable","type":"function"},{"inputs":[],"name":"requiredSignatures","outputs":[{"internalType":"uint256","name":"","type":"uint256"}],"stateMutability":"view","type":"function"},{"inputs":[{"internalType":"bytes32","name":"role","type":"bytes32"},{"internalType":"address","name":"account","type":"address"}],"name":"revokeRole","outputs":[],"stateMutability":"nonpayable","type":"function"},{"inputs":[{"internalType":"bytes32","name":"","type":"bytes32"}],"name":"signatureCount","outputs":[{"internalType":"uint256","name":"","type":"uint256"}],"stateMutability":"view","type":"function"},{"inputs":[{"internalType":"bytes4","name":"interfaceId","type":"bytes4"}],"name":"supportsInterface","outputs":[{"internalType":"bool","name":"","type":"bool"}],"stateMutability":"view","type":"function"},{"inputs":[{"internalType":"address","name":"target","type":"address"},{"internalType":"string","name":"name","type":"string"},{"internalType":"string","name":"category","type":"string"},{"internalType":"uint8","name":"riskScore","type":"uint8"},{"internalType":"uint8","name":"confidence","type":"uint8"}],"name":"updateEntityIntelligence","outputs":[],"stateMutability":"nonpayable","type":"function"}],"evm":{"bytecode":{"linkReferences":{},"object":"608060405260036001553480156200001657600080fd5b506200002c6000801b336200006660201b60201c565b506200005f7f2ce546a9123a334f0813b906327e067431dc69ac2bae68856ec66a5f092b0236336200006660201b60201c565b50620001db565b60006200007a83836200016960201b60201c565b6200015e57600160008085815260200190815260200160002060000160008473ffffffffffffffffffffffffffffffffffffffff1673ffffffffffffffffffffffffffffffffffffffff16815260200190815260200160002060006101000a81548160ff021916908315150217905550620000fa620001d360201b60201c565b73ffffffffffffffffffffffffffffffffffffffff168273ffffffffffffffffffffffffffffffffffffffff16847f2f8788117e7eff1d82e926ec794901d17c78024a50270940304540a733656f0d60405160405180910390a46001905062000163565b600090505b92915050565b600080600084815260200190815260200160002060000160008373ffffffffffffffffffffffffffffffffffffffff1673ffffffffffffffffffffffffffffffffffffffff16815260200190815260200160002060009054906101000a900460ff16905092915050565b600033905090565b61228980620001eb6000396000f3fe608060405234801561001057600080fd5b50600436106100f55760003560e01c80638d06804311610097578063b3cc026d11610066578063b3cc026d146102b1578063d547741f146102e1578063dd182996146102fd578063e503498514610319576100f5565b80638d0680431461021557806391d14854146102335780639543bc0114610263578063a217fddf14610293576100f5565b80632f2ff15d116100d35780632f2ff15d1461018a5780632f9f2313146101a657806336568abe146101c4578063434478ab146101e0576100f5565b806301ffc9a7146100fa578063248a9ca31461012a57806329832c0f1461015a575b600080fd5b610114600480360381019061010f91906113b3565b610335565b60405161012191906113fb565b60405180910390f35b610144600480360381019061013f919061144c565b6103af565b6040516101519190611488565b60405180910390f35b610174600480360381019061016f9190611501565b6103ce565b60405161018191906113fb565b60405180910390f35b6101a4600480360381019061019f9190611501565b6103fd565b005b6101ae61041f565b6040516101bb9190611488565b60405180910390f35b6101de60048036038101906101d99190611501565b610443565b005b6101fa60048036038101906101f59190611541565b6104be565b60405161020c96959493929190611633565b60405180910390f35b61021d6106cc565b60405161022a91906116a2565b60405180910390f35b61024d60048036038101906102489190611501565b6106d2565b60405161025a91906113fb565b60405180910390f35b61027d60048036038101906102789190611722565b61073c565b60405161028a9190611938565b60405180910390f35b61029b6109d1565b6040516102a89190611488565b60405180910390f35b6102cb60048036038101906102c6919061144c565b6109d8565b6040516102d891906116a2565b60405180910390f35b6102fb60048036038101906102f69190611501565b6109f0565b005b61031760048036038101906103129190611541565b610a12565b005b610333600480360381019061032e91906119dc565b610bb8565b005b60007f7965db0b000000000000000000000000000000000000000000000000000000007bffffffffffffffffffffffffffffffffffffffffffffffffffffffff1916827bffffffffffffffffffffffffffffffffffffffffffffffffffffffff191614806103a857506103a782610ffc565b5b9050919050565b6000806000838152602001908152602001600020600101549050919050565b60026020528160005260406000206020528060005260406000206000915091509054906101000a900460ff1681565b610406826103af565b61040f81611066565b610419838361107a565b50505050565b7f2ce546a9123a334f0813b906327e067431dc69ac2bae68856ec66a5f092b023681565b61044b61116b565b73ffffffffffffffffffffffffffffffffffffffff168173ffffffffffffffffffffffffffffffffffffffff16146104af576040517f6697b23200000000000000000000000000000000000000000000000000000000815260040160405180910390fd5b6104b98282611173565b505050565b6060806000806000806000600460008973ffffffffffffffffffffffffffffffffffffffff1673ffffffffffffffffffffffffffffffffffffffff1681526020019081526020016000206040518060c001604052908160008201805461052390611ac7565b80601f016020809104026020016040519081016040528092919081815260200182805461054f90611ac7565b801561059c5780601f106105715761010080835404028352916020019161059c565b820191906000526020600020905b81548152906001019060200180831161057f57829003601f168201915b505050505081526020016001820180546105b590611ac7565b80601f01602080910402602001604051908101604052809291908181526020018280546105e190611ac7565b801561062e5780601f106106035761010080835404028352916020019161062e565b820191906000526020600020905b81548152906001019060200180831161061157829003601f168201915b505050505081526020016002820160009054906101000a900460ff1660ff1660ff1681526020016002820160019054906101000a900460ff1660ff1660ff168152602001600382015481526020016004820160009054906101000a900460ff1615151515815250509050806000015181602001518260400151836060015184608001518560a001519650965096509650965096505091939550919395565b60015481565b600080600084815260200190815260200160002060000160008373ffffffffffffffffffffffffffffffffffffffff1673ffffffffffffffffffffffffffffffffffffffff16815260200190815260200160002060009054906101000a900460ff16905092915050565b606060008383905067ffffffffffffffff81111561075d5761075c611af8565b5b60405190808252806020026020018201604052801561079657816020015b6107836112b6565b81526020019060019003908161077b5790505b50905060005b848490508110156109c657600460008686848181106107be576107bd611b27565b5b90506020020160208101906107d39190611541565b73ffffffffffffffffffffffffffffffffffffffff1673ffffffffffffffffffffffffffffffffffffffff1681526020019081526020016000206040518060c001604052908160008201805461082890611ac7565b80601f016020809104026020016040519081016040528092919081815260200182805461085490611ac7565b80156108a15780601f10610876576101008083540402835291602001916108a1565b820191906000526020600020905b81548152906001019060200180831161088457829003601f168201915b505050505081526020016001820180546108ba90611ac7565b80601f01602080910402602001604051908101604052809291908181526020018280546108e690611ac7565b80156109335780601f1061090857610100808354040283529160200191610933565b820191906000526020600020905b81548152906001019060200180831161091657829003601f168201915b505050505081526020016002820160009054906101000a900460ff1660ff1660ff1681526020016002820160019054906101000a900460ff1660ff1660ff168152602001600382015481526020016004820160009054906101000a900460ff1615151515815250508282815181106109ae576109ad611b27565b5b6020026020010181905250808060010191505061079c565b508091505092915050565b6000801b81565b60036020528060005260406000206000915090505481565b6109f9826103af565b610a0281611066565b610a0c8383611173565b50505050565b7f2ce546a9123a334f0813b906327e067431dc69ac2bae68856ec66a5f092b0236610a3c81611066565b600460008373ffffffffffffffffffffffffffffffffffffffff1673ffffffffffffffffffffffffffffffffffffffff16815260200190815260200160002060040160009054906101000a900460ff16610acb576040517f08c379a0000000000000000000000000000000000000000000000000000000008152600401610ac290611ba2565b60405180910390fd5b600460008373ffffffffffffffffffffffffffffffffffffffff1673ffffffffffffffffffffffffffffffffffffffff16815260200190815260200160002060008082016000610b1b91906112f4565b600182016000610b2b91906112f4565b6002820160006101000a81549060ff02191690556002820160016101000a81549060ff021916905560038201600090556004820160006101000a81549060ff021916905550508173ffffffffffffffffffffffffffffffffffffffff167f66baa8598dad476a7a23c2c39a3c9ea353a313b8050f5f2ff7df3121abe1f98360405160405180910390a25050565b7f2ce546a9123a334f0813b906327e067431dc69ac2bae68856ec66a5f092b0236610be281611066565b60648360ff161115610c29576040517f08c379a0000000000000000000000000000000000000000000000000000000008152600401610c2090611c0e565b60405180910390fd5b60648260ff161115610c70576040517f08c379a0000000000000000000000000000000000000000000000000000000008152600401610c6790611c7a565b60405180910390fd5b600088888888888888610e1042610c879190611cf8565b604051602001610c9e989796959493929190611e07565b6040516020818303038152906040528051906020012090506002600082815260200190815260200160002060003373ffffffffffffffffffffffffffffffffffffffff1673ffffffffffffffffffffffffffffffffffffffff16815260200190815260200160002060009054906101000a900460ff1615610d54576040517f08c379a0000000000000000000000000000000000000000000000000000000008152600401610d4b90611ebf565b60405180910390fd5b60016002600083815260200190815260200160002060003373ffffffffffffffffffffffffffffffffffffffff1673ffffffffffffffffffffffffffffffffffffffff16815260200190815260200160002060006101000a81548160ff021916908315150217905550600360008281526020019081526020016000206000815480929190610de190611edf565b9190505550600154600360008381526020019081526020016000205410610ff1576040518060c0016040528089898080601f016020809104026020016040519081016040528093929190818152602001838380828437600081840152601f19601f82011690508083019250505050505050815260200187878080601f016020809104026020016040519081016040528093929190818152602001838380828437600081840152601f19601f8201169050808301925050505050505081526020018560ff1681526020018460ff16815260200142815260200160011515815250600460008b73ffffffffffffffffffffffffffffffffffffffff1673ffffffffffffffffffffffffffffffffffffffff1681526020019081526020016000206000820151816000019081610f1491906120d3565b506020820151816001019081610f2a91906120d3565b5060408201518160020160006101000a81548160ff021916908360ff16021790555060608201518160020160016101000a81548160ff021916908360ff1602179055506080820151816003015560a08201518160040160006101000a81548160ff0219169083151502179055509050508873ffffffffffffffffffffffffffffffffffffffff167f340178e151c64cafa8286aa41f1d0f0e63b1557d63fc335ce1130c54c7487a5d8989898989604051610fe89594939291906121d2565b60405180910390a25b505050505050505050565b60007f01ffc9a7000000000000000000000000000000000000000000000000000000007bffffffffffffffffffffffffffffffffffffffffffffffffffffffff1916827bffffffffffffffffffffffffffffffffffffffffffffffffffffffff1916149050919050565b6110778161107261116b565b611265565b50565b600061108683836106d2565b61116057600160008085815260200190815260200160002060000160008473ffffffffffffffffffffffffffffffffffffffff1673ffffffffffffffffffffffffffffffffffffffff16815260200190815260200160002060006101000a81548160ff0219169083151502179055506110fd61116b565b73ffffffffffffffffffffffffffffffffffffffff168273ffffffffffffffffffffffffffffffffffffffff16847f2f8788117e7eff1d82e926ec794901d17c78024a50270940304540a733656f0d60405160405180910390a460019050611165565b600090505b92915050565b600033905090565b600061117f83836106d2565b1561125a57600080600085815260200190815260200160002060000160008473ffffffffffffffffffffffffffffffffffffffff1673ffffffffffffffffffffffffffffffffffffffff16815260200190815260200160002060006101000a81548160ff0219169083151502179055506111f761116b565b73ffffffffffffffffffffffffffffffffffffffff168273ffffffffffffffffffffffffffffffffffffffff16847ff6391f5c32d9c69d2a47ea670b442974b53935d1edc7fd64eb21e047a839171b60405160405180910390a46001905061125f565b600090505b92915050565b61126f82826106d2565b6112b25780826040517fe2517d3f0000000000000000000000000000000000000000000000000000000081526004016112a992919061222a565b60405180910390fd5b5050565b6040518060c001604052806060815260200160608152602001600060ff168152602001600060ff168152602001600081526020016000151581525090565b50805461130090611ac7565b6000825580601f106113125750611331565b601f0160209004906000526020600020908101906113309190611334565b5b50565b5b8082111561134d576000816000905550600101611335565b5090565b600080fd5b600080fd5b60007fffffffff0000000000000000000000000000000000000000000000000000000082169050919050565b6113908161135b565b811461139b57600080fd5b50565b6000813590506113ad81611387565b92915050565b6000602082840312156113c9576113c8611351565b5b60006113d78482850161139e565b91505092915050565b60008115159050919050565b6113f5816113e0565b82525050565b600060208201905061141060008301846113ec565b92915050565b6000819050919050565b61142981611416565b811461143457600080fd5b50565b60008135905061144681611420565b92915050565b60006020828403121561146257611461611351565b5b600061147084828501611437565b91505092915050565b61148281611416565b82525050565b600060208201905061149d6000830184611479565b92915050565b600073ffffffffffffffffffffffffffffffffffffffff82169050919050565b60006114ce826114a3565b9050919050565b6114de816114c3565b81146114e957600080fd5b50565b6000813590506114fb816114d5565b92915050565b6000806040838503121561151857611517611351565b5b600061152685828601611437565b9250506020611537858286016114ec565b9150509250929050565b60006020828403121561155757611556611351565b5b6000611565848285016114ec565b91505092915050565b600081519050919050565b600082825260208201905092915050565b60005b838110156115a857808201518184015260208101905061158d565b60008484015250505050565b6000601f19601f8301169050919050565b60006115d08261156e565b6115da8185611579565b93506115ea81856020860161158a565b6115f3816115b4565b840191505092915050565b600060ff82169050919050565b611614816115fe565b82525050565b6000819050919050565b61162d8161161a565b82525050565b600060c082019050818103600083015261164d81896115c5565b9050818103602083015261166181886115c5565b9050611670604083018761160b565b61167d606083018661160b565b61168a6080830185611624565b61169760a08301846113ec565b979650505050505050565b60006020820190506116b76000830184611624565b92915050565b600080fd5b600080fd5b600080fd5b60008083601f8401126116e2576116e16116bd565b5b8235905067ffffffffffffffff8111156116ff576116fe6116c2565b5b60208301915083602082028301111561171b5761171a6116c7565b5b9250929050565b6000806020838503121561173957611738611351565b5b600083013567ffffffffffffffff81111561175757611756611356565b5b611763858286016116cc565b92509250509250929050565b600081519050919050565b600082825260208201905092915050565b6000819050602082019050919050565b600082825260208201905092915050565b60006117b78261156e565b6117c1818561179b565b93506117d181856020860161158a565b6117da816115b4565b840191505092915050565b6117ee816115fe565b82525050565b6117fd8161161a565b82525050565b61180c816113e0565b82525050565b600060c083016000830151848203600086015261182f82826117ac565b9150506020830151848203602086015261184982826117ac565b915050604083015161185e60408601826117e5565b50606083015161187160608601826117e5565b50608083015161188460808601826117f4565b5060a083015161189760a0860182611803565b508091505092915050565b60006118ae8383611812565b905092915050565b6000602082019050919050565b60006118ce8261176f565b6118d8818561177a565b9350836020820285016118ea8561178b565b8060005b85811015611926578484038952815161190785826118a2565b9450611912836118b6565b925060208a019950506001810190506118ee565b50829750879550505050505092915050565b6000602082019050818103600083015261195281846118c3565b905092915050565b60008083601f8401126119705761196f6116bd565b5b8235905067ffffffffffffffff81111561198d5761198c6116c2565b5b6020830191508360018202830111156119a9576119a86116c7565b5b9250929050565b6119b9816115fe565b81146119c457600080fd5b50565b6000813590506119d6816119b0565b92915050565b600080600080600080600060a0888a0312156119fb576119fa611351565b5b6000611a098a828b016114ec565b975050602088013567ffffffffffffffff811115611a2a57611a29611356565b5b611a368a828b0161195a565b9650965050604088013567ffffffffffffffff811115611a5957611a58611356565b5b611a658a828b0161195a565b94509450506060611a788a828b016119c7565b9250506080611a898a828b016119c7565b91505092959891949750929550565b7f4e487b7100000000000000000000000000000000000000000000000000000000600052602260045260246000fd5b60006002820490506001821680611adf57607f821691505b602082108103611af257611af1611a98565b5b50919050565b7f4e487b7100000000000000000000000000000000000000000000000000000000600052604160045260246000fd5b7f4e487b7100000000000000000000000000000000000000000000000000000000600052603260045260246000fd5b7f456e7469747920646f6573206e6f742065786973740000000000000000000000600082015250565b6000611b8c601583611579565b9150611b9782611b56565b602082019050919050565b60006020820190508181036000830152611bbb81611b7f565b9050919050565b7f5269736b2073636f7265206d757374206265203c3d2031303000000000000000600082015250565b6000611bf8601983611579565b9150611c0382611bc2565b602082019050919050565b60006020820190508181036000830152611c2781611beb565b9050919050565b7f436f6e666964656e63652073636f7265206d757374206265203c3d2031303000600082015250565b6000611c64601f83611579565b9150611c6f82611c2e565b602082019050919050565b60006020820190508181036000830152611c9381611c57565b9050919050565b7f4e487b7100000000000000000000000000000000000000000000000000000000600052601260045260246000fd5b7f4e487b7100000000000000000000000000000000000000000000000000000000600052601160045260246000fd5b6000611d038261161a565b9150611d0e8361161a565b925082611d1e57611d1d611c9a565b5b828204905092915050565b60008160601b9050919050565b6000611d4182611d29565b9050919050565b6000611d5382611d36565b9050919050565b611d6b611d66826114c3565b611d48565b82525050565b600081905092915050565b82818337600083830152505050565b6000611d978385611d71565b9350611da4838584611d7c565b82840190509392505050565b60008160f81b9050919050565b6000611dc882611db0565b9050919050565b611de0611ddb826115fe565b611dbd565b82525050565b6000819050919050565b611e01611dfc8261161a565b611de6565b82525050565b6000611e13828b611d5a565b601482019150611e2482898b611d8b565b9150611e31828789611d8b565b9150611e3d8286611dcf565b600182019150611e4d8285611dcf565b600182019150611e5d8284611df0565b6020820191508190509998505050505050505050565b7f416c7265616479207369676e6564000000000000000000000000000000000000600082015250565b6000611ea9600e83611579565b9150611eb482611e73565b602082019050919050565b60006020820190508181036000830152611ed881611e9c565b9050919050565b6000611eea8261161a565b91507fffffffffffffffffffffffffffffffffffffffffffffffffffffffffffffffff8203611f1c57611f1b611cc9565b5b600182019050919050565b60008190508160005260206000209050919050565b60006020601f8301049050919050565b600082821b905092915050565b600060088302611f897fffffffffffffffffffffffffffffffffffffffffffffffffffffffffffffffff82611f4c565b611f938683611f4c565b95508019841693508086168417925050509392505050565b6000819050919050565b6000611fd0611fcb611fc68461161a565b611fab565b61161a565b9050919050565b6000819050919050565b611fea83611fb5565b611ffe611ff682611fd7565b848454611f59565b825550505050565b600090565b612013612006565b61201e818484611fe1565b505050565b5b818110156120425761203760008261200b565b600181019050612024565b5050565b601f8211156120875761205881611f27565b61206184611f3c565b81016020851015612070578190505b61208461207c85611f3c565b830182612023565b50505b505050565b600082821c905092915050565b60006120aa6000198460080261208c565b1980831691505092915050565b60006120c38383612099565b9150826002028217905092915050565b6120dc8261156e565b67ffffffffffffffff8111156120f5576120f4611af8565b5b6120ff8254611ac7565b61210a828285612046565b600060209050601f83116001811461213d576000841561212b578287015190505b61213585826120b7565b86555061219d565b601f19841661214b86611f27565b60005b828110156121735784890151825560018201915060208501945060208101905061214e565b86831015612190578489015161218c601f891682612099565b8355505b6001600288020188555050505b505050505050565b60006121b18385611579565b93506121be838584611d7c565b6121c7836115b4565b840190509392505050565b600060608201905081810360008301526121ed8187896121a5565b905081810360208301526122028185876121a5565b9050612211604083018461160b565b9695505050505050565b612224816114c3565b82525050565b600060408201905061223f600083018561221b565b61224c6020830184611479565b939250505056fea2646970667358221220657f048b67c6c311b54e8572f1803805b4418599b5251dd9715bc425e95a7f8864736f6c63430008160033","opcodes":"PUSH1 0x80 PUSH1 0x40 MSTORE PUSH1 0x3 PUSH1 0x1 SSTORE CALLVALUE DUP1 ISZERO PUSH3 0x16 JUMPI PUSH1 0x0 DUP1 REVERT JUMPDEST POP PUSH3 0x2C PUSH1 0x0 DUP1 SHL CALLER PUSH3 0x66 PUSH1 0x20 SHL PUSH1 0x20 SHR JUMP JUMPDEST POP PUSH3 0x5F PUSH32 0x2CE546A9123A334F0813B906327E067431DC69AC2BAE68856EC66A5F092B0236 CALLER PUSH3 0x66 PUSH1 0x20 SHL PUSH1 0x20 SHR JUMP JUMPDEST POP PUSH3 0x1DB JUMP JUMPDEST PUSH1 0x0 PUSH3 0x7A DUP4 DUP4 PUSH3 0x169 PUSH1 0x20 SHL PUSH1 0x20 SHR JUMP JUMPDEST PUSH3 0x15E JUMPI PUSH1 0x1 PUSH1 0x0 DUP1 DUP6 DUP2 MSTORE PUSH1 0x20 ADD SWAP1 DUP2 MSTORE PUSH1 0x20 ADD PUSH1 0x0 KECCAK256 PUSH1 0x0 ADD PUSH1 0x0 DUP5 PUSH20 0xFFFFFFFFFFFFFFFFFFFFFFFFFFFFFFFFFFFFFFFF AND PUSH20 0xFFFFFFFFFFFFFFFFFFFFFFFFFFFFFFFFFFFFFFFF AND DUP2 MSTORE PUSH1 0x20 ADD SWAP1 DUP2 MSTORE PUSH1 0x20 ADD PUSH1 0x0 KECCAK256 PUSH1 0x0 PUSH2 0x100 EXP DUP2 SLOAD DUP2 PUSH1 0xFF MUL NOT AND SWAP1 DUP4 ISZERO ISZERO MUL OR SWAP1 SSTORE POP PUSH3 0xFA PUSH3 0x1D3 PUSH1 0x20 SHL PUSH1 0x20 SHR JUMP JUMPDEST PUSH20 0xFFFFFFFFFFFFFFFFFFFFFFFFFFFFFFFFFFFFFFFF AND DUP3 PUSH20 0xFFFFFFFFFFFFFFFFFFFFFFFFFFFFFFFFFFFFFFFF AND DUP5 PUSH32 0x2F8788117E7EFF1D82E926EC794901D17C78024A50270940304540A733656F0D PUSH1 0x40 MLOAD PUSH1 0x40 MLOAD DUP1 SWAP2 SUB SWAP1 LOG4 PUSH1 0x1 SWAP1 POP PUSH3 0x163 JUMP JUMPDEST PUSH1 0x0 SWAP1 POP JUMPDEST SWAP3 SWAP2 POP POP JUMP JUMPDEST PUSH1 0x0 DUP1 PUSH1 0x0 DUP5 DUP2 MSTORE PUSH1 0x20 ADD SWAP1 DUP2 MSTORE PUSH1 0x20 ADD PUSH1 0x0 KECCAK256 PUSH1 0x0 ADD PUSH1 0x0 DUP4 PUSH20 0xFFFFFFFFFFFFFFFFFFFFFFFFFFFFFFFFFFFFFFFF AND PUSH20 0xFFFFFFFFFFFFFFFFFFFFFFFFFFFFFFFFFFFFFFFF AND DUP2 MSTORE PUSH1 0x20 ADD SWAP1 DUP2 MSTORE PUSH1 0x20 ADD PUSH1 0x0 KECCAK256 PUSH1 0x0 SWAP1 SLOAD SWAP1 PUSH2 0x100 EXP SWAP1 DIV PUSH1 0xFF AND SWAP1 POP SWAP3 SWAP2 POP POP JUMP JUMPDEST PUSH1 0x0 CALLER SWAP1 POP SWAP1 JUMP JUMPDEST PUSH2 0x2289 DUP1 PUSH3 0x1EB PUSH1 0x0 CODECOPY PUSH1 0x0 RETURN INVALID PUSH1 0x80 PUSH1 0x40 MSTORE CALLVALUE DUP1 ISZERO PUSH2 0x10 JUMPI PUSH1 0x0 DUP1 REVERT JUMPDEST POP PUSH1 0x4 CALLDATASIZE LT PUSH2 0xF5 JUMPI PUSH1 0x0 CALLDATALOAD PUSH1 0xE0 SHR DUP1 PUSH4 0x8D068043 GT PUSH2 0x97 JUMPI DUP1 PUSH4 0xB3CC026D GT PUSH2 0x66 JUMPI DUP1 PUSH4 0xB3CC026D EQ PUSH2 0x2B1 JUMPI DUP1 PUSH4 0xD547741F EQ PUSH2 0x2E1 JUMPI DUP1 PUSH4 0xDD182996 EQ PUSH2 0x2FD JUMPI DUP1 PUSH4 0xE5034985 EQ PUSH2 0x319 JUMPI PUSH2 0xF5 JUMP JUMPDEST DUP1 PUSH4 0x8D068043 EQ PUSH2 0x215 JUMPI DUP1 PUSH4 0x91D14854 EQ PUSH2 0x233 JUMPI DUP1 PUSH4 0x9543BC01 EQ PUSH2 0x263 JUMPI DUP1 PUSH4 0xA217FDDF EQ PUSH2 0x293 JUMPI PUSH2 0xF5 JUMP JUMPDEST DUP1 PUSH4 0x2F2FF15D GT PUSH2 0xD3 JUMPI DUP1 PUSH4 0x2F2FF15D EQ PUSH2 0x18A JUMPI DUP1 PUSH4 0x2F9F2313 EQ PUSH2 0x1A6 JUMPI DUP1 PUSH4 0x36568ABE EQ PUSH2 0x1C4 JUMPI DUP1 PUSH4 0x434478AB EQ PUSH2 0x1E0 JUMPI PUSH2 0xF5 JUMP JUMPDEST DUP1 PUSH4 0x1FFC9A7 EQ PUSH2 0xFA JUMPI DUP1 PUSH4 0x248A9CA3 EQ PUSH2 0x12A JUMPI DUP1 PUSH4 0x29832C0F EQ PUSH2 0x15A JUMPI JUMPDEST PUSH1 0x0 DUP1 REVERT JUMPDEST PUSH2 0x114 PUSH1 0x4 DUP1 CALLDATASIZE SUB DUP2 ADD SWAP1 PUSH2 0x10F SWAP2 SWAP1 PUSH2 0x13B3 JUMP JUMPDEST PUSH2 0x335 JUMP JUMPDEST PUSH1 0x40 MLOAD PUSH2 0x121 SWAP2 SWAP1 PUSH2 0x13FB JUMP JUMPDEST PUSH1 0x40 MLOAD DUP1 SWAP2 SUB SWAP1 RETURN JUMPDEST PUSH2 0x144 PUSH1 0x4 DUP1 CALLDATASIZE SUB DUP2 ADD SWAP1 PUSH2 0x13F SWAP2 SWAP1 PUSH2 0x144C JUMP JUMPDEST PUSH2 0x3AF JUMP JUMPDEST PUSH1 0x40 MLOAD PUSH2 0x151 SWAP2 SWAP1 PUSH2 0x1488 JUMP JUMPDEST PUSH1 0x40 MLOAD DUP1 SWAP2 SUB SWAP1 RETURN JUMPDEST PUSH2 0x174 PUSH1 0x4 DUP1 CALLDATASIZE SUB DUP2 ADD SWAP1 PUSH2 0x16F SWAP2 SWAP1 PUSH2 0x1501 JUMP JUMPDEST PUSH2 0x3CE JUMP JUMPDEST PUSH1 0x40 MLOAD PUSH2 0x181 SWAP2 SWAP1 PUSH2 0x13FB JUMP JUMPDEST PUSH1 0x40 MLOAD DUP1 SWAP2 SUB SWAP1 RETURN JUMPDEST PUSH2 0x1A4 PUSH1 0x4 DUP1 CALLDATASIZE SUB DUP2 ADD SWAP1 PUSH2 0x19F SWAP2 SWAP1 PUSH2 0x1501 JUMP JUMPDEST PUSH2 0x3FD JUMP JUMPDEST STOP JUMPDEST PUSH2 0x1AE PUSH2 0x41F JUMP JUMPDEST PUSH1 0x40 MLOAD PUSH2 0x1BB SWAP2 SWAP1 PUSH2 0x1488 JUMP JUMPDEST PUSH1 0x40 MLOAD DUP1 SWAP2 SUB SWAP1 RETURN JUMPDEST PUSH2 0x1DE PUSH1 0x4 DUP1 CALLDATASIZE SUB DUP2 ADD SWAP1 PUSH2 0x1D9 SWAP2 SWAP1 PUSH2 0x1501 JUMP JUMPDEST PUSH2 0x443 JUMP JUMPDEST STOP JUMPDEST PUSH2 0x1FA PUSH1 0x4 DUP1 CALLDATASIZE SUB DUP2 ADD SWAP1 PUSH2 0x1F5 SWAP2 SWAP1 PUSH2 0x1541 JUMP JUMPDEST PUSH2 0x4BE JUMP JUMPDEST PUSH1 0x40 MLOAD PUSH2 0x20C SWAP7 SWAP6 SWAP5 SWAP4 SWAP3 SWAP2 SWAP1 PUSH2 0x1633 JUMP JUMPDEST PUSH1 0x40 MLOAD DUP1 SWAP2 SUB SWAP1 RETURN JUMPDEST PUSH2 0x21D PUSH2 0x6CC JUMP JUMPDEST PUSH1 0x40 MLOAD PUSH2 0x22A SWAP2 SWAP1 PUSH2 0x16A2 JUMP JUMPDEST PUSH1 0x40 MLOAD DUP1 SWAP2 SUB SWAP1 RETURN JUMPDEST PUSH2 0x24D PUSH1 0x4 DUP1 CALLDATASIZE SUB DUP2 ADD SWAP1 PUSH2 0x248 SWAP2 SWAP1 PUSH2 0x1501 JUMP JUMPDEST PUSH2 0x6D2 JUMP JUMPDEST PUSH1 0x40 MLOAD PUSH2 0x25A SWAP2 SWAP1 PUSH2 0x13FB JUMP JUMPDEST PUSH1 0x40 MLOAD DUP1 SWAP2 SUB SWAP1 RETURN JUMPDEST PUSH2 0x27D PUSH1 0x4 DUP1 CALLDATASIZE SUB DUP2 ADD SWAP1 PUSH2 0x278 SWAP2 SWAP1 PUSH2 0x1722 JUMP JUMPDEST PUSH2 0x73C JUMP JUMPDEST PUSH1 0x40 MLOAD PUSH2 0x28A SWAP2 SWAP1 PUSH2 0x1938 JUMP JUMPDEST PUSH1 0x40 MLOAD DUP1 SWAP2 SUB SWAP1 RETURN JUMPDEST PUSH2 0x29B PUSH2 0x9D1 JUMP JUMPDEST PUSH1 0x40 MLOAD PUSH2 0x2A8 SWAP2 SWAP1 PUSH2 0x1488 JUMP JUMPDEST PUSH1 0x40 MLOAD DUP1 SWAP2 SUB SWAP1 RETURN JUMPDEST PUSH2 0x2CB PUSH1 0x4 DUP1 CALLDATASIZE SUB DUP2 ADD SWAP1 PUSH2 0x2C6 SWAP2 SWAP1 PUSH2 0x144C JUMP JUMPDEST PUSH2 0x9D8 JUMP JUMPDEST PUSH1 0x40 MLOAD PUSH2 0x2D8 SWAP2 SWAP1 PUSH2 0x16A2 JUMP JUMPDEST PUSH1 0x40 MLOAD DUP1 SWAP2 SUB SWAP1 RETURN JUMPDEST PUSH2 0x2FB PUSH1 0x4 DUP1 CALLDATASIZE SUB DUP2 ADD SWAP1 PUSH2 0x2F6 SWAP2 SWAP1 PUSH2 0x1501 JUMP JUMPDEST PUSH2 0x9F0 JUMP JUMPDEST STOP JUMPDEST PUSH2 0x317 PUSH1 0x4 DUP1 CALLDATASIZE SUB DUP2 ADD SWAP1 PUSH2 0x312 SWAP2 SWAP1 PUSH2 0x1541 JUMP JUMPDEST PUSH2 0xA12 JUMP JUMPDEST STOP JUMPDEST PUSH2 0x333 PUSH1 0x4 DUP1 CALLDATASIZE SUB DUP2 ADD SWAP1 PUSH2 0x32E SWAP2 SWAP1 PUSH2 0x19DC JUMP JUMPDEST PUSH2 0xBB8 JUMP JUMPDEST STOP JUMPDEST PUSH1 0x0 PUSH32 0x7965DB0B00000000000000000000000000000000000000000000000000000000 PUSH28 0xFFFFFFFFFFFFFFFFFFFFFFFFFFFFFFFFFFFFFFFFFFFFFFFFFFFFFFFF NOT AND DUP3 PUSH28 0xFFFFFFFFFFFFFFFFFFFFFFFFFFFFFFFFFFFFFFFFFFFFFFFFFFFFFFFF NOT AND EQ DUP1 PUSH2 0x3A8 JUMPI POP PUSH2 0x3A7 DUP3 PUSH2 0xFFC JUMP JUMPDEST JUMPDEST SWAP1 POP SWAP2 SWAP1 POP JUMP JUMPDEST PUSH1 0x0 DUP1 PUSH1 0x0 DUP4 DUP2 MSTORE PUSH1 0x20 ADD SWAP1 DUP2 MSTORE PUSH1 0x20 ADD PUSH1 0x0 KECCAK256 PUSH1 0x1 ADD SLOAD SWAP1 POP SWAP2 SWAP1 POP JUMP JUMPDEST PUSH1 0x2 PUSH1 0x20 MSTORE DUP2 PUSH1 0x0 MSTORE PUSH1 0x40 PUSH1 0x0 KECCAK256 PUSH1 0x20 MSTORE DUP1 PUSH1 0x0 MSTORE PUSH1 0x40 PUSH1 0x0 KECCAK256 PUSH1 0x0 SWAP2 POP SWAP2 POP SWAP1 SLOAD SWAP1 PUSH2 0x100 EXP SWAP1 DIV PUSH1 0xFF AND DUP2 JUMP JUMPDEST PUSH2 0x406 DUP3 PUSH2 0x3AF JUMP JUMPDEST PUSH2 0x40F DUP2 PUSH2 0x1066 JUMP JUMPDEST PUSH2 0x419 DUP4 DUP4 PUSH2 0x107A JUMP JUMPDEST POP POP POP POP JUMP JUMPDEST PUSH32 0x2CE546A9123A334F0813B906327E067431DC69AC2BAE68856EC66A5F092B0236 DUP2 JUMP JUMPDEST PUSH2 0x44B PUSH2 0x116B JUMP JUMPDEST PUSH20 0xFFFFFFFFFFFFFFFFFFFFFFFFFFFFFFFFFFFFFFFF AND DUP2 PUSH20 0xFFFFFFFFFFFFFFFFFFFFFFFFFFFFFFFFFFFFFFFF AND EQ PUSH2 0x4AF JUMPI PUSH1 0x40 MLOAD PUSH32 0x6697B23200000000000000000000000000000000000000000000000000000000 DUP2 MSTORE PUSH1 0x4 ADD PUSH1 0x40 MLOAD DUP1 SWAP2 SUB SWAP1 REVERT JUMPDEST PUSH2 0x4B9 DUP3 DUP3 PUSH2 0x1173 JUMP JUMPDEST POP POP POP JUMP JUMPDEST PUSH1 0x60 DUP1 PUSH1 0x0 DUP1 PUSH1 0x0 DUP1 PUSH1 0x0 PUSH1 0x4 PUSH1 0x0 DUP10 PUSH20 0xFFFFFFFFFFFFFFFFFFFFFFFFFFFFFFFFFFFFFFFF AND PUSH20 0xFFFFFFFFFFFFFFFFFFFFFFFFFFFFFFFFFFFFFFFF AND DUP2 MSTORE PUSH1 0x20 ADD SWAP1 DUP2 MSTORE PUSH1 0x20 ADD PUSH1 0x0 KECCAK256 PUSH1 0x40 MLOAD DUP1 PUSH1 0xC0 ADD PUSH1 0x40 MSTORE SWAP1 DUP2 PUSH1 0x0 DUP3 ADD DUP1 SLOAD PUSH2 0x523 SWAP1 PUSH2 0x1AC7 JUMP JUMPDEST DUP1 PUSH1 0x1F ADD PUSH1 0x20 DUP1 SWAP2 DIV MUL PUSH1 0x20 ADD PUSH1 0x40 MLOAD SWAP1 DUP2 ADD PUSH1 0x40 MSTORE DUP1 SWAP3 SWAP2 SWAP1 DUP2 DUP2 MSTORE PUSH1 0x20 ADD DUP3 DUP1 SLOAD PUSH2 0x54F SWAP1 PUSH2 0x1AC7 JUMP JUMPDEST DUP1 ISZERO PUSH2 0x59C JUMPI DUP1 PUSH1 0x1F LT PUSH2 0x571 JUMPI PUSH2 0x100 DUP1 DUP4 SLOAD DIV MUL DUP4 MSTORE SWAP2 PUSH1 0x20 ADD SWAP2 PUSH2 0x59C JUMP JUMPDEST DUP3 ADD SWAP2 SWAP1 PUSH1 0x0 MSTORE PUSH1 0x20 PUSH1 0x0 KECCAK256 SWAP1 JUMPDEST DUP2 SLOAD DUP2 MSTORE SWAP1 PUSH1 0x1 ADD SWAP1 PUSH1 0x20 ADD DUP1 DUP4 GT PUSH2 0x57F JUMPI DUP3 SWAP1 SUB PUSH1 0x1F AND DUP3 ADD SWAP2 JUMPDEST POP POP POP POP POP DUP2 MSTORE PUSH1 0x20 ADD PUSH1 0x1 DUP3 ADD DUP1 SLOAD PUSH2 0x5B5 SWAP1 PUSH2 0x1AC7 JUMP JUMPDEST DUP1 PUSH1 0x1F ADD PUSH1 0x20 DUP1 SWAP2 DIV MUL PUSH1 0x20 ADD PUSH1 0x40 MLOAD SWAP1 DUP2 ADD PUSH1 0x40 MSTORE DUP1 SWAP3 SWAP2 SWAP1 DUP2 DUP2 MSTORE PUSH1 0x20 ADD DUP3 DUP1 SLOAD PUSH2 0x5E1 SWAP1 PUSH2 0x1AC7 JUMP JUMPDEST DUP1 ISZERO PUSH2 0x62E JUMPI DUP1 PUSH1 0x1F LT PUSH2 0x603 JUMPI PUSH2 0x100 DUP1 DUP4 SLOAD DIV MUL DUP4 MSTORE SWAP2 PUSH1 0x20 ADD SWAP2 PUSH2 0x62E JUMP JUMPDEST DUP3 ADD SWAP2 SWAP1 PUSH1 0x0 MSTORE PUSH1 0x20 PUSH1 0x0 KECCAK256 SWAP1 JUMPDEST DUP2 SLOAD DUP2 MSTORE SWAP1 PUSH1 0x1 ADD SWAP1 PUSH1 0x20 ADD DUP1 DUP4 GT PUSH2 0x611 JUMPI DUP3 SWAP1 SUB PUSH1 0x1F AND DUP3 ADD SWAP2 JUMPDEST POP POP POP POP POP DUP2 MSTORE PUSH1 0x20 ADD PUSH1 0x2 DUP3 ADD PUSH1 0x0 SWAP1 SLOAD SWAP1 PUSH2 0x100 EXP SWAP1 DIV PUSH1 0xFF AND PUSH1 0xFF AND PUSH1 0xFF AND DUP2 MSTORE PUSH1 0x20 ADD PUSH1 0x2 DUP3 ADD PUSH1 0x1 SWAP1 SLOAD SWAP1 PUSH2 0x100 EXP SWAP1 DIV PUSH1 0xFF AND PUSH1 0xFF AND PUSH1 0xFF AND DUP2 MSTORE PUSH1 0x20 ADD PUSH1 0x3 DUP3 ADD SLOAD DUP2 MSTORE PUSH1 0x20 ADD PUSH1 0x4 DUP3 ADD PUSH1 0x0 SWAP1 SLOAD SWAP1 PUSH2 0x100 EXP SWAP1 DIV PUSH1 0xFF AND ISZERO ISZERO ISZERO ISZERO DUP2 MSTORE POP POP SWAP1 POP DUP1 PUSH1 0x0 ADD MLOAD DUP2 PUSH1 0x20 ADD MLOAD DUP3 PUSH1 0x40 ADD MLOAD DUP4 PUSH1 0x60 ADD MLOAD DUP5 PUSH1 0x80 ADD MLOAD DUP6 PUSH1 0xA0 ADD MLOAD SWAP7 POP SWAP7 POP SWAP7 POP SWAP7 POP SWAP7 POP SWAP7 POP POP SWAP2 SWAP4 SWAP6 POP SWAP2 SWAP4 SWAP6 JUMP JUMPDEST PUSH1 0x1 SLOAD DUP2 JUMP JUMPDEST PUSH1 0x0 DUP1 PUSH1 0x0 DUP5 DUP2 MSTORE PUSH1 0x20 ADD SWAP1 DUP2 MSTORE PUSH1 0x20 ADD PUSH1 0x0 KECCAK256 PUSH1 0x0 ADD PUSH1 0x0 DUP4 PUSH20 0xFFFFFFFFFFFFFFFFFFFFFFFFFFFFFFFFFFFFFFFF AND PUSH20 0xFFFFFFFFFFFFFFFFFFFFFFFFFFFFFFFFFFFFFFFF AND DUP2 MSTORE PUSH1 0x20 ADD SWAP1 DUP2 MSTORE PUSH1 0x20 ADD PUSH1 0x0 KECCAK256 PUSH1 0x0 SWAP1 SLOAD SWAP1 PUSH2 0x100 EXP SWAP1 DIV PUSH1 0xFF AND SWAP1 POP SWAP3 SWAP2 POP POP JUMP JUMPDEST PUSH1 0x60 PUSH1 0x0 DUP4 DUP4 SWAP1 POP PUSH8 0xFFFFFFFFFFFFFFFF DUP2 GT ISZERO PUSH2 0x75D JUMPI PUSH2 0x75C PUSH2 0x1AF8 JUMP JUMPDEST JUMPDEST PUSH1 0x40 MLOAD SWAP1 DUP1 DUP3 MSTORE DUP1 PUSH1 0x20 MUL PUSH1 0x20 ADD DUP3 ADD PUSH1 0x40 MSTORE DUP1 ISZERO PUSH2 0x796 JUMPI DUP2 PUSH1 0x20 ADD JUMPDEST PUSH2 0x783 PUSH2 0x12B6 JUMP JUMPDEST DUP2 MSTORE PUSH1 0x20 ADD SWAP1 PUSH1 0x1 SWAP1 SUB SWAP1 DUP2 PUSH2 0x77B JUMPI SWAP1 POP JUMPDEST POP SWAP1 POP PUSH1 0x0 JUMPDEST DUP5 DUP5 SWAP1 POP DUP2 LT ISZERO PUSH2 0x9C6 JUMPI PUSH1 0x4 PUSH1 0x0 DUP7 DUP7 DUP5 DUP2 DUP2 LT PUSH2 0x7BE JUMPI PUSH2 0x7BD PUSH2 0x1B27 JUMP JUMPDEST JUMPDEST SWAP1 POP PUSH1 0x20 MUL ADD PUSH1 0x20 DUP2 ADD SWAP1 PUSH2 0x7D3 SWAP2 SWAP1 PUSH2 0x1541 JUMP JUMPDEST PUSH20 0xFFFFFFFFFFFFFFFFFFFFFFFFFFFFFFFFFFFFFFFF AND PUSH20 0xFFFFFFFFFFFFFFFFFFFFFFFFFFFFFFFFFFFFFFFF AND DUP2 MSTORE PUSH1 0x20 ADD SWAP1 DUP2 MSTORE PUSH1 0x20 ADD PUSH1 0x0 KECCAK256 PUSH1 0x40 MLOAD DUP1 PUSH1 0xC0 ADD PUSH1 0x40 MSTORE SWAP1 DUP2 PUSH1 0x0 DUP3 ADD DUP1 SLOAD PUSH2 0x828 SWAP1 PUSH2 0x1AC7 JUMP JUMPDEST DUP1 PUSH1 0x1F ADD PUSH1 0x20 DUP1 SWAP2 DIV MUL PUSH1 0x20 ADD PUSH1 0x40 MLOAD SWAP1 DUP2 ADD PUSH1 0x40 MSTORE DUP1 SWAP3 SWAP2 SWAP1 DUP2 DUP2 MSTORE PUSH1 0x20 ADD DUP3 DUP1 SLOAD PUSH2 0x854 SWAP1 PUSH2 0x1AC7 JUMP JUMPDEST DUP1 ISZERO PUSH2 0x8A1 JUMPI DUP1 PUSH1 0x1F LT PUSH2 0x876 JUMPI PUSH2 0x100 DUP1 DUP4 SLOAD DIV MUL DUP4 MSTORE SWAP2 PUSH1 0x20 ADD SWAP2 PUSH2 0x8A1 JUMP JUMPDEST DUP3 ADD SWAP2 SWAP1 PUSH1 0x0 MSTORE PUSH1 0x20 PUSH1 0x0 KECCAK256 SWAP1 JUMPDEST DUP2 SLOAD DUP2 MSTORE SWAP1 PUSH1 0x1 ADD SWAP1 PUSH1 0x20 ADD DUP1 DUP4 GT PUSH2 0x884 JUMPI DUP3 SWAP1 SUB PUSH1 0x1F AND DUP3 ADD SWAP2 JUMPDEST POP POP POP POP POP DUP2 MSTORE PUSH1 0x20 ADD PUSH1 0x1 DUP3 ADD DUP1 SLOAD PUSH2 0x8BA SWAP1 PUSH2 0x1AC7 JUMP JUMPDEST DUP1 PUSH1 0x1F ADD PUSH1 0x20 DUP1 SWAP2 DIV MUL PUSH1 0x20 ADD PUSH1 0x40 MLOAD SWAP1 DUP2 ADD PUSH1 0x40 MSTORE DUP1 SWAP3 SWAP2 SWAP1 DUP2 DUP2 MSTORE PUSH1 0x20 ADD DUP3 DUP1 SLOAD PUSH2 0x8E6 SWAP1 PUSH2 0x1AC7 JUMP JUMPDEST DUP1 ISZERO PUSH2 0x933 JUMPI DUP1 PUSH1 0x1F LT PUSH2 0x908 JUMPI PUSH2 0x100 DUP1 DUP4 SLOAD DIV MUL DUP4 MSTORE SWAP2 PUSH1 0x20 ADD SWAP2 PUSH2 0x933 JUMP JUMPDEST DUP3 ADD SWAP2 SWAP1 PUSH1 0x0 MSTORE PUSH1 0x20 PUSH1 0x0 KECCAK256 SWAP1 JUMPDEST DUP2 SLOAD DUP2 MSTORE SWAP1 PUSH1 0x1 ADD SWAP1 PUSH1 0x20 ADD DUP1 DUP4 GT PUSH2 0x916 JUMPI DUP3 SWAP1 SUB PUSH1 0x1F AND DUP3 ADD SWAP2 JUMPDEST POP POP POP POP POP DUP2 MSTORE PUSH1 0x20 ADD PUSH1 0x2 DUP3 ADD PUSH1 0x0 SWAP1 SLOAD SWAP1 PUSH2 0x100 EXP SWAP1 DIV PUSH1 0xFF AND PUSH1 0xFF AND PUSH1 0xFF AND DUP2 MSTORE PUSH1 0x20 ADD PUSH1 0x2 DUP3 ADD PUSH1 0x1 SWAP1 SLOAD SWAP1 PUSH2 0x100 EXP SWAP1 DIV PUSH1 0xFF AND PUSH1 0xFF AND PUSH1 0xFF AND DUP2 MSTORE PUSH1 0x20 ADD PUSH1 0x3 DUP3 ADD SLOAD DUP2 MSTORE PUSH1 0x20 ADD PUSH1 0x4 DUP3 ADD PUSH1 0x0 SWAP1 SLOAD SWAP1 PUSH2 0x100 EXP SWAP1 DIV PUSH1 0xFF AND ISZERO ISZERO ISZERO ISZERO DUP2 MSTORE POP POP DUP3 DUP3 DUP2 MLOAD DUP2 LT PUSH2 0x9AE JUMPI PUSH2 0x9AD PUSH2 0x1B27 JUMP JUMPDEST JUMPDEST PUSH1 0x20 MUL PUSH1 0x20 ADD ADD DUP2 SWAP1 MSTORE POP DUP1 DUP1 PUSH1 0x1 ADD SWAP2 POP POP PUSH2 0x79C JUMP JUMPDEST POP DUP1 SWAP2 POP POP SWAP3 SWAP2 POP POP JUMP JUMPDEST PUSH1 0x0 DUP1 SHL DUP2 JUMP JUMPDEST PUSH1 0x3 PUSH1 0x20 MSTORE DUP1 PUSH1 0x0 MSTORE PUSH1 0x40 PUSH1 0x0 KECCAK256 PUSH1 0x0 SWAP2 POP SWAP1 POP SLOAD DUP2 JUMP JUMPDEST PUSH2 0x9F9 DUP3 PUSH2 0x3AF JUMP JUMPDEST PUSH2 0xA02 DUP2 PUSH2 0x1066 JUMP JUMPDEST PUSH2 0xA0C DUP4 DUP4 PUSH2 0x1173 JUMP JUMPDEST POP POP POP POP JUMP JUMPDEST PUSH32 0x2CE546A9123A334F0813B906327E067431DC69AC2BAE68856EC66A5F092B0236 PUSH2 0xA3C DUP2 PUSH2 0x1066 JUMP JUMPDEST PUSH1 0x4 PUSH1 0x0 DUP4 PUSH20 0xFFFFFFFFFFFFFFFFFFFFFFFFFFFFFFFFFFFFFFFF AND PUSH20 0xFFFFFFFFFFFFFFFFFFFFFFFFFFFFFFFFFFFFFFFF AND DUP2 MSTORE PUSH1 0x20 ADD SWAP1 DUP2 MSTORE PUSH1 0x20 ADD PUSH1 0x0 KECCAK256 PUSH1 0x4 ADD PUSH1 0x0 SWAP1 SLOAD SWAP1 PUSH2 0x100 EXP SWAP1 DIV PUSH1 0xFF AND PUSH2 0xACB JUMPI PUSH1 0x40 MLOAD PUSH32 0x8C379A000000000000000000000000000000000000000000000000000000000 DUP2 MSTORE PUSH1 0x4 ADD PUSH2 0xAC2 SWAP1 PUSH2 0x1BA2 JUMP JUMPDEST PUSH1 0x40 MLOAD DUP1 SWAP2 SUB SWAP1 REVERT JUMPDEST PUSH1 0x4 PUSH1 0x0 DUP4 PUSH20 0xFFFFFFFFFFFFFFFFFFFFFFFFFFFFFFFFFFFFFFFF AND PUSH20 0xFFFFFFFFFFFFFFFFFFFFFFFFFFFFFFFFFFFFFFFF AND DUP2 MSTORE PUSH1 0x20 ADD SWAP1 DUP2 MSTORE PUSH1 0x20 ADD PUSH1 0x0 KECCAK256 PUSH1 0x0 DUP1 DUP3 ADD PUSH1 0x0 PUSH2 0xB1B SWAP2 SWAP1 PUSH2 0x12F4 JUMP JUMPDEST PUSH1 0x1 DUP3 ADD PUSH1 0x0 PUSH2 0xB2B SWAP2 SWAP1 PUSH2 0x12F4 JUMP JUMPDEST PUSH1 0x2 DUP3 ADD PUSH1 0x0 PUSH2 0x100 EXP DUP2 SLOAD SWAP1 PUSH1 0xFF MUL NOT AND SWAP1 SSTORE PUSH1 0x2 DUP3 ADD PUSH1 0x1 PUSH2 0x100 EXP DUP2 SLOAD SWAP1 PUSH1 0xFF MUL NOT AND SWAP1 SSTORE PUSH1 0x3 DUP3 ADD PUSH1 0x0 SWAP1 SSTORE PUSH1 0x4 DUP3 ADD PUSH1 0x0 PUSH2 0x100 EXP DUP2 SLOAD SWAP1 PUSH1 0xFF MUL NOT AND SWAP1 SSTORE POP POP DUP2 PUSH20 0xFFFFFFFFFFFFFFFFFFFFFFFFFFFFFFFFFFFFFFFF AND PUSH32 0x66BAA8598DAD476A7A23C2C39A3C9EA353A313B8050F5F2FF7DF3121ABE1F983 PUSH1 0x40 MLOAD PUSH1 0x40 MLOAD DUP1 SWAP2 SUB SWAP1 LOG2 POP POP JUMP JUMPDEST PUSH32 0x2CE546A9123A334F0813B906327E067431DC69AC2BAE68856EC66A5F092B0236 PUSH2 0xBE2 DUP2 PUSH2 0x1066 JUMP JUMPDEST PUSH1 0x64 DUP4 PUSH1 0xFF AND GT ISZERO PUSH2 0xC29 JUMPI PUSH1 0x40 MLOAD PUSH32 0x8C379A000000000000000000000000000000000000000000000000000000000 DUP2 MSTORE PUSH1 0x4 ADD PUSH2 0xC20 SWAP1 PUSH2 0x1C0E JUMP JUMPDEST PUSH1 0x40 MLOAD DUP1 SWAP2 SUB SWAP1 REVERT JUMPDEST PUSH1 0x64 DUP3 PUSH1 0xFF AND GT ISZERO PUSH2 0xC70 JUMPI PUSH1 0x40 MLOAD PUSH32 0x8C379A000000000000000000000000000000000000000000000000000000000 DUP2 MSTORE PUSH1 0x4 ADD PUSH2 0xC67 SWAP1 PUSH2 0x1C7A JUMP JUMPDEST PUSH1 0x40 MLOAD DUP1 SWAP2 SUB SWAP1 REVERT JUMPDEST PUSH1 0x0 DUP9 DUP9 DUP9 DUP9 DUP9 DUP9 DUP9 PUSH2 0xE10 TIMESTAMP PUSH2 0xC87 SWAP2 SWAP1 PUSH2 0x1CF8 JUMP JUMPDEST PUSH1 0x40 MLOAD PUSH1 0x20 ADD PUSH2 0xC9E SWAP9 SWAP8 SWAP7 SWAP6 SWAP5 SWAP4 SWAP3 SWAP2 SWAP1 PUSH2 0x1E07 JUMP JUMPDEST PUSH1 0x40 MLOAD PUSH1 0x20 DUP2 DUP4 SUB SUB DUP2 MSTORE SWAP1 PUSH1 0x40 MSTORE DUP1 MLOAD SWAP1 PUSH1 0x20 ADD KECCAK256 SWAP1 POP PUSH1 0x2 PUSH1 0x0 DUP3 DUP2 MSTORE PUSH1 0x20 ADD SWAP1 DUP2 MSTORE PUSH1 0x20 ADD PUSH1 0x0 KECCAK256 PUSH1 0x0 CALLER PUSH20 0xFFFFFFFFFFFFFFFFFFFFFFFFFFFFFFFFFFFFFFFF AND PUSH20 0xFFFFFFFFFFFFFFFFFFFFFFFFFFFFFFFFFFFFFFFF AND DUP2 MSTORE PUSH1 0x20 ADD SWAP1 DUP2 MSTORE PUSH1 0x20 ADD PUSH1 0x0 KECCAK256 PUSH1 0x0 SWAP1 SLOAD SWAP1 PUSH2 0x100 EXP SWAP1 DIV PUSH1 0xFF AND ISZERO PUSH2 0xD54 JUMPI PUSH1 0x40 MLOAD PUSH32 0x8C379A000000000000000000000000000000000000000000000000000000000 DUP2 MSTORE PUSH1 0x4 ADD PUSH2 0xD4B SWAP1 PUSH2 0x1EBF JUMP JUMPDEST PUSH1 0x40 MLOAD DUP1 SWAP2 SUB SWAP1 REVERT JUMPDEST PUSH1 0x1 PUSH1 0x2 PUSH1 0x0 DUP4 DUP2 MSTORE PUSH1 0x20 ADD SWAP1 DUP2 MSTORE PUSH1 0x20 ADD PUSH1 0x0 KECCAK256 PUSH1 0x0 CALLER PUSH20 0xFFFFFFFFFFFFFFFFFFFFFFFFFFFFFFFFFFFFFFFF AND PUSH20 0xFFFFFFFFFFFFFFFFFFFFFFFFFFFFFFFFFFFFFFFF AND DUP2 MSTORE PUSH1 0x20 ADD SWAP1 DUP2 MSTORE PUSH1 0x20 ADD PUSH1 0x0 KECCAK256 PUSH1 0x0 PUSH2 0x100 EXP DUP2 SLOAD DUP2 PUSH1 0xFF MUL NOT AND SWAP1 DUP4 ISZERO ISZERO MUL OR SWAP1 SSTORE POP PUSH1 0x3 PUSH1 0x0 DUP3 DUP2 MSTORE PUSH1 0x20 ADD SWAP1 DUP2 MSTORE PUSH1 0x20 ADD PUSH1 0x0 KECCAK256 PUSH1 0x0 DUP2 SLOAD DUP1 SWAP3 SWAP2 SWAP1 PUSH2 0xDE1 SWAP1 PUSH2 0x1EDF JUMP JUMPDEST SWAP2 SWAP1 POP SSTORE POP PUSH1 0x1 SLOAD PUSH1 0x3 PUSH1 0x0 DUP4 DUP2 MSTORE PUSH1 0x20 ADD SWAP1 DUP2 MSTORE PUSH1 0x20 ADD PUSH1 0x0 KECCAK256 SLOAD LT PUSH2 0xFF1 JUMPI PUSH1 0x40 MLOAD DUP1 PUSH1 0xC0 ADD PUSH1 0x40 MSTORE DUP1 DUP10 DUP10 DUP1 DUP1 PUSH1 0x1F ADD PUSH1 0x20 DUP1 SWAP2 DIV MUL PUSH1 0x20 ADD PUSH1 0x40 MLOAD SWAP1 DUP2 ADD PUSH1 0x40 MSTORE DUP1 SWAP4 SWAP3 SWAP2 SWAP1 DUP2 DUP2 MSTORE PUSH1 0x20 ADD DUP4 DUP4 DUP1 DUP3 DUP5 CALLDATACOPY PUSH1 0x0 DUP2 DUP5 ADD MSTORE PUSH1 0x1F NOT PUSH1 0x1F DUP3 ADD AND SWAP1 POP DUP1 DUP4 ADD SWAP3 POP POP POP POP POP POP POP DUP2 MSTORE PUSH1 0x20 ADD DUP8 DUP8 DUP1 DUP1 PUSH1 0x1F ADD PUSH1 0x20 DUP1 SWAP2 DIV MUL PUSH1 0x20 ADD PUSH1 0x40 MLOAD SWAP1 DUP2 ADD PUSH1 0x40 MSTORE DUP1 SWAP4 SWAP3 SWAP2 SWAP1 DUP2 DUP2 MSTORE PUSH1 0x20 ADD DUP4 DUP4 DUP1 DUP3 DUP5 CALLDATACOPY PUSH1 0x0 DUP2 DUP5 ADD MSTORE PUSH1 0x1F NOT PUSH1 0x1F DUP3 ADD AND SWAP1 POP DUP1 DUP4 ADD SWAP3 POP POP POP POP POP POP POP DUP2 MSTORE PUSH1 0x20 ADD DUP6 PUSH1 0xFF AND DUP2 MSTORE PUSH1 0x20 ADD DUP5 PUSH1 0xFF AND DUP2 MSTORE PUSH1 0x20 ADD TIMESTAMP DUP2 MSTORE PUSH1 0x20 ADD PUSH1 0x1 ISZERO ISZERO DUP2 MSTORE POP PUSH1 0x4 PUSH1 0x0 DUP12 PUSH20 0xFFFFFFFFFFFFFFFFFFFFFFFFFFFFFFFFFFFFFFFF AND PUSH20 0xFFFFFFFFFFFFFFFFFFFFFFFFFFFFFFFFFFFFFFFF AND DUP2 MSTORE PUSH1 0x20 ADD SWAP1 DUP2 MSTORE PUSH1 0x20 ADD PUSH1 0x0 KECCAK256 PUSH1 0x0 DUP3 ADD MLOAD DUP2 PUSH1 0x0 ADD SWAP1 DUP2 PUSH2 0xF14 SWAP2 SWAP1 PUSH2 0x20D3 JUMP JUMPDEST POP PUSH1 0x20 DUP3 ADD MLOAD DUP2 PUSH1 0x1 ADD SWAP1 DUP2 PUSH2 0xF2A SWAP2 SWAP1 PUSH2 0x20D3 JUMP JUMPDEST POP PUSH1 0x40 DUP3 ADD MLOAD DUP2 PUSH1 0x2 ADD PUSH1 0x0 PUSH2 0x100 EXP DUP2 SLOAD DUP2 PUSH1 0xFF MUL NOT AND SWAP1 DUP4 PUSH1 0xFF AND MUL OR SWAP1 SSTORE POP PUSH1 0x60 DUP3 ADD MLOAD DUP2 PUSH1 0x2 ADD PUSH1 0x1 PUSH2 0x100 EXP DUP2 SLOAD DUP2 PUSH1 0xFF MUL NOT AND SWAP1 DUP4 PUSH1 0xFF AND MUL OR SWAP1 SSTORE POP PUSH1 0x80 DUP3 ADD MLOAD DUP2 PUSH1 0x3 ADD SSTORE PUSH1 0xA0 DUP3 ADD MLOAD DUP2 PUSH1 0x4 ADD PUSH1 0x0 PUSH2 0x100 EXP DUP2 SLOAD DUP2 PUSH1 0xFF MUL NOT AND SWAP1 DUP4 ISZERO ISZERO MUL OR SWAP1 SSTORE POP SWAP1 POP POP DUP9 PUSH20 0xFFFFFFFFFFFFFFFFFFFFFFFFFFFFFFFFFFFFFFFF AND PUSH32 0x340178E151C64CAFA8286AA41F1D0F0E63B1557D63FC335CE1130C54C7487A5D DUP10 DUP10 DUP10 DUP10 DUP10 PUSH1 0x40 MLOAD PUSH2 0xFE8 SWAP6 SWAP5 SWAP4 SWAP3 SWAP2 SWAP1 PUSH2 0x21D2 JUMP JUMPDEST PUSH1 0x40 MLOAD DUP1 SWAP2 SUB SWAP1 LOG2 JUMPDEST POP POP POP POP POP POP POP POP POP JUMP JUMPDEST PUSH1 0x0 PUSH32 0x1FFC9A700000000000000000000000000000000000000000000000000000000 PUSH28 0xFFFFFFFFFFFFFFFFFFFFFFFFFFFFFFFFFFFFFFFFFFFFFFFFFFFFFFFF NOT AND DUP3 PUSH28 0xFFFFFFFFFFFFFFFFFFFFFFFFFFFFFFFFFFFFFFFFFFFFFFFFFFFFFFFF NOT AND EQ SWAP1 POP SWAP2 SWAP1 POP JUMP JUMPDEST PUSH2 0x1077 DUP2 PUSH2 0x1072 PUSH2 0x116B JUMP JUMPDEST PUSH2 0x1265 JUMP JUMPDEST POP JUMP JUMPDEST PUSH1 0x0 PUSH2 0x1086 DUP4 DUP4 PUSH2 0x6D2 JUMP JUMPDEST PUSH2 0x1160 JUMPI PUSH1 0x1 PUSH1 0x0 DUP1 DUP6 DUP2 MSTORE PUSH1 0x20 ADD SWAP1 DUP2 MSTORE PUSH1 0x20 ADD PUSH1 0x0 KECCAK256 PUSH1 0x0 ADD PUSH1 0x0 DUP5 PUSH20 0xFFFFFFFFFFFFFFFFFFFFFFFFFFFFFFFFFFFFFFFF AND PUSH20 0xFFFFFFFFFFFFFFFFFFFFFFFFFFFFFFFFFFFFFFFF AND DUP2 MSTORE PUSH1 0x20 ADD SWAP1 DUP2 MSTORE PUSH1 0x20 ADD PUSH1 0x0 KECCAK256 PUSH1 0x0 PUSH2 0x100 EXP DUP2 SLOAD DUP2 PUSH1 0xFF MUL NOT AND SWAP1 DUP4 ISZERO ISZERO MUL OR SWAP1 SSTORE POP PUSH2 0x10FD PUSH2 0x116B JUMP JUMPDEST PUSH20 0xFFFFFFFFFFFFFFFFFFFFFFFFFFFFFFFFFFFFFFFF AND DUP3 PUSH20 0xFFFFFFFFFFFFFFFFFFFFFFFFFFFFFFFFFFFFFFFF AND DUP5 PUSH32 0x2F8788117E7EFF1D82E926EC794901D17C78024A50270940304540A733656F0D PUSH1 0x40 MLOAD PUSH1 0x40 MLOAD DUP1 SWAP2 SUB SWAP1 LOG4 PUSH1 0x1 SWAP1 POP PUSH2 0x1165 JUMP JUMPDEST PUSH1 0x0 SWAP1 POP JUMPDEST SWAP3 SWAP2 POP POP JUMP JUMPDEST PUSH1 0x0 CALLER SWAP1 POP SWAP1 JUMP JUMPDEST PUSH1 0x0 PUSH2 0x117F DUP4 DUP4 PUSH2 0x6D2 JUMP JUMPDEST ISZERO PUSH2 0x125A JUMPI PUSH1 0x0 DUP1 PUSH1 0x0 DUP6 DUP2 MSTORE PUSH1 0x20 ADD SWAP1 DUP2 MSTORE PUSH1 0x20 ADD PUSH1 0x0 KECCAK256 PUSH1 0x0 ADD PUSH1 0x0 DUP5 PUSH20 0xFFFFFFFFFFFFFFFFFFFFFFFFFFFFFFFFFFFFFFFF AND PUSH20 0xFFFFFFFFFFFFFFFFFFFFFFFFFFFFFFFFFFFFFFFF AND DUP2 MSTORE PUSH1 0x20 ADD SWAP1 DUP2 MSTORE PUSH1 0x20 ADD PUSH1 0x0 KECCAK256 PUSH1 0x0 PUSH2 0x100 EXP DUP2 SLOAD DUP2 PUSH1 0xFF MUL NOT AND SWAP1 DUP4 ISZERO ISZERO MUL OR SWAP1 SSTORE POP PUSH2 0x11F7 PUSH2 0x116B JUMP JUMPDEST PUSH20 0xFFFFFFFFFFFFFFFFFFFFFFFFFFFFFFFFFFFFFFFF AND DUP3 PUSH20 0xFFFFFFFFFFFFFFFFFFFFFFFFFFFFFFFFFFFFFFFF AND DUP5 PUSH32 0xF6391F5C32D9C69D2A47EA670B442974B53935D1EDC7FD64EB21E047A839171B PUSH1 0x40 MLOAD PUSH1 0x40 MLOAD DUP1 SWAP2 SUB SWAP1 LOG4 PUSH1 0x1 SWAP1 POP PUSH2 0x125F JUMP JUMPDEST PUSH1 0x0 SWAP1 POP JUMPDEST SWAP3 SWAP2 POP POP JUMP JUMPDEST PUSH2 0x126F DUP3 DUP3 PUSH2 0x6D2 JUMP JUMPDEST PUSH2 0x12B2 JUMPI DUP1 DUP3 PUSH1 0x40 MLOAD PUSH32 0xE2517D3F00000000000000000000000000000000000000000000000000000000 DUP2 MSTORE PUSH1 0x4 ADD PUSH2 0x12A9 SWAP3 SWAP2 SWAP1 PUSH2 0x222A JUMP JUMPDEST PUSH1 0x40 MLOAD DUP1 SWAP2 SUB SWAP1 REVERT JUMPDEST POP POP JUMP JUMPDEST PUSH1 0x40 MLOAD DUP1 PUSH1 0xC0 ADD PUSH1 0x40 MSTORE DUP1 PUSH1 0x60 DUP2 MSTORE PUSH1 0x20 ADD PUSH1 0x60 DUP2 MSTORE PUSH1 0x20 ADD PUSH1 0x0 PUSH1 0xFF AND DUP2 MSTORE PUSH1 0x20 ADD PUSH1 0x0 PUSH1 0xFF AND DUP2 MSTORE PUSH1 0x20 ADD PUSH1 0x0 DUP2 MSTORE PUSH1 0x20 ADD PUSH1 0x0 ISZERO ISZERO DUP2 MSTORE POP SWAP1 JUMP JUMPDEST POP DUP1 SLOAD PUSH2 0x1300 SWAP1 PUSH2 0x1AC7 JUMP JUMPDEST PUSH1 0x0 DUP3 SSTORE DUP1 PUSH1 0x1F LT PUSH2 0x1312 JUMPI POP PUSH2 0x1331 JUMP JUMPDEST PUSH1 0x1F ADD PUSH1 0x20 SWAP1 DIV SWAP1 PUSH1 0x0 MSTORE PUSH1 0x20 PUSH1 0x0 KECCAK256 SWAP1 DUP2 ADD SWAP1 PUSH2 0x1330 SWAP2 SWAP1 PUSH2 0x1334 JUMP JUMPDEST JUMPDEST POP JUMP JUMPDEST JUMPDEST DUP1 DUP3 GT ISZERO PUSH2 0x134D JUMPI PUSH1 0x0 DUP2 PUSH1 0x0 SWAP1 SSTORE POP PUSH1 0x1 ADD PUSH2 0x1335 JUMP JUMPDEST POP SWAP1 JUMP JUMPDEST PUSH1 0x0 DUP1 REVERT JUMPDEST PUSH1 0x0 DUP1 REVERT JUMPDEST PUSH1 0x0 PUSH32 0xFFFFFFFF00000000000000000000000000000000000000000000000000000000 DUP3 AND SWAP1 POP SWAP2 SWAP1 POP JUMP JUMPDEST PUSH2 0x1390 DUP2 PUSH2 0x135B JUMP JUMPDEST DUP2 EQ PUSH2 0x139B JUMPI PUSH1 0x0 DUP1 REVERT JUMPDEST POP JUMP JUMPDEST PUSH1 0x0 DUP2 CALLDATALOAD SWAP1 POP PUSH2 0x13AD DUP2 PUSH2 0x1387 JUMP JUMPDEST SWAP3 SWAP2 POP POP JUMP JUMPDEST PUSH1 0x0 PUSH1 0x20 DUP3 DUP5 SUB SLT ISZERO PUSH2 0x13C9 JUMPI PUSH2 0x13C8 PUSH2 0x1351 JUMP JUMPDEST JUMPDEST PUSH1 0x0 PUSH2 0x13D7 DUP5 DUP3 DUP6 ADD PUSH2 0x139E JUMP JUMPDEST SWAP2 POP POP SWAP3 SWAP2 POP POP JUMP JUMPDEST PUSH1 0x0 DUP2 ISZERO ISZERO SWAP1 POP SWAP2 SWAP1 POP JUMP JUMPDEST PUSH2 0x13F5 DUP2 PUSH2 0x13E0 JUMP JUMPDEST DUP3 MSTORE POP POP JUMP JUMPDEST PUSH1 0x0 PUSH1 0x20 DUP3 ADD SWAP1 POP PUSH2 0x1410 PUSH1 0x0 DUP4 ADD DUP5 PUSH2 0x13EC JUMP JUMPDEST SWAP3 SWAP2 POP POP JUMP JUMPDEST PUSH1 0x0 DUP2 SWAP1 POP SWAP2 SWAP1 POP JUMP JUMPDEST PUSH2 0x1429 DUP2 PUSH2 0x1416 JUMP JUMPDEST DUP2 EQ PUSH2 0x1434 JUMPI PUSH1 0x0 DUP1 REVERT JUMPDEST POP JUMP JUMPDEST PUSH1 0x0 DUP2 CALLDATALOAD SWAP1 POP PUSH2 0x1446 DUP2 PUSH2 0x1420 JUMP JUMPDEST SWAP3 SWAP2 POP POP JUMP JUMPDEST PUSH1 0x0 PUSH1 0x20 DUP3 DUP5 SUB SLT ISZERO PUSH2 0x1462 JUMPI PUSH2 0x1461 PUSH2 0x1351 JUMP JUMPDEST JUMPDEST PUSH1 0x0 PUSH2 0x1470 DUP5 DUP3 DUP6 ADD PUSH2 0x1437 JUMP JUMPDEST SWAP2 POP POP SWAP3 SWAP2 POP POP JUMP JUMPDEST PUSH2 0x1482 DUP2 PUSH2 0x1416 JUMP JUMPDEST DUP3 MSTORE POP POP JUMP JUMPDEST PUSH1 0x0 PUSH1 0x20 DUP3 ADD SWAP1 POP PUSH2 0x149D PUSH1 0x0 DUP4 ADD DUP5 PUSH2 0x1479 JUMP JUMPDEST SWAP3 SWAP2 POP POP JUMP JUMPDEST PUSH1 0x0 PUSH20 0xFFFFFFFFFFFFFFFFFFFFFFFFFFFFFFFFFFFFFFFF DUP3 AND SWAP1 POP SWAP2 SWAP1 POP JUMP JUMPDEST PUSH1 0x0 PUSH2 0x14CE DUP3 PUSH2 0x14A3 JUMP JUMPDEST SWAP1 POP SWAP2 SWAP1 POP JUMP JUMPDEST PUSH2 0x14DE DUP2 PUSH2 0x14C3 JUMP JUMPDEST DUP2 EQ PUSH2 0x14E9 JUMPI PUSH1 0x0 DUP1 REVERT JUMPDEST POP JUMP JUMPDEST PUSH1 0x0 DUP2 CALLDATALOAD SWAP1 POP PUSH2 0x14FB DUP2 PUSH2 0x14D5 JUMP JUMPDEST SWAP3 SWAP2 POP POP JUMP JUMPDEST PUSH1 0x0 DUP1 PUSH1 0x40 DUP4 DUP6 SUB SLT ISZERO PUSH2 0x1518 JUMPI PUSH2 0x1517 PUSH2 0x1351 JUMP JUMPDEST JUMPDEST PUSH1 0x0 PUSH2 0x1526 DUP6 DUP3 DUP7 ADD PUSH2 0x1437 JUMP JUMPDEST SWAP3 POP POP PUSH1 0x20 PUSH2 0x1537 DUP6 DUP3 DUP7 ADD PUSH2 0x14EC JUMP JUMPDEST SWAP2 POP POP SWAP3 POP SWAP3 SWAP1 POP JUMP JUMPDEST PUSH1 0x0 PUSH1 0x20 DUP3 DUP5 SUB SLT ISZERO PUSH2 0x1557 JUMPI PUSH2 0x1556 PUSH2 0x1351 JUMP JUMPDEST JUMPDEST PUSH1 0x0 PUSH2 0x1565 DUP5 DUP3 DUP6 ADD PUSH2 0x14EC JUMP JUMPDEST SWAP2 POP POP SWAP3 SWAP2 POP POP JUMP JUMPDEST PUSH1 0x0 DUP2 MLOAD SWAP1 POP SWAP2 SWAP1 POP JUMP JUMPDEST PUSH1 0x0 DUP3 DUP3 MSTORE PUSH1 0x20 DUP3 ADD SWAP1 POP SWAP3 SWAP2 POP POP JUMP JUMPDEST PUSH1 0x0 JUMPDEST DUP4 DUP2 LT ISZERO PUSH2 0x15A8 JUMPI DUP1 DUP3 ADD MLOAD DUP2 DUP5 ADD MSTORE PUSH1 0x20 DUP2 ADD SWAP1 POP PUSH2 0x158D JUMP JUMPDEST PUSH1 0x0 DUP5 DUP5 ADD MSTORE POP POP POP POP JUMP JUMPDEST PUSH1 0x0 PUSH1 0x1F NOT PUSH1 0x1F DUP4 ADD AND SWAP1 POP SWAP2 SWAP1 POP JUMP JUMPDEST PUSH1 0x0 PUSH2 0x15D0 DUP3 PUSH2 0x156E JUMP JUMPDEST PUSH2 0x15DA DUP2 DUP6 PUSH2 0x1579 JUMP JUMPDEST SWAP4 POP PUSH2 0x15EA DUP2 DUP6 PUSH1 0x20 DUP7 ADD PUSH2 0x158A JUMP JUMPDEST PUSH2 0x15F3 DUP2 PUSH2 0x15B4 JUMP JUMPDEST DUP5 ADD SWAP2 POP POP SWAP3 SWAP2 POP POP JUMP JUMPDEST PUSH1 0x0 PUSH1 0xFF DUP3 AND SWAP1 POP SWAP2 SWAP1 POP JUMP JUMPDEST PUSH2 0x1614 DUP2 PUSH2 0x15FE JUMP JUMPDEST DUP3 MSTORE POP POP JUMP JUMPDEST PUSH1 0x0 DUP2 SWAP1 POP SWAP2 SWAP1 POP JUMP JUMPDEST PUSH2 0x162D DUP2 PUSH2 0x161A JUMP JUMPDEST DUP3 MSTORE POP POP JUMP JUMPDEST PUSH1 0x0 PUSH1 0xC0 DUP3 ADD SWAP1 POP DUP2 DUP2 SUB PUSH1 0x0 DUP4 ADD MSTORE PUSH2 0x164D DUP2 DUP10 PUSH2 0x15C5 JUMP JUMPDEST SWAP1 POP DUP2 DUP2 SUB PUSH1 0x20 DUP4 ADD MSTORE PUSH2 0x1661 DUP2 DUP9 PUSH2 0x15C5 JUMP JUMPDEST SWAP1 POP PUSH2 0x1670 PUSH1 0x40 DUP4 ADD DUP8 PUSH2 0x160B JUMP JUMPDEST PUSH2 0x167D PUSH1 0x60 DUP4 ADD DUP7 PUSH2 0x160B JUMP JUMPDEST PUSH2 0x168A PUSH1 0x80 DUP4 ADD DUP6 PUSH2 0x1624 JUMP JUMPDEST PUSH2 0x1697 PUSH1 0xA0 DUP4 ADD DUP5 PUSH2 0x13EC JUMP JUMPDEST SWAP8 SWAP7 POP POP POP POP POP POP POP JUMP JUMPDEST PUSH1 0x0 PUSH1 0x20 DUP3 ADD SWAP1 POP PUSH2 0x16B7 PUSH1 0x0 DUP4 ADD DUP5 PUSH2 0x1624 JUMP JUMPDEST SWAP3 SWAP2 POP POP JUMP JUMPDEST PUSH1 0x0 DUP1 REVERT JUMPDEST PUSH1 0x0 DUP1 REVERT JUMPDEST PUSH1 0x0 DUP1 REVERT JUMPDEST PUSH1 0x0 DUP1 DUP4 PUSH1 0x1F DUP5 ADD SLT PUSH2 0x16E2 JUMPI PUSH2 0x16E1 PUSH2 0x16BD JUMP JUMPDEST JUMPDEST DUP3 CALLDATALOAD SWAP1 POP PUSH8 0xFFFFFFFFFFFFFFFF DUP2 GT ISZERO PUSH2 0x16FF JUMPI PUSH2 0x16FE PUSH2 0x16C2 JUMP JUMPDEST JUMPDEST PUSH1 0x20 DUP4 ADD SWAP2 POP DUP4 PUSH1 0x20 DUP3 MUL DUP4 ADD GT ISZERO PUSH2 0x171B JUMPI PUSH2 0x171A PUSH2 0x16C7 JUMP JUMPDEST JUMPDEST SWAP3 POP SWAP3 SWAP1 POP JUMP JUMPDEST PUSH1 0x0 DUP1 PUSH1 0x20 DUP4 DUP6 SUB SLT ISZERO PUSH2 0x1739 JUMPI PUSH2 0x1738 PUSH2 0x1351 JUMP JUMPDEST JUMPDEST PUSH1 0x0 DUP4 ADD CALLDATALOAD PUSH8 0xFFFFFFFFFFFFFFFF DUP2 GT ISZERO PUSH2 0x1757 JUMPI PUSH2 0x1756 PUSH2 0x1356 JUMP JUMPDEST JUMPDEST PUSH2 0x1763 DUP6 DUP3 DUP7 ADD PUSH2 0x16CC JUMP JUMPDEST SWAP3 POP SWAP3 POP POP SWAP3 POP SWAP3 SWAP1 POP JUMP JUMPDEST PUSH1 0x0 DUP2 MLOAD SWAP1 POP SWAP2 SWAP1 POP JUMP JUMPDEST PUSH1 0x0 DUP3 DUP3 MSTORE PUSH1 0x20 DUP3 ADD SWAP1 POP SWAP3 SWAP2 POP POP JUMP JUMPDEST PUSH1 0x0 DUP2 SWAP1 POP PUSH1 0x20 DUP3 ADD SWAP1 POP SWAP2 SWAP1 POP JUMP JUMPDEST PUSH1 0x0 DUP3 DUP3 MSTORE PUSH1 0x20 DUP3 ADD SWAP1 POP SWAP3 SWAP2 POP POP JUMP JUMPDEST PUSH1 0x0 PUSH2 0x17B7 DUP3 PUSH2 0x156E JUMP JUMPDEST PUSH2 0x17C1 DUP2 DUP6 PUSH2 0x179B JUMP JUMPDEST SWAP4 POP PUSH2 0x17D1 DUP2 DUP6 PUSH1 0x20 DUP7 ADD PUSH2 0x158A JUMP JUMPDEST PUSH2 0x17DA DUP2 PUSH2 0x15B4 JUMP JUMPDEST DUP5 ADD SWAP2 POP POP SWAP3 SWAP2 POP POP JUMP JUMPDEST PUSH2 0x17EE DUP2 PUSH2 0x15FE JUMP JUMPDEST DUP3 MSTORE POP POP JUMP JUMPDEST PUSH2 0x17FD DUP2 PUSH2 0x161A JUMP JUMPDEST DUP3 MSTORE POP POP JUMP JUMPDEST PUSH2 0x180C DUP2 PUSH2 0x13E0 JUMP JUMPDEST DUP3 MSTORE POP POP JUMP JUMPDEST PUSH1 0x0 PUSH1 0xC0 DUP4 ADD PUSH1 0x0 DUP4 ADD MLOAD DUP5 DUP3 SUB PUSH1 0x0 DUP7 ADD MSTORE PUSH2 0x182F DUP3 DUP3 PUSH2 0x17AC JUMP JUMPDEST SWAP2 POP POP PUSH1 0x20 DUP4 ADD MLOAD DUP5 DUP3 SUB PUSH1 0x20 DUP7 ADD MSTORE PUSH2 0x1849 DUP3 DUP3 PUSH2 0x17AC JUMP JUMPDEST SWAP2 POP POP PUSH1 0x40 DUP4 ADD MLOAD PUSH2 0x185E PUSH1 0x40 DUP7 ADD DUP3 PUSH2 0x17E5 JUMP JUMPDEST POP PUSH1 0x60 DUP4 ADD MLOAD PUSH2 0x1871 PUSH1 0x60 DUP7 ADD DUP3 PUSH2 0x17E5 JUMP JUMPDEST POP PUSH1 0x80 DUP4 ADD MLOAD PUSH2 0x1884 PUSH1 0x80 DUP7 ADD DUP3 PUSH2 0x17F4 JUMP JUMPDEST POP PUSH1 0xA0 DUP4 ADD MLOAD PUSH2 0x1897 PUSH1 0xA0 DUP7 ADD DUP3 PUSH2 0x1803 JUMP JUMPDEST POP DUP1 SWAP2 POP POP SWAP3 SWAP2 POP POP JUMP JUMPDEST PUSH1 0x0 PUSH2 0x18AE DUP4 DUP4 PUSH2 0x1812 JUMP JUMPDEST SWAP1 POP SWAP3 SWAP2 POP POP JUMP JUMPDEST PUSH1 0x0 PUSH1 0x20 DUP3 ADD SWAP1 POP SWAP2 SWAP1 POP JUMP JUMPDEST PUSH1 0x0 PUSH2 0x18CE DUP3 PUSH2 0x176F JUMP JUMPDEST PUSH2 0x18D8 DUP2 DUP6 PUSH2 0x177A JUMP JUMPDEST SWAP4 POP DUP4 PUSH1 0x20 DUP3 MUL DUP6 ADD PUSH2 0x18EA DUP6 PUSH2 0x178B JUMP JUMPDEST DUP1 PUSH1 0x0 JUMPDEST DUP6 DUP2 LT ISZERO PUSH2 0x1926 JUMPI DUP5 DUP5 SUB DUP10 MSTORE DUP2 MLOAD PUSH2 0x1907 DUP6 DUP3 PUSH2 0x18A2 JUMP JUMPDEST SWAP5 POP PUSH2 0x1912 DUP4 PUSH2 0x18B6 JUMP JUMPDEST SWAP3 POP PUSH1 0x20 DUP11 ADD SWAP10 POP POP PUSH1 0x1 DUP2 ADD SWAP1 POP PUSH2 0x18EE JUMP JUMPDEST POP DUP3 SWAP8 POP DUP8 SWAP6 POP POP POP POP POP POP SWAP3 SWAP2 POP POP JUMP JUMPDEST PUSH1 0x0 PUSH1 0x20 DUP3 ADD SWAP1 POP DUP2 DUP2 SUB PUSH1 0x0 DUP4 ADD MSTORE PUSH2 0x1952 DUP2 DUP5 PUSH2 0x18C3 JUMP JUMPDEST SWAP1 POP SWAP3 SWAP2 POP POP JUMP JUMPDEST PUSH1 0x0 DUP1 DUP4 PUSH1 0x1F DUP5 ADD SLT PUSH2 0x1970 JUMPI PUSH2 0x196F PUSH2 0x16BD JUMP JUMPDEST JUMPDEST DUP3 CALLDATALOAD SWAP1 POP PUSH8 0xFFFFFFFFFFFFFFFF DUP2 GT ISZERO PUSH2 0x198D JUMPI PUSH2 0x198C PUSH2 0x16C2 JUMP JUMPDEST JUMPDEST PUSH1 0x20 DUP4 ADD SWAP2 POP DUP4 PUSH1 0x1 DUP3 MUL DUP4 ADD GT ISZERO PUSH2 0x19A9 JUMPI PUSH2 0x19A8 PUSH2 0x16C7 JUMP JUMPDEST JUMPDEST SWAP3 POP SWAP3 SWAP1 POP JUMP JUMPDEST PUSH2 0x19B9 DUP2 PUSH2 0x15FE JUMP JUMPDEST DUP2 EQ PUSH2 0x19C4 JUMPI PUSH1 0x0 DUP1 REVERT JUMPDEST POP JUMP JUMPDEST PUSH1 0x0 DUP2 CALLDATALOAD SWAP1 POP PUSH2 0x19D6 DUP2 PUSH2 0x19B0 JUMP JUMPDEST SWAP3 SWAP2 POP POP JUMP JUMPDEST PUSH1 0x0 DUP1 PUSH1 0x0 DUP1 PUSH1 0x0 DUP1 PUSH1 0x0 PUSH1 0xA0 DUP9 DUP11 SUB SLT ISZERO PUSH2 0x19FB JUMPI PUSH2 0x19FA PUSH2 0x1351 JUMP JUMPDEST JUMPDEST PUSH1 0x0 PUSH2 0x1A09 DUP11 DUP3 DUP12 ADD PUSH2 0x14EC JUMP JUMPDEST SWAP8 POP POP PUSH1 0x20 DUP9 ADD CALLDATALOAD PUSH8 0xFFFFFFFFFFFFFFFF DUP2 GT ISZERO PUSH2 0x1A2A JUMPI PUSH2 0x1A29 PUSH2 0x1356 JUMP JUMPDEST JUMPDEST PUSH2 0x1A36 DUP11 DUP3 DUP12 ADD PUSH2 0x195A JUMP JUMPDEST SWAP7 POP SWAP7 POP POP PUSH1 0x40 DUP9 ADD CALLDATALOAD PUSH8 0xFFFFFFFFFFFFFFFF DUP2 GT ISZERO PUSH2 0x1A59 JUMPI PUSH2 0x1A58 PUSH2 0x1356 JUMP JUMPDEST JUMPDEST PUSH2 0x1A65 DUP11 DUP3 DUP12 ADD PUSH2 0x195A JUMP JUMPDEST SWAP5 POP SWAP5 POP POP PUSH1 0x60 PUSH2 0x1A78 DUP11 DUP3 DUP12 ADD PUSH2 0x19C7 JUMP JUMPDEST SWAP3 POP POP PUSH1 0x80 PUSH2 0x1A89 DUP11 DUP3 DUP12 ADD PUSH2 0x19C7 JUMP JUMPDEST SWAP2 POP POP SWAP3 SWAP6 SWAP9 SWAP2 SWAP5 SWAP8 POP SWAP3 SWAP6 POP JUMP JUMPDEST PUSH32 0x4E487B7100000000000000000000000000000000000000000000000000000000 PUSH1 0x0 MSTORE PUSH1 0x22 PUSH1 0x4 MSTORE PUSH1 0x24 PUSH1 0x0 REVERT JUMPDEST PUSH1 0x0 PUSH1 0x2 DUP3 DIV SWAP1 POP PUSH1 0x1 DUP3 AND DUP1 PUSH2 0x1ADF JUMPI PUSH1 0x7F DUP3 AND SWAP2 POP JUMPDEST PUSH1 0x20 DUP3 LT DUP2 SUB PUSH2 0x1AF2 JUMPI PUSH2 0x1AF1 PUSH2 0x1A98 JUMP JUMPDEST JUMPDEST POP SWAP2 SWAP1 POP JUMP JUMPDEST PUSH32 0x4E487B7100000000000000000000000000000000000000000000000000000000 PUSH1 0x0 MSTORE PUSH1 0x41 PUSH1 0x4 MSTORE PUSH1 0x24 PUSH1 0x0 REVERT JUMPDEST PUSH32 0x4E487B7100000000000000000000000000000000000000000000000000000000 PUSH1 0x0 MSTORE PUSH1 0x32 PUSH1 0x4 MSTORE PUSH1 0x24 PUSH1 0x0 REVERT JUMPDEST PUSH32 0x456E7469747920646F6573206E6F742065786973740000000000000000000000 PUSH1 0x0 DUP3 ADD MSTORE POP JUMP JUMPDEST PUSH1 0x0 PUSH2 0x1B8C PUSH1 0x15 DUP4 PUSH2 0x1579 JUMP JUMPDEST SWAP2 POP PUSH2 0x1B97 DUP3 PUSH2 0x1B56 JUMP JUMPDEST PUSH1 0x20 DUP3 ADD SWAP1 POP SWAP2 SWAP1 POP JUMP JUMPDEST PUSH1 0x0 PUSH1 0x20 DUP3 ADD SWAP1 POP DUP2 DUP2 SUB PUSH1 0x0 DUP4 ADD MSTORE PUSH2 0x1BBB DUP2 PUSH2 0x1B7F JUMP JUMPDEST SWAP1 POP SWAP2 SWAP1 POP JUMP JUMPDEST PUSH32 0x5269736B2073636F7265206D757374206265203C3D2031303000000000000000 PUSH1 0x0 DUP3 ADD MSTORE POP JUMP JUMPDEST PUSH1 0x0 PUSH2 0x1BF8 PUSH1 0x19 DUP4 PUSH2 0x1579 JUMP JUMPDEST SWAP2 POP PUSH2 0x1C03 DUP3 PUSH2 0x1BC2 JUMP JUMPDEST PUSH1 0x20 DUP3 ADD SWAP1 POP SWAP2 SWAP1 POP JUMP JUMPDEST PUSH1 0x0 PUSH1 0x20 DUP3 ADD SWAP1 POP DUP2 DUP2 SUB PUSH1 0x0 DUP4 ADD MSTORE PUSH2 0x1C27 DUP2 PUSH2 0x1BEB JUMP JUMPDEST SWAP1 POP SWAP2 SWAP1 POP JUMP JUMPDEST PUSH32 0x436F6E666964656E63652073636F7265206D757374206265203C3D2031303000 PUSH1 0x0 DUP3 ADD MSTORE POP JUMP JUMPDEST PUSH1 0x0 PUSH2 0x1C64 PUSH1 0x1F DUP4 PUSH2 0x1579 JUMP JUMPDEST SWAP2 POP PUSH2 0x1C6F DUP3 PUSH2 0x1C2E JUMP JUMPDEST PUSH1 0x20 DUP3 ADD SWAP1 POP SWAP2 SWAP1 POP JUMP JUMPDEST PUSH1 0x0 PUSH1 0x20 DUP3 ADD SWAP1 POP DUP2 DUP2 SUB PUSH1 0x0 DUP4 ADD MSTORE PUSH2 0x1C93 DUP2 PUSH2 0x1C57 JUMP JUMPDEST SWAP1 POP SWAP2 SWAP1 POP JUMP JUMPDEST PUSH32 0x4E487B7100000000000000000000000000000000000000000000000000000000 PUSH1 0x0 MSTORE PUSH1 0x12 PUSH1 0x4 MSTORE PUSH1 0x24 PUSH1 0x0 REVERT JUMPDEST PUSH32 0x4E487B7100000000000000000000000000000000000000000000000000000000 PUSH1 0x0 MSTORE PUSH1 0x11 PUSH1 0x4 MSTORE PUSH1 0x24 PUSH1 0x0 REVERT JUMPDEST PUSH1 0x0 PUSH2 0x1D03 DUP3 PUSH2 0x161A JUMP JUMPDEST SWAP2 POP PUSH2 0x1D0E DUP4 PUSH2 0x161A JUMP JUMPDEST SWAP3 POP DUP3 PUSH2 0x1D1E JUMPI PUSH2 0x1D1D PUSH2 0x1C9A JUMP JUMPDEST JUMPDEST DUP3 DUP3 DIV SWAP1 POP SWAP3 SWAP2 POP POP JUMP JUMPDEST PUSH1 0x0 DUP2 PUSH1 0x60 SHL SWAP1 POP SWAP2 SWAP1 POP JUMP JUMPDEST PUSH1 0x0 PUSH2 0x1D41 DUP3 PUSH2 0x1D29 JUMP JUMPDEST SWAP1 POP SWAP2 SWAP1 POP JUMP JUMPDEST PUSH1 0x0 PUSH2 0x1D53 DUP3 PUSH2 0x1D36 JUMP JUMPDEST SWAP1 POP SWAP2 SWAP1 POP JUMP JUMPDEST PUSH2 0x1D6B PUSH2 0x1D66 DUP3 PUSH2 0x14C3 JUMP JUMPDEST PUSH2 0x1D48 JUMP JUMPDEST DUP3 MSTORE POP POP JUMP JUMPDEST PUSH1 0x0 DUP2 SWAP1 POP SWAP3 SWAP2 POP POP JUMP JUMPDEST DUP3 DUP2 DUP4 CALLDATACOPY PUSH1 0x0 DUP4 DUP4 ADD MSTORE POP POP POP JUMP JUMPDEST PUSH1 0x0 PUSH2 0x1D97 DUP4 DUP6 PUSH2 0x1D71 JUMP JUMPDEST SWAP4 POP PUSH2 0x1DA4 DUP4 DUP6 DUP5 PUSH2 0x1D7C JUMP JUMPDEST DUP3 DUP5 ADD SWAP1 POP SWAP4 SWAP3 POP POP POP JUMP JUMPDEST PUSH1 0x0 DUP2 PUSH1 0xF8 SHL SWAP1 POP SWAP2 SWAP1 POP JUMP JUMPDEST PUSH1 0x0 PUSH2 0x1DC8 DUP3 PUSH2 0x1DB0 JUMP JUMPDEST SWAP1 POP SWAP2 SWAP1 POP JUMP JUMPDEST PUSH2 0x1DE0 PUSH2 0x1DDB DUP3 PUSH2 0x15FE JUMP JUMPDEST PUSH2 0x1DBD JUMP JUMPDEST DUP3 MSTORE POP POP JUMP JUMPDEST PUSH1 0x0 DUP2 SWAP1 POP SWAP2 SWAP1 POP JUMP JUMPDEST PUSH2 0x1E01 PUSH2 0x1DFC DUP3 PUSH2 0x161A JUMP JUMPDEST PUSH2 0x1DE6 JUMP JUMPDEST DUP3 MSTORE POP POP JUMP JUMPDEST PUSH1 0x0 PUSH2 0x1E13 DUP3 DUP12 PUSH2 0x1D5A JUMP JUMPDEST PUSH1 0x14 DUP3 ADD SWAP2 POP PUSH2 0x1E24 DUP3 DUP10 DUP12 PUSH2 0x1D8B JUMP JUMPDEST SWAP2 POP PUSH2 0x1E31 DUP3 DUP8 DUP10 PUSH2 0x1D8B JUMP JUMPDEST SWAP2 POP PUSH2 0x1E3D DUP3 DUP7 PUSH2 0x1DCF JUMP JUMPDEST PUSH1 0x1 DUP3 ADD SWAP2 POP PUSH2 0x1E4D DUP3 DUP6 PUSH2 0x1DCF JUMP JUMPDEST PUSH1 0x1 DUP3 ADD SWAP2 POP PUSH2 0x1E5D DUP3 DUP5 PUSH2 0x1DF0 JUMP JUMPDEST PUSH1 0x20 DUP3 ADD SWAP2 POP DUP2 SWAP1 POP SWAP10 SWAP9 POP POP POP POP POP POP POP POP POP JUMP JUMPDEST PUSH32 0x416C7265616479207369676E6564000000000000000000000000000000000000 PUSH1 0x0 DUP3 ADD MSTORE POP JUMP JUMPDEST PUSH1 0x0 PUSH2 0x1EA9 PUSH1 0xE DUP4 PUSH2 0x1579 JUMP JUMPDEST SWAP2 POP PUSH2 0x1EB4 DUP3 PUSH2 0x1E73 JUMP JUMPDEST PUSH1 0x20 DUP3 ADD SWAP1 POP SWAP2 SWAP1 POP JUMP JUMPDEST PUSH1 0x0 PUSH1 0x20 DUP3 ADD SWAP1 POP DUP2 DUP2 SUB PUSH1 0x0 DUP4 ADD MSTORE PUSH2 0x1ED8 DUP2 PUSH2 0x1E9C JUMP JUMPDEST SWAP1 POP SWAP2 SWAP1 POP JUMP JUMPDEST PUSH1 0x0 PUSH2 0x1EEA DUP3 PUSH2 0x161A JUMP JUMPDEST SWAP2 POP PUSH32 0xFFFFFFFFFFFFFFFFFFFFFFFFFFFFFFFFFFFFFFFFFFFFFFFFFFFFFFFFFFFFFFFF DUP3 SUB PUSH2 0x1F1C JUMPI PUSH2 0x1F1B PUSH2 0x1CC9 JUMP JUMPDEST JUMPDEST PUSH1 0x1 DUP3 ADD SWAP1 POP SWAP2 SWAP1 POP JUMP JUMPDEST PUSH1 0x0 DUP2 SWAP1 POP DUP2 PUSH1 0x0 MSTORE PUSH1 0x20 PUSH1 0x0 KECCAK256 SWAP1 POP SWAP2 SWAP1 POP JUMP JUMPDEST PUSH1 0x0 PUSH1 0x20 PUSH1 0x1F DUP4 ADD DIV SWAP1 POP SWAP2 SWAP1 POP JUMP JUMPDEST PUSH1 0x0 DUP3 DUP3 SHL SWAP1 POP SWAP3 SWAP2 POP POP JUMP JUMPDEST PUSH1 0x0 PUSH1 0x8 DUP4 MUL PUSH2 0x1F89 PUSH32 0xFFFFFFFFFFFFFFFFFFFFFFFFFFFFFFFFFFFFFFFFFFFFFFFFFFFFFFFFFFFFFFFF DUP3 PUSH2 0x1F4C JUMP JUMPDEST PUSH2 0x1F93 DUP7 DUP4 PUSH2 0x1F4C JUMP JUMPDEST SWAP6 POP DUP1 NOT DUP5 AND SWAP4 POP DUP1 DUP7 AND DUP5 OR SWAP3 POP POP POP SWAP4 SWAP3 POP POP POP JUMP JUMPDEST PUSH1 0x0 DUP2 SWAP1 POP SWAP2 SWAP1 POP JUMP JUMPDEST PUSH1 0x0 PUSH2 0x1FD0 PUSH2 0x1FCB PUSH2 0x1FC6 DUP5 PUSH2 0x161A JUMP JUMPDEST PUSH2 0x1FAB JUMP JUMPDEST PUSH2 0x161A JUMP JUMPDEST SWAP1 POP SWAP2 SWAP1 POP JUMP JUMPDEST PUSH1 0x0 DUP2 SWAP1 POP SWAP2 SWAP1 POP JUMP JUMPDEST PUSH2 0x1FEA DUP4 PUSH2 0x1FB5 JUMP JUMPDEST PUSH2 0x1FFE PUSH2 0x1FF6 DUP3 PUSH2 0x1FD7 JUMP JUMPDEST DUP5 DUP5 SLOAD PUSH2 0x1F59 JUMP JUMPDEST DUP3 SSTORE POP POP POP POP JUMP JUMPDEST PUSH1 0x0 SWAP1 JUMP JUMPDEST PUSH2 0x2013 PUSH2 0x2006 JUMP JUMPDEST PUSH2 0x201E DUP2 DUP5 DUP5 PUSH2 0x1FE1 JUMP JUMPDEST POP POP POP JUMP JUMPDEST JUMPDEST DUP2 DUP2 LT ISZERO PUSH2 0x2042 JUMPI PUSH2 0x2037 PUSH1 0x0 DUP3 PUSH2 0x200B JUMP JUMPDEST PUSH1 0x1 DUP2 ADD SWAP1 POP PUSH2 0x2024 JUMP JUMPDEST POP POP JUMP JUMPDEST PUSH1 0x1F DUP3 GT ISZERO PUSH2 0x2087 JUMPI PUSH2 0x2058 DUP2 PUSH2 0x1F27 JUMP JUMPDEST PUSH2 0x2061 DUP5 PUSH2 0x1F3C JUMP JUMPDEST DUP2 ADD PUSH1 0x20 DUP6 LT ISZERO PUSH2 0x2070 JUMPI DUP2 SWAP1 POP JUMPDEST PUSH2 0x2084 PUSH2 0x207C DUP6 PUSH2 0x1F3C JUMP JUMPDEST DUP4 ADD DUP3 PUSH2 0x2023 JUMP JUMPDEST POP POP JUMPDEST POP POP POP JUMP JUMPDEST PUSH1 0x0 DUP3 DUP3 SHR SWAP1 POP SWAP3 SWAP2 POP POP JUMP JUMPDEST PUSH1 0x0 PUSH2 0x20AA PUSH1 0x0 NOT DUP5 PUSH1 0x8 MUL PUSH2 0x208C JUMP JUMPDEST NOT DUP1 DUP4 AND SWAP2 POP POP SWAP3 SWAP2 POP POP JUMP JUMPDEST PUSH1 0x0 PUSH2 0x20C3 DUP4 DUP4 PUSH2 0x2099 JUMP JUMPDEST SWAP2 POP DUP3 PUSH1 0x2 MUL DUP3 OR SWAP1 POP SWAP3 SWAP2 POP POP JUMP JUMPDEST PUSH2 0x20DC DUP3 PUSH2 0x156E JUMP JUMPDEST PUSH8 0xFFFFFFFFFFFFFFFF DUP2 GT ISZERO PUSH2 0x20F5 JUMPI PUSH2 0x20F4 PUSH2 0x1AF8 JUMP JUMPDEST JUMPDEST PUSH2 0x20FF DUP3 SLOAD PUSH2 0x1AC7 JUMP JUMPDEST PUSH2 0x210A DUP3 DUP3 DUP6 PUSH2 0x2046 JUMP JUMPDEST PUSH1 0x0 PUSH1 0x20 SWAP1 POP PUSH1 0x1F DUP4 GT PUSH1 0x1 DUP2 EQ PUSH2 0x213D JUMPI PUSH1 0x0 DUP5 ISZERO PUSH2 0x212B JUMPI DUP3 DUP8 ADD MLOAD SWAP1 POP JUMPDEST PUSH2 0x2135 DUP6 DUP3 PUSH2 0x20B7 JUMP JUMPDEST DUP7 SSTORE POP PUSH2 0x219D JUMP JUMPDEST PUSH1 0x1F NOT DUP5 AND PUSH2 0x214B DUP7 PUSH2 0x1F27 JUMP JUMPDEST PUSH1 0x0 JUMPDEST DUP3 DUP2 LT ISZERO PUSH2 0x2173 JUMPI DUP5 DUP10 ADD MLOAD DUP3 SSTORE PUSH1 0x1 DUP3 ADD SWAP2 POP PUSH1 0x20 DUP6 ADD SWAP5 POP PUSH1 0x20 DUP2 ADD SWAP1 POP PUSH2 0x214E JUMP JUMPDEST DUP7 DUP4 LT ISZERO PUSH2 0x2190 JUMPI DUP5 DUP10 ADD MLOAD PUSH2 0x218C PUSH1 0x1F DUP10 AND DUP3 PUSH2 0x2099 JUMP JUMPDEST DUP4 SSTORE POP JUMPDEST PUSH1 0x1 PUSH1 0x2 DUP9 MUL ADD DUP9 SSTORE POP POP POP JUMPDEST POP POP POP POP POP POP JUMP JUMPDEST PUSH1 0x0 PUSH2 0x21B1 DUP4 DUP6 PUSH2 0x1579 JUMP JUMPDEST SWAP4 POP PUSH2 0x21BE DUP4 DUP6 DUP5 PUSH2 0x1D7C JUMP JUMPDEST PUSH2 0x21C7 DUP4 PUSH2 0x15B4 JUMP JUMPDEST DUP5 ADD SWAP1 POP SWAP4 SWAP3 POP POP POP JUMP JUMPDEST PUSH1 0x0 PUSH1 0x60 DUP3 ADD SWAP1 POP DUP2 DUP2 SUB PUSH1 0x0 DUP4 ADD MSTORE PUSH2 0x21ED DUP2 DUP8 DUP10 PUSH2 0x21A5 JUMP JUMPDEST SWAP1 POP DUP2 DUP2 SUB PUSH1 0x20 DUP4 ADD MSTORE PUSH2 0x2202 DUP2 DUP6 DUP8 PUSH2 0x21A5 JUMP JUMPDEST SWAP1 POP PUSH2 0x2211 PUSH1 0x40 DUP4 ADD DUP5 PUSH2 0x160B JUMP JUMPDEST SWAP7 SWAP6 POP POP POP POP POP POP JUMP JUMPDEST PUSH2 0x2224 DUP2 PUSH2 0x14C3 JUMP JUMPDEST DUP3 MSTORE POP POP JUMP JUMPDEST PUSH1 0x0 PUSH1 0x40 DUP3 ADD SWAP1 POP PUSH2 0x223F PUSH1 0x0 DUP4 ADD DUP6 PUSH2 0x221B JUMP JUMPDEST PUSH2 0x224C PUSH1 0x20 DUP4 ADD DUP5 PUSH2 0x1479 JUMP JUMPDEST SWAP4 SWAP3 POP POP POP JUMP INVALID LOG2 PUSH5 0x6970667358 0x22 SLT KECCAK256 PUSH6 0x7F048B67C6C3 GT 0xB5 0x4E DUP6 PUSH19 0xF1803805B4418599B5251DD9715BC425E95A7F DUP9 PUSH5 0x736F6C6343 STOP ADDMOD AND STOP CALLER "},"methodIdentifiers":{"DEFAULT_ADMIN_ROLE()":"a217fddf","INTEL_NODE_ROLE()":"2f9f2313","getBatchEntityIntelligence(address[])":"9543bc01","getEntityIntelligence(address)":"434478ab","getRoleAdmin(bytes32)":"248a9ca3","grantRole(bytes32,address)":"2f2ff15d","hasRole(bytes32,address)":"91d14854","hasSigned(bytes32,address)":"29832c0f","removeEntity(address)":"dd182996","renounceRole(bytes32,address)":"36568abe","requiredSignatures()":"8d068043","revokeRole(bytes32,address)":"d547741f","signatureCount(bytes32)":"b3cc026d","supportsInterface(bytes4)":"01ffc9a7","updateEntityIntelligence(address,string,string,uint8,uint8)":"e5034985"}},"storageLayout":{"storage":[{"astId":27,"contract":"contracts/WhaleKnowledgeGraph.sol:WhaleKnowledgeGraph","label":"_roles","offset":0,"slot":"0","type":"t_mapping(t_bytes32,t_struct(RoleData)22_storage)"},{"astId":1540,"contract":"contracts/WhaleKnowledgeGraph.sol:WhaleKnowledgeGraph","label":"requiredSignatures","offset":0,"slot":"1","type":"t_uint256"},{"astId":1546,"contract":"contracts/WhaleKnowledgeGraph.sol:WhaleKnowledgeGraph","label":"hasSigned","offset":0,"slot":"2","type":"t_mapping(t_bytes32,t_mapping(t_address,t_bool))"},{"astId":1550,"contract":"contracts/WhaleKnowledgeGraph.sol:WhaleKnowledgeGraph","label":"signatureCount","offset":0,"slot":"3","type":"t_mapping(t_bytes32,t_uint256)"},{"astId":1568,"contract":"contracts/WhaleKnowledgeGraph.sol:WhaleKnowledgeGraph","label":"_knowledgeGraph","offset":0,"slot":"4","type":"t_mapping(t_address,t_struct(EntityIntelligence)1563_storage)"}],"types":{"t_address":{"encoding":"inplace","label":"address","numberOfBytes":"20"},"t_bool":{"encoding":"inplace","label":"bool","numberOfBytes":"1"},"t_bytes32":{"encoding":"inplace","label":"bytes32","numberOfBytes":"32"},"t_mapping(t_address,t_bool)":{"encoding":"mapping","key":"t_address","label":"mapping(address => bool)","numberOfBytes":"32","value":"t_bool"},"t_mapping(t_address,t_struct(EntityIntelligence)1563_storage)":{"encoding":"mapping","key":"t_address","label":"mapping(address => struct WhaleKnowledgeGraph.EntityIntelligence)","numberOfBytes":"32","value":"t_struct(EntityIntelligence)1563_storage"},"t_mapping(t_bytes32,t_mapping(t_address,t_bool))":{"encoding":"mapping","key":"t_bytes32","label":"mapping(bytes32 => mapping(address => bool))","numberOfBytes":"32","value":"t_mapping(t_address,t_bool)"},"t_mapping(t_bytes32,t_struct(RoleData)22_storage)":{"encoding":"mapping","key":"t_bytes32","label":"mapping(bytes32 => struct AccessControl.RoleData)","numberOfBytes":"32","value":"t_struct(RoleData)22_storage"},"t_mapping(t_bytes32,t_uint256)":{"encoding":"mapping","key":"t_bytes32","label":"mapping(bytes32 => uint256)","numberOfBytes":"32","value":"t_uint256"},"t_string_storage":{"encoding":"bytes","label":"string","numberOfBytes":"32"},"t_struct(EntityIntelligence)1563_storage":{"encoding":"inplace","label":"struct WhaleKnowledgeGraph.EntityIntelligence","members":[{"astId":1552,"contract":"contracts/WhaleKnowledgeGraph.sol:WhaleKnowledgeGraph","label":"name","offset":0,"slot":"0","type":"t_string_storage"},{"astId":1554,"contract":"contracts/WhaleKnowledgeGraph.sol:WhaleKnowledgeGraph","label":"category","offset":0,"slot":"1","type":"t_string_storage"},{"astId":1556,"contract":"contracts/WhaleKnowledgeGraph.sol:WhaleKnowledgeGraph","label":"riskScore","offset":0,"slot":"2","type":"t_uint8"},{"astId":1558,"contract":"contracts/WhaleKnowledgeGraph.sol:WhaleKnowledgeGraph","label":"confidence","offset":1,"slot":"2","type":"t_uint8"},{"astId":1560,"contract":"contracts/WhaleKnowledgeGraph.sol:WhaleKnowledgeGraph","label":"lastUpdated","offset":0,"slot":"3","type":"t_uint256"},{"astId":1562,"contract":"contracts/WhaleKnowledgeGraph.sol:WhaleKnowledgeGraph","label":"exists","offset":0,"slot":"4","type":"t_bool"}],"numberOfBytes":"160"},"t_struct(RoleData)22_storage":{"encoding":"inplace","label":"struct AccessControl.RoleData","members":[{"astId":19,"contract":"contracts/WhaleKnowledgeGraph.sol:WhaleKnowledgeGraph","label":"hasRole","offset":0,"slot":"0","type":"t_mapping(t_address,t_bool)"},{"astId":21,"contract":"contracts/WhaleKnowledgeGraph.sol:WhaleKnowledgeGraph","label":"adminRole","offset":0,"slot":"1","type":"t_bytes32"}],"numberOfBytes":"64"},"t_uint256":{"encoding":"inplace","label":"uint256","numberOfBytes":"32"},"t_uint8":{"encoding":"inplace","label":"uint8","numberOfBytes":"1"}}}}}}