{"contracts/civilization/governance/Constitution.sol":{"Constitution":{"abi":[{"inputs":[{"internalType":"address","name":"_guardian","type":"address"}],"stateMutability":"nonpayable","type":"constructor"},{"inputs":[{"internalType":"address","name":"owner","type":"address"}],"name":"OwnableInvalidOwner","type":"error"},{"inputs":[{"internalType":"address","name":"account","type":"address"}],"name":"OwnableUnauthorizedAccount","type":"error"},{"anonymous":false,"inputs":[{"indexed":true,"internalType":"address","name":"previousOwner","type":"address"},{"indexed":true,"internalType":"address","name":"newOwner","type":"address"}],"name":"OwnershipTransferred","type":"event"},{"anonymous":false,"inputs":[{"indexed":false,"internalType":"string","name":"reason","type":"string"}],"name":"VetoTriggered","type":"event"},{"inputs":[],"name":"MAGNA_CARTA_IPFS","outputs":[{"internalType":"string","name":"","type":"string"}],"stateMutability":"view","type":"function"},{"inputs":[],"name":"getConstitutionURI","outputs":[{"internalType":"string","name":"","type":"string"}],"stateMutability":"pure","type":"function"},{"inputs":[],"name":"guardianCourt","outputs":[{"internalType":"address","name":"","type":"address"}],"stateMutability":"view","type":"function"},{"inputs":[],"name":"owner","outputs":[{"internalType":"address","name":"","type":"address"}],"stateMutability":"view","type":"function"},{"inputs":[],"name":"renounceOwnership","outputs":[],"stateMutability":"nonpayable","type":"function"},{"inputs":[{"internalType":"address","name":"_guardian","type":"address"}],"name":"setGuardian","outputs":[],"stateMutability":"nonpayable","type":"function"},{"inputs":[{"internalType":"address","name":"newOwner","type":"address"}],"name":"transferOwnership","outputs":[],"stateMutability":"nonpayable","type":"function"},{"inputs":[{"internalType":"uint256","name":"proposalId","type":"uint256"},{"internalType":"string","name":"reason","type":"string"}],"name":"vetoProposal","outputs":[],"stateMutability":"nonpayable","type":"function"}],"evm":{"bytecode":{"linkReferences":{},"object":"608060405234801561001057600080fd5b50604051610b99380380610b9983398181016040528101906100329190610223565b33600073ffffffffffffffffffffffffffffffffffffffff168173ffffffffffffffffffffffffffffffffffffffff16036100a55760006040517f1e4fbdf700000000000000000000000000000000000000000000000000000000815260040161009c919061025f565b60405180910390fd5b6100b4816100fc60201b60201c565b5080600160006101000a81548173ffffffffffffffffffffffffffffffffffffffff021916908373ffffffffffffffffffffffffffffffffffffffff1602179055505061027a565b60008060009054906101000a900473ffffffffffffffffffffffffffffffffffffffff169050816000806101000a81548173ffffffffffffffffffffffffffffffffffffffff021916908373ffffffffffffffffffffffffffffffffffffffff1602179055508173ffffffffffffffffffffffffffffffffffffffff168173ffffffffffffffffffffffffffffffffffffffff167f8be0079c531659141344cd1fd0a4f28419497f9722a3daafe3b4186f6b6457e060405160405180910390a35050565b600080fd5b600073ffffffffffffffffffffffffffffffffffffffff82169050919050565b60006101f0826101c5565b9050919050565b610200816101e5565b811461020b57600080fd5b50565b60008151905061021d816101f7565b92915050565b600060208284031215610239576102386101c0565b5b60006102478482850161020e565b91505092915050565b610259816101e5565b82525050565b60006020820190506102746000830184610250565b92915050565b610910806102896000396000f3fe608060405234801561001057600080fd5b50600436106100885760003560e01c80638a0dac4a1161005b5780638a0dac4a146100ef5780638da5cb5b1461010b578063c7ae257414610129578063f2fde38b1461014757610088565b80630abd1e151461008d5780634bf33347146100ab5780636a112288146100c9578063715018a6146100e5575b600080fd5b610095610163565b6040516100a291906105bc565b60405180910390f35b6100b36101a0565b6040516100c0919061061f565b60405180910390f35b6100e360048036038101906100de91906107b9565b6101c6565b005b6100ed610291565b005b61010960048036038101906101049190610841565b6102a5565b005b6101136102f1565b604051610120919061061f565b60405180910390f35b61013161031a565b60405161013e91906105bc565b60405180910390f35b610161600480360381019061015c9190610841565b610353565b005b60606040518060400160405280601c81526020017f697066733a2f2f516d436f6e737469747574696f6e486173682e2e2e00000000815250905090565b600160009054906101000a900473ffffffffffffffffffffffffffffffffffffffff1681565b600160009054906101000a900473ffffffffffffffffffffffffffffffffffffffff1673ffffffffffffffffffffffffffffffffffffffff163373ffffffffffffffffffffffffffffffffffffffff1614610256576040517f08c379a000000000000000000000000000000000000000000000000000000000815260040161024d906108ba565b60405180910390fd5b7f0f4cdf702f60f33d56f87e1d35cca01697329752dbf044c450c2301fe922387b8160405161028591906105bc565b60405180910390a15050565b6102996103d9565b6102a36000610460565b565b6102ad6103d9565b80600160006101000a81548173ffffffffffffffffffffffffffffffffffffffff021916908373ffffffffffffffffffffffffffffffffffffffff16021790555050565b60008060009054906101000a900473ffffffffffffffffffffffffffffffffffffffff16905090565b6040518060400160405280601c81526020017f697066733a2f2f516d436f6e737469747574696f6e486173682e2e2e0000000081525081565b61035b6103d9565b600073ffffffffffffffffffffffffffffffffffffffff168173ffffffffffffffffffffffffffffffffffffffff16036103cd5760006040517f1e4fbdf70000000000000000000000000000000000000000000000000000000081526004016103c4919061061f565b60405180910390fd5b6103d681610460565b50565b6103e1610524565b73ffffffffffffffffffffffffffffffffffffffff166103ff6102f1565b73ffffffffffffffffffffffffffffffffffffffff161461045e57610422610524565b6040517f118cdaa7000000000000000000000000000000000000000000000000000000008152600401610455919061061f565b60405180910390fd5b565b60008060009054906101000a900473ffffffffffffffffffffffffffffffffffffffff169050816000806101000a81548173ffffffffffffffffffffffffffffffffffffffff021916908373ffffffffffffffffffffffffffffffffffffffff1602179055508173ffffffffffffffffffffffffffffffffffffffff168173ffffffffffffffffffffffffffffffffffffffff167f8be0079c531659141344cd1fd0a4f28419497f9722a3daafe3b4186f6b6457e060405160405180910390a35050565b600033905090565b600081519050919050565b600082825260208201905092915050565b60005b8381101561056657808201518184015260208101905061054b565b60008484015250505050565b6000601f19601f8301169050919050565b600061058e8261052c565b6105988185610537565b93506105a8818560208601610548565b6105b181610572565b840191505092915050565b600060208201905081810360008301526105d68184610583565b905092915050565b600073ffffffffffffffffffffffffffffffffffffffff82169050919050565b6000610609826105de565b9050919050565b610619816105fe565b82525050565b60006020820190506106346000830184610610565b92915050565b6000604051905090565b600080fd5b600080fd5b6000819050919050565b6106618161064e565b811461066c57600080fd5b50565b60008135905061067e81610658565b92915050565b600080fd5b600080fd5b7f4e487b7100000000000000000000000000000000000000000000000000000000600052604160045260246000fd5b6106c682610572565b810181811067ffffffffffffffff821117156106e5576106e461068e565b5b80604052505050565b60006106f861063a565b905061070482826106bd565b919050565b600067ffffffffffffffff8211156107245761072361068e565b5b61072d82610572565b9050602081019050919050565b82818337600083830152505050565b600061075c61075784610709565b6106ee565b90508281526020810184848401111561077857610777610689565b5b61078384828561073a565b509392505050565b600082601f8301126107a05761079f610684565b5b81356107b0848260208601610749565b91505092915050565b600080604083850312156107d0576107cf610644565b5b60006107de8582860161066f565b925050602083013567ffffffffffffffff8111156107ff576107fe610649565b5b61080b8582860161078b565b9150509250929050565b61081e816105fe565b811461082957600080fd5b50565b60008135905061083b81610815565b92915050565b60006020828403121561085757610856610644565b5b60006108658482850161082c565b91505092915050565b7f4e6f742074686520477561726469616e00000000000000000000000000000000600082015250565b60006108a4601083610537565b91506108af8261086e565b602082019050919050565b600060208201905081810360008301526108d381610897565b905091905056fea26469706673582212204143ce0442c0cb6ea76aecae7e57fc5d50a8381a0a49650a5669f9ce0dba2dbb64736f6c63430008160033","opcodes":"PUSH1 0x80 PUSH1 0x40 MSTORE CALLVALUE DUP1 ISZERO PUSH2 0x10 JUMPI PUSH1 0x0 DUP1 REVERT JUMPDEST POP PUSH1 0x40 MLOAD PUSH2 0xB99 CODESIZE SUB DUP1 PUSH2 0xB99 DUP4 CODECOPY DUP2 DUP2 ADD PUSH1 0x40 MSTORE DUP2 ADD SWAP1 PUSH2 0x32 SWAP2 SWAP1 PUSH2 0x223 JUMP JUMPDEST CALLER PUSH1 0x0 PUSH20 0xFFFFFFFFFFFFFFFFFFFFFFFFFFFFFFFFFFFFFFFF AND DUP2 PUSH20 0xFFFFFFFFFFFFFFFFFFFFFFFFFFFFFFFFFFFFFFFF AND SUB PUSH2 0xA5 JUMPI PUSH1 0x0 PUSH1 0x40 MLOAD PUSH32 0x1E4FBDF700000000000000000000000000000000000000000000000000000000 DUP2 MSTORE PUSH1 0x4 ADD PUSH2 0x9C SWAP2 SWAP1 PUSH2 0x25F JUMP JUMPDEST PUSH1 0x40 MLOAD DUP1 SWAP2 SUB SWAP1 REVERT JUMPDEST PUSH2 0xB4 DUP2 PUSH2 0xFC PUSH1 0x20 SHL PUSH1 0x20 SHR JUMP JUMPDEST POP DUP1 PUSH1 0x1 PUSH1 0x0 PUSH2 0x100 EXP DUP2 SLOAD DUP2 PUSH20 0xFFFFFFFFFFFFFFFFFFFFFFFFFFFFFFFFFFFFFFFF MUL NOT AND SWAP1 DUP4 PUSH20 0xFFFFFFFFFFFFFFFFFFFFFFFFFFFFFFFFFFFFFFFF AND MUL OR SWAP1 SSTORE POP POP PUSH2 0x27A JUMP JUMPDEST PUSH1 0x0 DUP1 PUSH1 0x0 SWAP1 SLOAD SWAP1 PUSH2 0x100 EXP SWAP1 DIV PUSH20 0xFFFFFFFFFFFFFFFFFFFFFFFFFFFFFFFFFFFFFFFF AND SWAP1 POP DUP2 PUSH1 0x0 DUP1 PUSH2 0x100 EXP DUP2 SLOAD DUP2 PUSH20 0xFFFFFFFFFFFFFFFFFFFFFFFFFFFFFFFFFFFFFFFF MUL NOT AND SWAP1 DUP4 PUSH20 0xFFFFFFFFFFFFFFFFFFFFFFFFFFFFFFFFFFFFFFFF AND MUL OR SWAP1 SSTORE POP DUP2 PUSH20 0xFFFFFFFFFFFFFFFFFFFFFFFFFFFFFFFFFFFFFFFF AND DUP2 PUSH20 0xFFFFFFFFFFFFFFFFFFFFFFFFFFFFFFFFFFFFFFFF AND PUSH32 0x8BE0079C531659141344CD1FD0A4F28419497F9722A3DAAFE3B4186F6B6457E0 PUSH1 0x40 MLOAD PUSH1 0x40 MLOAD DUP1 SWAP2 SUB SWAP1 LOG3 POP POP JUMP JUMPDEST PUSH1 0x0 DUP1 REVERT JUMPDEST PUSH1 0x0 PUSH20 0xFFFFFFFFFFFFFFFFFFFFFFFFFFFFFFFFFFFFFFFF DUP3 AND SWAP1 POP SWAP2 SWAP1 POP JUMP JUMPDEST PUSH1 0x0 PUSH2 0x1F0 DUP3 PUSH2 0x1C5 JUMP JUMPDEST SWAP1 POP SWAP2 SWAP1 POP JUMP JUMPDEST PUSH2 0x200 DUP2 PUSH2 0x1E5 JUMP JUMPDEST DUP2 EQ PUSH2 0x20B JUMPI PUSH1 0x0 DUP1 REVERT JUMPDEST POP JUMP JUMPDEST PUSH1 0x0 DUP2 MLOAD SWAP1 POP PUSH2 0x21D DUP2 PUSH2 0x1F7 JUMP JUMPDEST SWAP3 SWAP2 POP POP JUMP JUMPDEST PUSH1 0x0 PUSH1 0x20 DUP3 DUP5 SUB SLT ISZERO PUSH2 0x239 JUMPI PUSH2 0x238 PUSH2 0x1C0 JUMP JUMPDEST JUMPDEST PUSH1 0x0 PUSH2 0x247 DUP5 DUP3 DUP6 ADD PUSH2 0x20E JUMP JUMPDEST SWAP2 POP POP SWAP3 SWAP2 POP POP JUMP JUMPDEST PUSH2 0x259 DUP2 PUSH2 0x1E5 JUMP JUMPDEST DUP3 MSTORE POP POP JUMP JUMPDEST PUSH1 0x0 PUSH1 0x20 DUP3 ADD SWAP1 POP PUSH2 0x274 PUSH1 0x0 DUP4 ADD DUP5 PUSH2 0x250 JUMP JUMPDEST SWAP3 SWAP2 POP POP JUMP JUMPDEST PUSH2 0x910 DUP1 PUSH2 0x289 PUSH1 0x0 CODECOPY PUSH1 0x0 RETURN INVALID PUSH1 0x80 PUSH1 0x40 MSTORE CALLVALUE DUP1 ISZERO PUSH2 0x10 JUMPI PUSH1 0x0 DUP1 REVERT JUMPDEST POP PUSH1 0x4 CALLDATASIZE LT PUSH2 0x88 JUMPI PUSH1 0x0 CALLDATALOAD PUSH1 0xE0 SHR DUP1 PUSH4 0x8A0DAC4A GT PUSH2 0x5B JUMPI DUP1 PUSH4 0x8A0DAC4A EQ PUSH2 0xEF JUMPI DUP1 PUSH4 0x8DA5CB5B EQ PUSH2 0x10B JUMPI DUP1 PUSH4 0xC7AE2574 EQ PUSH2 0x129 JUMPI DUP1 PUSH4 0xF2FDE38B EQ PUSH2 0x147 JUMPI PUSH2 0x88 JUMP JUMPDEST DUP1 PUSH4 0xABD1E15 EQ PUSH2 0x8D JUMPI DUP1 PUSH4 0x4BF33347 EQ PUSH2 0xAB JUMPI DUP1 PUSH4 0x6A112288 EQ PUSH2 0xC9 JUMPI DUP1 PUSH4 0x715018A6 EQ PUSH2 0xE5 JUMPI JUMPDEST PUSH1 0x0 DUP1 REVERT JUMPDEST PUSH2 0x95 PUSH2 0x163 JUMP JUMPDEST PUSH1 0x40 MLOAD PUSH2 0xA2 SWAP2 SWAP1 PUSH2 0x5BC JUMP JUMPDEST PUSH1 0x40 MLOAD DUP1 SWAP2 SUB SWAP1 RETURN JUMPDEST PUSH2 0xB3 PUSH2 0x1A0 JUMP JUMPDEST PUSH1 0x40 MLOAD PUSH2 0xC0 SWAP2 SWAP1 PUSH2 0x61F JUMP JUMPDEST PUSH1 0x40 MLOAD DUP1 SWAP2 SUB SWAP1 RETURN JUMPDEST PUSH2 0xE3 PUSH1 0x4 DUP1 CALLDATASIZE SUB DUP2 ADD SWAP1 PUSH2 0xDE SWAP2 SWAP1 PUSH2 0x7B9 JUMP JUMPDEST PUSH2 0x1C6 JUMP JUMPDEST STOP JUMPDEST PUSH2 0xED PUSH2 0x291 JUMP JUMPDEST STOP JUMPDEST PUSH2 0x109 PUSH1 0x4 DUP1 CALLDATASIZE SUB DUP2 ADD SWAP1 PUSH2 0x104 SWAP2 SWAP1 PUSH2 0x841 JUMP JUMPDEST PUSH2 0x2A5 JUMP JUMPDEST STOP JUMPDEST PUSH2 0x113 PUSH2 0x2F1 JUMP JUMPDEST PUSH1 0x40 MLOAD PUSH2 0x120 SWAP2 SWAP1 PUSH2 0x61F JUMP JUMPDEST PUSH1 0x40 MLOAD DUP1 SWAP2 SUB SWAP1 RETURN JUMPDEST PUSH2 0x131 PUSH2 0x31A JUMP JUMPDEST PUSH1 0x40 MLOAD PUSH2 0x13E SWAP2 SWAP1 PUSH2 0x5BC JUMP JUMPDEST PUSH1 0x40 MLOAD DUP1 SWAP2 SUB SWAP1 RETURN JUMPDEST PUSH2 0x161 PUSH1 0x4 DUP1 CALLDATASIZE SUB DUP2 ADD SWAP1 PUSH2 0x15C SWAP2 SWAP1 PUSH2 0x841 JUMP JUMPDEST PUSH2 0x353 JUMP JUMPDEST STOP JUMPDEST PUSH1 0x60 PUSH1 0x40 MLOAD DUP1 PUSH1 0x40 ADD PUSH1 0x40 MSTORE DUP1 PUSH1 0x1C DUP2 MSTORE PUSH1 0x20 ADD PUSH32 0x697066733A2F2F516D436F6E737469747574696F6E486173682E2E2E00000000 DUP2 MSTORE POP SWAP1 POP SWAP1 JUMP JUMPDEST PUSH1 0x1 PUSH1 0x0 SWAP1 SLOAD SWAP1 PUSH2 0x100 EXP SWAP1 DIV PUSH20 0xFFFFFFFFFFFFFFFFFFFFFFFFFFFFFFFFFFFFFFFF AND DUP2 JUMP JUMPDEST PUSH1 0x1 PUSH1 0x0 SWAP1 SLOAD SWAP1 PUSH2 0x100 EXP SWAP1 DIV PUSH20 0xFFFFFFFFFFFFFFFFFFFFFFFFFFFFFFFFFFFFFFFF AND PUSH20 0xFFFFFFFFFFFFFFFFFFFFFFFFFFFFFFFFFFFFFFFF AND CALLER PUSH20 0xFFFFFFFFFFFFFFFFFFFFFFFFFFFFFFFFFFFFFFFF AND EQ PUSH2 0x256 JUMPI PUSH1 0x40 MLOAD PUSH32 0x8C379A000000000000000000000000000000000000000000000000000000000 DUP2 MSTORE PUSH1 0x4 ADD PUSH2 0x24D SWAP1 PUSH2 0x8BA JUMP JUMPDEST PUSH1 0x40 MLOAD DUP1 SWAP2 SUB SWAP1 REVERT JUMPDEST PUSH32 0xF4CDF702F60F33D56F87E1D35CCA01697329752DBF044C450C2301FE922387B DUP2 PUSH1 0x40 MLOAD PUSH2 0x285 SWAP2 SWAP1 PUSH2 0x5BC JUMP JUMPDEST PUSH1 0x40 MLOAD DUP1 SWAP2 SUB SWAP1 LOG1 POP POP JUMP JUMPDEST PUSH2 0x299 PUSH2 0x3D9 JUMP JUMPDEST PUSH2 0x2A3 PUSH1 0x0 PUSH2 0x460 JUMP JUMPDEST JUMP JUMPDEST PUSH2 0x2AD PUSH2 0x3D9 JUMP JUMPDEST DUP1 PUSH1 0x1 PUSH1 0x0 PUSH2 0x100 EXP DUP2 SLOAD DUP2 PUSH20 0xFFFFFFFFFFFFFFFFFFFFFFFFFFFFFFFFFFFFFFFF MUL NOT AND SWAP1 DUP4 PUSH20 0xFFFFFFFFFFFFFFFFFFFFFFFFFFFFFFFFFFFFFFFF AND MUL OR SWAP1 SSTORE POP POP JUMP JUMPDEST PUSH1 0x0 DUP1 PUSH1 0x0 SWAP1 SLOAD SWAP1 PUSH2 0x100 EXP SWAP1 DIV PUSH20 0xFFFFFFFFFFFFFFFFFFFFFFFFFFFFFFFFFFFFFFFF AND SWAP1 POP SWAP1 JUMP JUMPDEST PUSH1 0x40 MLOAD DUP1 PUSH1 0x40 ADD PUSH1 0x40 MSTORE DUP1 PUSH1 0x1C DUP2 MSTORE PUSH1 0x20 ADD PUSH32 0x697066733A2F2F516D436F6E737469747574696F6E486173682E2E2E00000000 DUP2 MSTORE POP DUP2 JUMP JUMPDEST PUSH2 0x35B PUSH2 0x3D9 JUMP JUMPDEST PUSH1 0x0 PUSH20 0xFFFFFFFFFFFFFFFFFFFFFFFFFFFFFFFFFFFFFFFF AND DUP2 PUSH20 0xFFFFFFFFFFFFFFFFFFFFFFFFFFFFFFFFFFFFFFFF AND SUB PUSH2 0x3CD JUMPI PUSH1 0x0 PUSH1 0x40 MLOAD PUSH32 0x1E4FBDF700000000000000000000000000000000000000000000000000000000 DUP2 MSTORE PUSH1 0x4 ADD PUSH2 0x3C4 SWAP2 SWAP1 PUSH2 0x61F JUMP JUMPDEST PUSH1 0x40 MLOAD DUP1 SWAP2 SUB SWAP1 REVERT JUMPDEST PUSH2 0x3D6 DUP2 PUSH2 0x460 JUMP JUMPDEST POP JUMP JUMPDEST PUSH2 0x3E1 PUSH2 0x524 JUMP JUMPDEST PUSH20 0xFFFFFFFFFFFFFFFFFFFFFFFFFFFFFFFFFFFFFFFF AND PUSH2 0x3FF PUSH2 0x2F1 JUMP JUMPDEST PUSH20 0xFFFFFFFFFFFFFFFFFFFFFFFFFFFFFFFFFFFFFFFF AND EQ PUSH2 0x45E JUMPI PUSH2 0x422 PUSH2 0x524 JUMP JUMPDEST PUSH1 0x40 MLOAD PUSH32 0x118CDAA700000000000000000000000000000000000000000000000000000000 DUP2 MSTORE PUSH1 0x4 ADD PUSH2 0x455 SWAP2 SWAP1 PUSH2 0x61F JUMP JUMPDEST PUSH1 0x40 MLOAD DUP1 SWAP2 SUB SWAP1 REVERT JUMPDEST JUMP JUMPDEST PUSH1 0x0 DUP1 PUSH1 0x0 SWAP1 SLOAD SWAP1 PUSH2 0x100 EXP SWAP1 DIV PUSH20 0xFFFFFFFFFFFFFFFFFFFFFFFFFFFFFFFFFFFFFFFF AND SWAP1 POP DUP2 PUSH1 0x0 DUP1 PUSH2 0x100 EXP DUP2 SLOAD DUP2 PUSH20 0xFFFFFFFFFFFFFFFFFFFFFFFFFFFFFFFFFFFFFFFF MUL NOT AND SWAP1 DUP4 PUSH20 0xFFFFFFFFFFFFFFFFFFFFFFFFFFFFFFFFFFFFFFFF AND MUL OR SWAP1 SSTORE POP DUP2 PUSH20 0xFFFFFFFFFFFFFFFFFFFFFFFFFFFFFFFFFFFFFFFF AND DUP2 PUSH20 0xFFFFFFFFFFFFFFFFFFFFFFFFFFFFFFFFFFFFFFFF AND PUSH32 0x8BE0079C531659141344CD1FD0A4F28419497F9722A3DAAFE3B4186F6B6457E0 PUSH1 0x40 MLOAD PUSH1 0x40 MLOAD DUP1 SWAP2 SUB SWAP1 LOG3 POP POP JUMP JUMPDEST PUSH1 0x0 CALLER SWAP1 POP SWAP1 JUMP JUMPDEST PUSH1 0x0 DUP2 MLOAD SWAP1 POP SWAP2 SWAP1 POP JUMP JUMPDEST PUSH1 0x0 DUP3 DUP3 MSTORE PUSH1 0x20 DUP3 ADD SWAP1 POP SWAP3 SWAP2 POP POP JUMP JUMPDEST PUSH1 0x0 JUMPDEST DUP4 DUP2 LT ISZERO PUSH2 0x566 JUMPI DUP1 DUP3 ADD MLOAD DUP2 DUP5 ADD MSTORE PUSH1 0x20 DUP2 ADD SWAP1 POP PUSH2 0x54B JUMP JUMPDEST PUSH1 0x0 DUP5 DUP5 ADD MSTORE POP POP POP POP JUMP JUMPDEST PUSH1 0x0 PUSH1 0x1F NOT PUSH1 0x1F DUP4 ADD AND SWAP1 POP SWAP2 SWAP1 POP JUMP JUMPDEST PUSH1 0x0 PUSH2 0x58E DUP3 PUSH2 0x52C JUMP JUMPDEST PUSH2 0x598 DUP2 DUP6 PUSH2 0x537 JUMP JUMPDEST SWAP4 POP PUSH2 0x5A8 DUP2 DUP6 PUSH1 0x20 DUP7 ADD PUSH2 0x548 JUMP JUMPDEST PUSH2 0x5B1 DUP2 PUSH2 0x572 JUMP JUMPDEST DUP5 ADD SWAP2 POP POP SWAP3 SWAP2 POP POP JUMP JUMPDEST PUSH1 0x0 PUSH1 0x20 DUP3 ADD SWAP1 POP DUP2 DUP2 SUB PUSH1 0x0 DUP4 ADD MSTORE PUSH2 0x5D6 DUP2 DUP5 PUSH2 0x583 JUMP JUMPDEST SWAP1 POP SWAP3 SWAP2 POP POP JUMP JUMPDEST PUSH1 0x0 PUSH20 0xFFFFFFFFFFFFFFFFFFFFFFFFFFFFFFFFFFFFFFFF DUP3 AND SWAP1 POP SWAP2 SWAP1 POP JUMP JUMPDEST PUSH1 0x0 PUSH2 0x609 DUP3 PUSH2 0x5DE JUMP JUMPDEST SWAP1 POP SWAP2 SWAP1 POP JUMP JUMPDEST PUSH2 0x619 DUP2 PUSH2 0x5FE JUMP JUMPDEST DUP3 MSTORE POP POP JUMP JUMPDEST PUSH1 0x0 PUSH1 0x20 DUP3 ADD SWAP1 POP PUSH2 0x634 PUSH1 0x0 DUP4 ADD DUP5 PUSH2 0x610 JUMP JUMPDEST SWAP3 SWAP2 POP POP JUMP JUMPDEST PUSH1 0x0 PUSH1 0x40 MLOAD SWAP1 POP SWAP1 JUMP JUMPDEST PUSH1 0x0 DUP1 REVERT JUMPDEST PUSH1 0x0 DUP1 REVERT JUMPDEST PUSH1 0x0 DUP2 SWAP1 POP SWAP2 SWAP1 POP JUMP JUMPDEST PUSH2 0x661 DUP2 PUSH2 0x64E JUMP JUMPDEST DUP2 EQ PUSH2 0x66C JUMPI PUSH1 0x0 DUP1 REVERT JUMPDEST POP JUMP JUMPDEST PUSH1 0x0 DUP2 CALLDATALOAD SWAP1 POP PUSH2 0x67E DUP2 PUSH2 0x658 JUMP JUMPDEST SWAP3 SWAP2 POP POP JUMP JUMPDEST PUSH1 0x0 DUP1 REVERT JUMPDEST PUSH1 0x0 DUP1 REVERT JUMPDEST PUSH32 0x4E487B7100000000000000000000000000000000000000000000000000000000 PUSH1 0x0 MSTORE PUSH1 0x41 PUSH1 0x4 MSTORE PUSH1 0x24 PUSH1 0x0 REVERT JUMPDEST PUSH2 0x6C6 DUP3 PUSH2 0x572 JUMP JUMPDEST DUP2 ADD DUP2 DUP2 LT PUSH8 0xFFFFFFFFFFFFFFFF DUP3 GT OR ISZERO PUSH2 0x6E5 JUMPI PUSH2 0x6E4 PUSH2 0x68E JUMP JUMPDEST JUMPDEST DUP1 PUSH1 0x40 MSTORE POP POP POP JUMP JUMPDEST PUSH1 0x0 PUSH2 0x6F8 PUSH2 0x63A JUMP JUMPDEST SWAP1 POP PUSH2 0x704 DUP3 DUP3 PUSH2 0x6BD JUMP JUMPDEST SWAP2 SWAP1 POP JUMP JUMPDEST PUSH1 0x0 PUSH8 0xFFFFFFFFFFFFFFFF DUP3 GT ISZERO PUSH2 0x724 JUMPI PUSH2 0x723 PUSH2 0x68E JUMP JUMPDEST JUMPDEST PUSH2 0x72D DUP3 PUSH2 0x572 JUMP JUMPDEST SWAP1 POP PUSH1 0x20 DUP2 ADD SWAP1 POP SWAP2 SWAP1 POP JUMP JUMPDEST DUP3 DUP2 DUP4 CALLDATACOPY PUSH1 0x0 DUP4 DUP4 ADD MSTORE POP POP POP JUMP JUMPDEST PUSH1 0x0 PUSH2 0x75C PUSH2 0x757 DUP5 PUSH2 0x709 JUMP JUMPDEST PUSH2 0x6EE JUMP JUMPDEST SWAP1 POP DUP3 DUP2 MSTORE PUSH1 0x20 DUP2 ADD DUP5 DUP5 DUP5 ADD GT ISZERO PUSH2 0x778 JUMPI PUSH2 0x777 PUSH2 0x689 JUMP JUMPDEST JUMPDEST PUSH2 0x783 DUP5 DUP3 DUP6 PUSH2 0x73A JUMP JUMPDEST POP SWAP4 SWAP3 POP POP POP JUMP JUMPDEST PUSH1 0x0 DUP3 PUSH1 0x1F DUP4 ADD SLT PUSH2 0x7A0 JUMPI PUSH2 0x79F PUSH2 0x684 JUMP JUMPDEST JUMPDEST DUP2 CALLDATALOAD PUSH2 0x7B0 DUP5 DUP3 PUSH1 0x20 DUP7 ADD PUSH2 0x749 JUMP JUMPDEST SWAP2 POP POP SWAP3 SWAP2 POP POP JUMP JUMPDEST PUSH1 0x0 DUP1 PUSH1 0x40 DUP4 DUP6 SUB SLT ISZERO PUSH2 0x7D0 JUMPI PUSH2 0x7CF PUSH2 0x644 JUMP JUMPDEST JUMPDEST PUSH1 0x0 PUSH2 0x7DE DUP6 DUP3 DUP7 ADD PUSH2 0x66F JUMP JUMPDEST SWAP3 POP POP PUSH1 0x20 DUP4 ADD CALLDATALOAD PUSH8 0xFFFFFFFFFFFFFFFF DUP2 GT ISZERO PUSH2 0x7FF JUMPI PUSH2 0x7FE PUSH2 0x649 JUMP JUMPDEST JUMPDEST PUSH2 0x80B DUP6 DUP3 DUP7 ADD PUSH2 0x78B JUMP JUMPDEST SWAP2 POP POP SWAP3 POP SWAP3 SWAP1 POP JUMP JUMPDEST PUSH2 0x81E DUP2 PUSH2 0x5FE JUMP JUMPDEST DUP2 EQ PUSH2 0x829 JUMPI PUSH1 0x0 DUP1 REVERT JUMPDEST POP JUMP JUMPDEST PUSH1 0x0 DUP2 CALLDATALOAD SWAP1 POP PUSH2 0x83B DUP2 PUSH2 0x815 JUMP JUMPDEST SWAP3 SWAP2 POP POP JUMP JUMPDEST PUSH1 0x0 PUSH1 0x20 DUP3 DUP5 SUB SLT ISZERO PUSH2 0x857 JUMPI PUSH2 0x856 PUSH2 0x644 JUMP JUMPDEST JUMPDEST PUSH1 0x0 PUSH2 0x865 DUP5 DUP3 DUP6 ADD PUSH2 0x82C JUMP JUMPDEST SWAP2 POP POP SWAP3 SWAP2 POP POP JUMP JUMPDEST PUSH32 0x4E6F742074686520477561726469616E00000000000000000000000000000000 PUSH1 0x0 DUP3 ADD MSTORE POP JUMP JUMPDEST PUSH1 0x0 PUSH2 0x8A4 PUSH1 0x10 DUP4 PUSH2 0x537 JUMP JUMPDEST SWAP2 POP PUSH2 0x8AF DUP3 PUSH2 0x86E JUMP JUMPDEST PUSH1 0x20 DUP3 ADD SWAP1 POP SWAP2 SWAP1 POP JUMP JUMPDEST PUSH1 0x0 PUSH1 0x20 DUP3 ADD SWAP1 POP DUP2 DUP2 SUB PUSH1 0x0 DUP4 ADD MSTORE PUSH2 0x8D3 DUP2 PUSH2 0x897 JUMP JUMPDEST SWAP1 POP SWAP2 SWAP1 POP JUMP INVALID LOG2 PUSH5 0x6970667358 0x22 SLT KECCAK256 COINBASE NUMBER 0xCE DIV TIMESTAMP 0xC0 0xCB PUSH15 0xA76AECAE7E57FC5D50A8381A0A4965 EXP JUMP PUSH10 0xF9CE0DBA2DBB64736F6C PUSH4 0x43000816 STOP CALLER "},"methodIdentifiers":{"MAGNA_CARTA_IPFS()":"c7ae2574","getConstitutionURI()":"0abd1e15","guardianCourt()":"4bf33347","owner()":"8da5cb5b","renounceOwnership()":"715018a6","setGuardian(address)":"8a0dac4a","transferOwnership(address)":"f2fde38b","vetoProposal(uint256,string)":"6a112288"}},"storageLayout":{"storage":[{"astId":388,"contract":"contracts/civilization/governance/Constitution.sol:Constitution","label":"_owner","offset":0,"slot":"0","type":"t_address"},{"astId":1924,"contract":"contracts/civilization/governance/Constitution.sol:Constitution","label":"guardianCourt","offset":0,"slot":"1","type":"t_address"}],"types":{"t_address":{"encoding":"inplace","label":"address","numberOfBytes":"20"}}}}}}