{
  "_format": "hh-sol-artifact-1",
  "contractName": "WhaleKnowledgeGraph",
  "sourceName": "contracts/WhaleKnowledgeGraph.sol",
  "abi": [
    {
      "inputs": [],
      "stateMutability": "nonpayable",
      "type": "constructor"
    },
    {
      "inputs": [],
      "name": "AccessControlBadConfirmation",
      "type": "error"
    },
    {
      "inputs": [
        {
          "internalType": "address",
          "name": "account",
          "type": "address"
        },
        {
          "internalType": "bytes32",
          "name": "neededRole",
          "type": "bytes32"
        }
      ],
      "name": "AccessControlUnauthorizedAccount",
      "type": "error"
    },
    {
      "anonymous": false,
      "inputs": [
        {
          "indexed": true,
          "internalType": "address",
          "name": "targetProxy",
          "type": "address"
        }
      ],
      "name": "EntityRemoved",
      "type": "event"
    },
    {
      "anonymous": false,
      "inputs": [
        {
          "indexed": true,
          "internalType": "address",
          "name": "targetProxy",
          "type": "address"
        },
        {
          "indexed": false,
          "internalType": "string",
          "name": "name",
          "type": "string"
        },
        {
          "indexed": false,
          "internalType": "string",
          "name": "category",
          "type": "string"
        },
        {
          "indexed": false,
          "internalType": "uint8",
          "name": "riskScore",
          "type": "uint8"
        }
      ],
      "name": "EntityUpdated",
      "type": "event"
    },
    {
      "anonymous": false,
      "inputs": [
        {
          "indexed": true,
          "internalType": "bytes32",
          "name": "role",
          "type": "bytes32"
        },
        {
          "indexed": true,
          "internalType": "bytes32",
          "name": "previousAdminRole",
          "type": "bytes32"
        },
        {
          "indexed": true,
          "internalType": "bytes32",
          "name": "newAdminRole",
          "type": "bytes32"
        }
      ],
      "name": "RoleAdminChanged",
      "type": "event"
    },
    {
      "anonymous": false,
      "inputs": [
        {
          "indexed": true,
          "internalType": "bytes32",
          "name": "role",
          "type": "bytes32"
        },
        {
          "indexed": true,
          "internalType": "address",
          "name": "account",
          "type": "address"
        },
        {
          "indexed": true,
          "internalType": "address",
          "name": "sender",
          "type": "address"
        }
      ],
      "name": "RoleGranted",
      "type": "event"
    },
    {
      "anonymous": false,
      "inputs": [
        {
          "indexed": true,
          "internalType": "bytes32",
          "name": "role",
          "type": "bytes32"
        },
        {
          "indexed": true,
          "internalType": "address",
          "name": "account",
          "type": "address"
        },
        {
          "indexed": true,
          "internalType": "address",
          "name": "sender",
          "type": "address"
        }
      ],
      "name": "RoleRevoked",
      "type": "event"
    },
    {
      "inputs": [],
      "name": "DEFAULT_ADMIN_ROLE",
      "outputs": [
        {
          "internalType": "bytes32",
          "name": "",
          "type": "bytes32"
        }
      ],
      "stateMutability": "view",
      "type": "function"
    },
    {
      "inputs": [],
      "name": "INTEL_NODE_ROLE",
      "outputs": [
        {
          "internalType": "bytes32",
          "name": "",
          "type": "bytes32"
        }
      ],
      "stateMutability": "view",
      "type": "function"
    },
    {
      "inputs": [
        {
          "internalType": "address[]",
          "name": "targets",
          "type": "address[]"
        }
      ],
      "name": "getBatchEntityIntelligence",
      "outputs": [
        {
          "components": [
            {
              "internalType": "string",
              "name": "name",
              "type": "string"
            },
            {
              "internalType": "string",
              "name": "category",
              "type": "string"
            },
            {
              "internalType": "uint8",
              "name": "riskScore",
              "type": "uint8"
            },
            {
              "internalType": "uint8",
              "name": "confidence",
              "type": "uint8"
            },
            {
              "internalType": "uint256",
              "name": "lastUpdated",
              "type": "uint256"
            },
            {
              "internalType": "bool",
              "name": "exists",
              "type": "bool"
            }
          ],
          "internalType": "struct WhaleKnowledgeGraph.EntityIntelligence[]",
          "name": "",
          "type": "tuple[]"
        }
      ],
      "stateMutability": "view",
      "type": "function"
    },
    {
      "inputs": [
        {
          "internalType": "address",
          "name": "target",
          "type": "address"
        }
      ],
      "name": "getEntityIntelligence",
      "outputs": [
        {
          "internalType": "string",
          "name": "name",
          "type": "string"
        },
        {
          "internalType": "string",
          "name": "category",
          "type": "string"
        },
        {
          "internalType": "uint8",
          "name": "riskScore",
          "type": "uint8"
        },
        {
          "internalType": "uint8",
          "name": "confidence",
          "type": "uint8"
        },
        {
          "internalType": "uint256",
          "name": "lastUpdated",
          "type": "uint256"
        },
        {
          "internalType": "bool",
          "name": "exists",
          "type": "bool"
        }
      ],
      "stateMutability": "view",
      "type": "function"
    },
    {
      "inputs": [
        {
          "internalType": "bytes32",
          "name": "role",
          "type": "bytes32"
        }
      ],
      "name": "getRoleAdmin",
      "outputs": [
        {
          "internalType": "bytes32",
          "name": "",
          "type": "bytes32"
        }
      ],
      "stateMutability": "view",
      "type": "function"
    },
    {
      "inputs": [
        {
          "internalType": "bytes32",
          "name": "role",
          "type": "bytes32"
        },
        {
          "internalType": "address",
          "name": "account",
          "type": "address"
        }
      ],
      "name": "grantRole",
      "outputs": [],
      "stateMutability": "nonpayable",
      "type": "function"
    },
    {
      "inputs": [
        {
          "internalType": "bytes32",
          "name": "role",
          "type": "bytes32"
        },
        {
          "internalType": "address",
          "name": "account",
          "type": "address"
        }
      ],
      "name": "hasRole",
      "outputs": [
        {
          "internalType": "bool",
          "name": "",
          "type": "bool"
        }
      ],
      "stateMutability": "view",
      "type": "function"
    },
    {
      "inputs": [
        {
          "internalType": "bytes32",
          "name": "",
          "type": "bytes32"
        },
        {
          "internalType": "address",
          "name": "",
          "type": "address"
        }
      ],
      "name": "hasSigned",
      "outputs": [
        {
          "internalType": "bool",
          "name": "",
          "type": "bool"
        }
      ],
      "stateMutability": "view",
      "type": "function"
    },
    {
      "inputs": [
        {
          "internalType": "address",
          "name": "target",
          "type": "address"
        }
      ],
      "name": "removeEntity",
      "outputs": [],
      "stateMutability": "nonpayable",
      "type": "function"
    },
    {
      "inputs": [
        {
          "internalType": "bytes32",
          "name": "role",
          "type": "bytes32"
        },
        {
          "internalType": "address",
          "name": "callerConfirmation",
          "type": "address"
        }
      ],
      "name": "renounceRole",
      "outputs": [],
      "stateMutability": "nonpayable",
      "type": "function"
    },
    {
      "inputs": [],
      "name": "requiredSignatures",
      "outputs": [
        {
          "internalType": "uint256",
          "name": "",
          "type": "uint256"
        }
      ],
      "stateMutability": "view",
      "type": "function"
    },
    {
      "inputs": [
        {
          "internalType": "bytes32",
          "name": "role",
          "type": "bytes32"
        },
        {
          "internalType": "address",
          "name": "account",
          "type": "address"
        }
      ],
      "name": "revokeRole",
      "outputs": [],
      "stateMutability": "nonpayable",
      "type": "function"
    },
    {
      "inputs": [
        {
          "internalType": "bytes32",
          "name": "",
          "type": "bytes32"
        }
      ],
      "name": "signatureCount",
      "outputs": [
        {
          "internalType": "uint256",
          "name": "",
          "type": "uint256"
        }
      ],
      "stateMutability": "view",
      "type": "function"
    },
    {
      "inputs": [
        {
          "internalType": "bytes4",
          "name": "interfaceId",
          "type": "bytes4"
        }
      ],
      "name": "supportsInterface",
      "outputs": [
        {
          "internalType": "bool",
          "name": "",
          "type": "bool"
        }
      ],
      "stateMutability": "view",
      "type": "function"
    },
    {
      "inputs": [
        {
          "internalType": "address",
          "name": "target",
          "type": "address"
        },
        {
          "internalType": "string",
          "name": "name",
          "type": "string"
        },
        {
          "internalType": "string",
          "name": "category",
          "type": "string"
        },
        {
          "internalType": "uint8",
          "name": "riskScore",
          "type": "uint8"
        },
        {
          "internalType": "uint8",
          "name": "confidence",
          "type": "uint8"
        }
      ],
      "name": "updateEntityIntelligence",
      "outputs": [],
      "stateMutability": "nonpayable",
      "type": "function"
    }
  ],
  "bytecode": "0x608060405260036001553480156200001657600080fd5b506200002c6000801b336200006660201b60201c565b506200005f7f2ce546a9123a334f0813b906327e067431dc69ac2bae68856ec66a5f092b0236336200006660201b60201c565b50620001db565b60006200007a83836200016960201b60201c565b6200015e57600160008085815260200190815260200160002060000160008473ffffffffffffffffffffffffffffffffffffffff1673ffffffffffffffffffffffffffffffffffffffff16815260200190815260200160002060006101000a81548160ff021916908315150217905550620000fa620001d360201b60201c565b73ffffffffffffffffffffffffffffffffffffffff168273ffffffffffffffffffffffffffffffffffffffff16847f2f8788117e7eff1d82e926ec794901d17c78024a50270940304540a733656f0d60405160405180910390a46001905062000163565b600090505b92915050565b600080600084815260200190815260200160002060000160008373ffffffffffffffffffffffffffffffffffffffff1673ffffffffffffffffffffffffffffffffffffffff16815260200190815260200160002060009054906101000a900460ff16905092915050565b600033905090565b61228980620001eb6000396000f3fe608060405234801561001057600080fd5b50600436106100f55760003560e01c80638d06804311610097578063b3cc026d11610066578063b3cc026d146102b1578063d547741f146102e1578063dd182996146102fd578063e503498514610319576100f5565b80638d0680431461021557806391d14854146102335780639543bc0114610263578063a217fddf14610293576100f5565b80632f2ff15d116100d35780632f2ff15d1461018a5780632f9f2313146101a657806336568abe146101c4578063434478ab146101e0576100f5565b806301ffc9a7146100fa578063248a9ca31461012a57806329832c0f1461015a575b600080fd5b610114600480360381019061010f91906113b3565b610335565b60405161012191906113fb565b60405180910390f35b610144600480360381019061013f919061144c565b6103af565b6040516101519190611488565b60405180910390f35b610174600480360381019061016f9190611501565b6103ce565b60405161018191906113fb565b60405180910390f35b6101a4600480360381019061019f9190611501565b6103fd565b005b6101ae61041f565b6040516101bb9190611488565b60405180910390f35b6101de60048036038101906101d99190611501565b610443565b005b6101fa60048036038101906101f59190611541565b6104be565b60405161020c96959493929190611633565b60405180910390f35b61021d6106cc565b60405161022a91906116a2565b60405180910390f35b61024d60048036038101906102489190611501565b6106d2565b60405161025a91906113fb565b60405180910390f35b61027d60048036038101906102789190611722565b61073c565b60405161028a9190611938565b60405180910390f35b61029b6109d1565b6040516102a89190611488565b60405180910390f35b6102cb60048036038101906102c6919061144c565b6109d8565b6040516102d891906116a2565b60405180910390f35b6102fb60048036038101906102f69190611501565b6109f0565b005b61031760048036038101906103129190611541565b610a12565b005b610333600480360381019061032e91906119dc565b610bb8565b005b60007f7965db0b000000000000000000000000000000000000000000000000000000007bffffffffffffffffffffffffffffffffffffffffffffffffffffffff1916827bffffffffffffffffffffffffffffffffffffffffffffffffffffffff191614806103a857506103a782610ffc565b5b9050919050565b6000806000838152602001908152602001600020600101549050919050565b60026020528160005260406000206020528060005260406000206000915091509054906101000a900460ff1681565b610406826103af565b61040f81611066565b610419838361107a565b50505050565b7f2ce546a9123a334f0813b906327e067431dc69ac2bae68856ec66a5f092b023681565b61044b61116b565b73ffffffffffffffffffffffffffffffffffffffff168173ffffffffffffffffffffffffffffffffffffffff16146104af576040517f6697b23200000000000000000000000000000000000000000000000000000000815260040160405180910390fd5b6104b98282611173565b505050565b6060806000806000806000600460008973ffffffffffffffffffffffffffffffffffffffff1673ffffffffffffffffffffffffffffffffffffffff1681526020019081526020016000206040518060c001604052908160008201805461052390611ac7565b80601f016020809104026020016040519081016040528092919081815260200182805461054f90611ac7565b801561059c5780601f106105715761010080835404028352916020019161059c565b820191906000526020600020905b81548152906001019060200180831161057f57829003601f168201915b505050505081526020016001820180546105b590611ac7565b80601f01602080910402602001604051908101604052809291908181526020018280546105e190611ac7565b801561062e5780601f106106035761010080835404028352916020019161062e565b820191906000526020600020905b81548152906001019060200180831161061157829003601f168201915b505050505081526020016002820160009054906101000a900460ff1660ff1660ff1681526020016002820160019054906101000a900460ff1660ff1660ff168152602001600382015481526020016004820160009054906101000a900460ff1615151515815250509050806000015181602001518260400151836060015184608001518560a001519650965096509650965096505091939550919395565b60015481565b600080600084815260200190815260200160002060000160008373ffffffffffffffffffffffffffffffffffffffff1673ffffffffffffffffffffffffffffffffffffffff16815260200190815260200160002060009054906101000a900460ff16905092915050565b606060008383905067ffffffffffffffff81111561075d5761075c611af8565b5b60405190808252806020026020018201604052801561079657816020015b6107836112b6565b81526020019060019003908161077b5790505b50905060005b848490508110156109c657600460008686848181106107be576107bd611b27565b5b90506020020160208101906107d39190611541565b73ffffffffffffffffffffffffffffffffffffffff1673ffffffffffffffffffffffffffffffffffffffff1681526020019081526020016000206040518060c001604052908160008201805461082890611ac7565b80601f016020809104026020016040519081016040528092919081815260200182805461085490611ac7565b80156108a15780601f10610876576101008083540402835291602001916108a1565b820191906000526020600020905b81548152906001019060200180831161088457829003601f168201915b505050505081526020016001820180546108ba90611ac7565b80601f01602080910402602001604051908101604052809291908181526020018280546108e690611ac7565b80156109335780601f1061090857610100808354040283529160200191610933565b820191906000526020600020905b81548152906001019060200180831161091657829003601f168201915b505050505081526020016002820160009054906101000a900460ff1660ff1660ff1681526020016002820160019054906101000a900460ff1660ff1660ff168152602001600382015481526020016004820160009054906101000a900460ff1615151515815250508282815181106109ae576109ad611b27565b5b6020026020010181905250808060010191505061079c565b508091505092915050565b6000801b81565b60036020528060005260406000206000915090505481565b6109f9826103af565b610a0281611066565b610a0c8383611173565b50505050565b7f2ce546a9123a334f0813b906327e067431dc69ac2bae68856ec66a5f092b0236610a3c81611066565b600460008373ffffffffffffffffffffffffffffffffffffffff1673ffffffffffffffffffffffffffffffffffffffff16815260200190815260200160002060040160009054906101000a900460ff16610acb576040517f08c379a0000000000000000000000000000000000000000000000000000000008152600401610ac290611ba2565b60405180910390fd5b600460008373ffffffffffffffffffffffffffffffffffffffff1673ffffffffffffffffffffffffffffffffffffffff16815260200190815260200160002060008082016000610b1b91906112f4565b600182016000610b2b91906112f4565b6002820160006101000a81549060ff02191690556002820160016101000a81549060ff021916905560038201600090556004820160006101000a81549060ff021916905550508173ffffffffffffffffffffffffffffffffffffffff167f66baa8598dad476a7a23c2c39a3c9ea353a313b8050f5f2ff7df3121abe1f98360405160405180910390a25050565b7f2ce546a9123a334f0813b906327e067431dc69ac2bae68856ec66a5f092b0236610be281611066565b60648360ff161115610c29576040517f08c379a0000000000000000000000000000000000000000000000000000000008152600401610c2090611c0e565b60405180910390fd5b60648260ff161115610c70576040517f08c379a0000000000000000000000000000000000000000000000000000000008152600401610c6790611c7a565b60405180910390fd5b600088888888888888610e1042610c879190611cf8565b604051602001610c9e989796959493929190611e07565b6040516020818303038152906040528051906020012090506002600082815260200190815260200160002060003373ffffffffffffffffffffffffffffffffffffffff1673ffffffffffffffffffffffffffffffffffffffff16815260200190815260200160002060009054906101000a900460ff1615610d54576040517f08c379a0000000000000000000000000000000000000000000000000000000008152600401610d4b90611ebf565b60405180910390fd5b60016002600083815260200190815260200160002060003373ffffffffffffffffffffffffffffffffffffffff1673ffffffffffffffffffffffffffffffffffffffff16815260200190815260200160002060006101000a81548160ff021916908315150217905550600360008281526020019081526020016000206000815480929190610de190611edf565b9190505550600154600360008381526020019081526020016000205410610ff1576040518060c0016040528089898080601f016020809104026020016040519081016040528093929190818152602001838380828437600081840152601f19601f82011690508083019250505050505050815260200187878080601f016020809104026020016040519081016040528093929190818152602001838380828437600081840152601f19601f8201169050808301925050505050505081526020018560ff1681526020018460ff16815260200142815260200160011515815250600460008b73ffffffffffffffffffffffffffffffffffffffff1673ffffffffffffffffffffffffffffffffffffffff1681526020019081526020016000206000820151816000019081610f1491906120d3565b506020820151816001019081610f2a91906120d3565b5060408201518160020160006101000a81548160ff021916908360ff16021790555060608201518160020160016101000a81548160ff021916908360ff1602179055506080820151816003015560a08201518160040160006101000a81548160ff0219169083151502179055509050508873ffffffffffffffffffffffffffffffffffffffff167f340178e151c64cafa8286aa41f1d0f0e63b1557d63fc335ce1130c54c7487a5d8989898989604051610fe89594939291906121d2565b60405180910390a25b505050505050505050565b60007f01ffc9a7000000000000000000000000000000000000000000000000000000007bffffffffffffffffffffffffffffffffffffffffffffffffffffffff1916827bffffffffffffffffffffffffffffffffffffffffffffffffffffffff1916149050919050565b6110778161107261116b565b611265565b50565b600061108683836106d2565b61116057600160008085815260200190815260200160002060000160008473ffffffffffffffffffffffffffffffffffffffff1673ffffffffffffffffffffffffffffffffffffffff16815260200190815260200160002060006101000a81548160ff0219169083151502179055506110fd61116b565b73ffffffffffffffffffffffffffffffffffffffff168273ffffffffffffffffffffffffffffffffffffffff16847f2f8788117e7eff1d82e926ec794901d17c78024a50270940304540a733656f0d60405160405180910390a460019050611165565b600090505b92915050565b600033905090565b600061117f83836106d2565b1561125a57600080600085815260200190815260200160002060000160008473ffffffffffffffffffffffffffffffffffffffff1673ffffffffffffffffffffffffffffffffffffffff16815260200190815260200160002060006101000a81548160ff0219169083151502179055506111f761116b565b73ffffffffffffffffffffffffffffffffffffffff168273ffffffffffffffffffffffffffffffffffffffff16847ff6391f5c32d9c69d2a47ea670b442974b53935d1edc7fd64eb21e047a839171b60405160405180910390a46001905061125f565b600090505b92915050565b61126f82826106d2565b6112b25780826040517fe2517d3f0000000000000000000000000000000000000000000000000000000081526004016112a992919061222a565b60405180910390fd5b5050565b6040518060c001604052806060815260200160608152602001600060ff168152602001600060ff168152602001600081526020016000151581525090565b50805461130090611ac7565b6000825580601f106113125750611331565b601f0160209004906000526020600020908101906113309190611334565b5b50565b5b8082111561134d576000816000905550600101611335565b5090565b600080fd5b600080fd5b60007fffffffff0000000000000000000000000000000000000000000000000000000082169050919050565b6113908161135b565b811461139b57600080fd5b50565b6000813590506113ad81611387565b92915050565b6000602082840312156113c9576113c8611351565b5b60006113d78482850161139e565b91505092915050565b60008115159050919050565b6113f5816113e0565b82525050565b600060208201905061141060008301846113ec565b92915050565b6000819050919050565b61142981611416565b811461143457600080fd5b50565b60008135905061144681611420565b92915050565b60006020828403121561146257611461611351565b5b600061147084828501611437565b91505092915050565b61148281611416565b82525050565b600060208201905061149d6000830184611479565b92915050565b600073ffffffffffffffffffffffffffffffffffffffff82169050919050565b60006114ce826114a3565b9050919050565b6114de816114c3565b81146114e957600080fd5b50565b6000813590506114fb816114d5565b92915050565b6000806040838503121561151857611517611351565b5b600061152685828601611437565b9250506020611537858286016114ec565b9150509250929050565b60006020828403121561155757611556611351565b5b6000611565848285016114ec565b91505092915050565b600081519050919050565b600082825260208201905092915050565b60005b838110156115a857808201518184015260208101905061158d565b60008484015250505050565b6000601f19601f8301169050919050565b60006115d08261156e565b6115da8185611579565b93506115ea81856020860161158a565b6115f3816115b4565b840191505092915050565b600060ff82169050919050565b611614816115fe565b82525050565b6000819050919050565b61162d8161161a565b82525050565b600060c082019050818103600083015261164d81896115c5565b9050818103602083015261166181886115c5565b9050611670604083018761160b565b61167d606083018661160b565b61168a6080830185611624565b61169760a08301846113ec565b979650505050505050565b60006020820190506116b76000830184611624565b92915050565b600080fd5b600080fd5b600080fd5b60008083601f8401126116e2576116e16116bd565b5b8235905067ffffffffffffffff8111156116ff576116fe6116c2565b5b60208301915083602082028301111561171b5761171a6116c7565b5b9250929050565b6000806020838503121561173957611738611351565b5b600083013567ffffffffffffffff81111561175757611756611356565b5b611763858286016116cc565b92509250509250929050565b600081519050919050565b600082825260208201905092915050565b6000819050602082019050919050565b600082825260208201905092915050565b60006117b78261156e565b6117c1818561179b565b93506117d181856020860161158a565b6117da816115b4565b840191505092915050565b6117ee816115fe565b82525050565b6117fd8161161a565b82525050565b61180c816113e0565b82525050565b600060c083016000830151848203600086015261182f82826117ac565b9150506020830151848203602086015261184982826117ac565b915050604083015161185e60408601826117e5565b50606083015161187160608601826117e5565b50608083015161188460808601826117f4565b5060a083015161189760a0860182611803565b508091505092915050565b60006118ae8383611812565b905092915050565b6000602082019050919050565b60006118ce8261176f565b6118d8818561177a565b9350836020820285016118ea8561178b565b8060005b85811015611926578484038952815161190785826118a2565b9450611912836118b6565b925060208a019950506001810190506118ee565b50829750879550505050505092915050565b6000602082019050818103600083015261195281846118c3565b905092915050565b60008083601f8401126119705761196f6116bd565b5b8235905067ffffffffffffffff81111561198d5761198c6116c2565b5b6020830191508360018202830111156119a9576119a86116c7565b5b9250929050565b6119b9816115fe565b81146119c457600080fd5b50565b6000813590506119d6816119b0565b92915050565b600080600080600080600060a0888a0312156119fb576119fa611351565b5b6000611a098a828b016114ec565b975050602088013567ffffffffffffffff811115611a2a57611a29611356565b5b611a368a828b0161195a565b9650965050604088013567ffffffffffffffff811115611a5957611a58611356565b5b611a658a828b0161195a565b94509450506060611a788a828b016119c7565b9250506080611a898a828b016119c7565b91505092959891949750929550565b7f4e487b7100000000000000000000000000000000000000000000000000000000600052602260045260246000fd5b60006002820490506001821680611adf57607f821691505b602082108103611af257611af1611a98565b5b50919050565b7f4e487b7100000000000000000000000000000000000000000000000000000000600052604160045260246000fd5b7f4e487b7100000000000000000000000000000000000000000000000000000000600052603260045260246000fd5b7f456e7469747920646f6573206e6f742065786973740000000000000000000000600082015250565b6000611b8c601583611579565b9150611b9782611b56565b602082019050919050565b60006020820190508181036000830152611bbb81611b7f565b9050919050565b7f5269736b2073636f7265206d757374206265203c3d2031303000000000000000600082015250565b6000611bf8601983611579565b9150611c0382611bc2565b602082019050919050565b60006020820190508181036000830152611c2781611beb565b9050919050565b7f436f6e666964656e63652073636f7265206d757374206265203c3d2031303000600082015250565b6000611c64601f83611579565b9150611c6f82611c2e565b602082019050919050565b60006020820190508181036000830152611c9381611c57565b9050919050565b7f4e487b7100000000000000000000000000000000000000000000000000000000600052601260045260246000fd5b7f4e487b7100000000000000000000000000000000000000000000000000000000600052601160045260246000fd5b6000611d038261161a565b9150611d0e8361161a565b925082611d1e57611d1d611c9a565b5b828204905092915050565b60008160601b9050919050565b6000611d4182611d29565b9050919050565b6000611d5382611d36565b9050919050565b611d6b611d66826114c3565b611d48565b82525050565b600081905092915050565b82818337600083830152505050565b6000611d978385611d71565b9350611da4838584611d7c565b82840190509392505050565b60008160f81b9050919050565b6000611dc882611db0565b9050919050565b611de0611ddb826115fe565b611dbd565b82525050565b6000819050919050565b611e01611dfc8261161a565b611de6565b82525050565b6000611e13828b611d5a565b601482019150611e2482898b611d8b565b9150611e31828789611d8b565b9150611e3d8286611dcf565b600182019150611e4d8285611dcf565b600182019150611e5d8284611df0565b6020820191508190509998505050505050505050565b7f416c7265616479207369676e6564000000000000000000000000000000000000600082015250565b6000611ea9600e83611579565b9150611eb482611e73565b602082019050919050565b60006020820190508181036000830152611ed881611e9c565b9050919050565b6000611eea8261161a565b91507fffffffffffffffffffffffffffffffffffffffffffffffffffffffffffffffff8203611f1c57611f1b611cc9565b5b600182019050919050565b60008190508160005260206000209050919050565b60006020601f8301049050919050565b600082821b905092915050565b600060088302611f897fffffffffffffffffffffffffffffffffffffffffffffffffffffffffffffffff82611f4c565b611f938683611f4c565b95508019841693508086168417925050509392505050565b6000819050919050565b6000611fd0611fcb611fc68461161a565b611fab565b61161a565b9050919050565b6000819050919050565b611fea83611fb5565b611ffe611ff682611fd7565b848454611f59565b825550505050565b600090565b612013612006565b61201e818484611fe1565b505050565b5b818110156120425761203760008261200b565b600181019050612024565b5050565b601f8211156120875761205881611f27565b61206184611f3c565b81016020851015612070578190505b61208461207c85611f3c565b830182612023565b50505b505050565b600082821c905092915050565b60006120aa6000198460080261208c565b1980831691505092915050565b60006120c38383612099565b9150826002028217905092915050565b6120dc8261156e565b67ffffffffffffffff8111156120f5576120f4611af8565b5b6120ff8254611ac7565b61210a828285612046565b600060209050601f83116001811461213d576000841561212b578287015190505b61213585826120b7565b86555061219d565b601f19841661214b86611f27565b60005b828110156121735784890151825560018201915060208501945060208101905061214e565b86831015612190578489015161218c601f891682612099565b8355505b6001600288020188555050505b505050505050565b60006121b18385611579565b93506121be838584611d7c565b6121c7836115b4565b840190509392505050565b600060608201905081810360008301526121ed8187896121a5565b905081810360208301526122028185876121a5565b9050612211604083018461160b565b9695505050505050565b612224816114c3565b82525050565b600060408201905061223f600083018561221b565b61224c6020830184611479565b939250505056fea2646970667358221220657f048b67c6c311b54e8572f1803805b4418599b5251dd9715bc425e95a7f8864736f6c63430008160033",
  "linkReferences": {},
  "deployedLinkReferences": {}
}