{
  "_format": "hh-sol-artifact-1",
  "contractName": "WhaleKnowledgeGraph",
  "sourceName": "contracts/WhaleKnowledgeGraph.sol",
  "abi": [
    {
      "inputs": [],
      "stateMutability": "nonpayable",
      "type": "constructor"
    },
    {
      "inputs": [],
      "name": "AccessControlBadConfirmation",
      "type": "error"
    },
    {
      "inputs": [
        {
          "internalType": "address",
          "name": "account",
          "type": "address"
        },
        {
          "internalType": "bytes32",
          "name": "neededRole",
          "type": "bytes32"
        }
      ],
      "name": "AccessControlUnauthorizedAccount",
      "type": "error"
    },
    {
      "anonymous": false,
      "inputs": [
        {
          "indexed": true,
          "internalType": "address",
          "name": "targetProxy",
          "type": "address"
        }
      ],
      "name": "EntityRemoved",
      "type": "event"
    },
    {
      "anonymous": false,
      "inputs": [
        {
          "indexed": true,
          "internalType": "address",
          "name": "targetProxy",
          "type": "address"
        },
        {
          "indexed": false,
          "internalType": "string",
          "name": "name",
          "type": "string"
        },
        {
          "indexed": false,
          "internalType": "string",
          "name": "category",
          "type": "string"
        },
        {
          "indexed": false,
          "internalType": "uint8",
          "name": "riskScore",
          "type": "uint8"
        }
      ],
      "name": "EntityUpdated",
      "type": "event"
    },
    {
      "anonymous": false,
      "inputs": [
        {
          "indexed": true,
          "internalType": "bytes32",
          "name": "role",
          "type": "bytes32"
        },
        {
          "indexed": true,
          "internalType": "bytes32",
          "name": "previousAdminRole",
          "type": "bytes32"
        },
        {
          "indexed": true,
          "internalType": "bytes32",
          "name": "newAdminRole",
          "type": "bytes32"
        }
      ],
      "name": "RoleAdminChanged",
      "type": "event"
    },
    {
      "anonymous": false,
      "inputs": [
        {
          "indexed": true,
          "internalType": "bytes32",
          "name": "role",
          "type": "bytes32"
        },
        {
          "indexed": true,
          "internalType": "address",
          "name": "account",
          "type": "address"
        },
        {
          "indexed": true,
          "internalType": "address",
          "name": "sender",
          "type": "address"
        }
      ],
      "name": "RoleGranted",
      "type": "event"
    },
    {
      "anonymous": false,
      "inputs": [
        {
          "indexed": true,
          "internalType": "bytes32",
          "name": "role",
          "type": "bytes32"
        },
        {
          "indexed": true,
          "internalType": "address",
          "name": "account",
          "type": "address"
        },
        {
          "indexed": true,
          "internalType": "address",
          "name": "sender",
          "type": "address"
        }
      ],
      "name": "RoleRevoked",
      "type": "event"
    },
    {
      "inputs": [],
      "name": "DEFAULT_ADMIN_ROLE",
      "outputs": [
        {
          "internalType": "bytes32",
          "name": "",
          "type": "bytes32"
        }
      ],
      "stateMutability": "view",
      "type": "function"
    },
    {
      "inputs": [],
      "name": "INTEL_NODE_ROLE",
      "outputs": [
        {
          "internalType": "bytes32",
          "name": "",
          "type": "bytes32"
        }
      ],
      "stateMutability": "view",
      "type": "function"
    },
    {
      "inputs": [
        {
          "internalType": "address[]",
          "name": "targets",
          "type": "address[]"
        }
      ],
      "name": "getBatchEntityIntelligence",
      "outputs": [
        {
          "components": [
            {
              "internalType": "string",
              "name": "name",
              "type": "string"
            },
            {
              "internalType": "string",
              "name": "category",
              "type": "string"
            },
            {
              "internalType": "uint8",
              "name": "riskScore",
              "type": "uint8"
            },
            {
              "internalType": "uint8",
              "name": "confidence",
              "type": "uint8"
            },
            {
              "internalType": "uint256",
              "name": "lastUpdated",
              "type": "uint256"
            },
            {
              "internalType": "bool",
              "name": "exists",
              "type": "bool"
            }
          ],
          "internalType": "struct WhaleKnowledgeGraph.EntityIntelligence[]",
          "name": "",
          "type": "tuple[]"
        }
      ],
      "stateMutability": "view",
      "type": "function"
    },
    {
      "inputs": [
        {
          "internalType": "address",
          "name": "target",
          "type": "address"
        }
      ],
      "name": "getEntityIntelligence",
      "outputs": [
        {
          "internalType": "string",
          "name": "name",
          "type": "string"
        },
        {
          "internalType": "string",
          "name": "category",
          "type": "string"
        },
        {
          "internalType": "uint8",
          "name": "riskScore",
          "type": "uint8"
        },
        {
          "internalType": "uint8",
          "name": "confidence",
          "type": "uint8"
        },
        {
          "internalType": "uint256",
          "name": "lastUpdated",
          "type": "uint256"
        },
        {
          "internalType": "bool",
          "name": "exists",
          "type": "bool"
        }
      ],
      "stateMutability": "view",
      "type": "function"
    },
    {
      "inputs": [
        {
          "internalType": "bytes32",
          "name": "role",
          "type": "bytes32"
        }
      ],
      "name": "getRoleAdmin",
      "outputs": [
        {
          "internalType": "bytes32",
          "name": "",
          "type": "bytes32"
        }
      ],
      "stateMutability": "view",
      "type": "function"
    },
    {
      "inputs": [
        {
          "internalType": "bytes32",
          "name": "role",
          "type": "bytes32"
        },
        {
          "internalType": "address",
          "name": "account",
          "type": "address"
        }
      ],
      "name": "grantRole",
      "outputs": [],
      "stateMutability": "nonpayable",
      "type": "function"
    },
    {
      "inputs": [
        {
          "internalType": "bytes32",
          "name": "role",
          "type": "bytes32"
        },
        {
          "internalType": "address",
          "name": "account",
          "type": "address"
        }
      ],
      "name": "hasRole",
      "outputs": [
        {
          "internalType": "bool",
          "name": "",
          "type": "bool"
        }
      ],
      "stateMutability": "view",
      "type": "function"
    },
    {
      "inputs": [
        {
          "internalType": "address",
          "name": "target",
          "type": "address"
        }
      ],
      "name": "removeEntity",
      "outputs": [],
      "stateMutability": "nonpayable",
      "type": "function"
    },
    {
      "inputs": [
        {
          "internalType": "bytes32",
          "name": "role",
          "type": "bytes32"
        },
        {
          "internalType": "address",
          "name": "callerConfirmation",
          "type": "address"
        }
      ],
      "name": "renounceRole",
      "outputs": [],
      "stateMutability": "nonpayable",
      "type": "function"
    },
    {
      "inputs": [
        {
          "internalType": "bytes32",
          "name": "role",
          "type": "bytes32"
        },
        {
          "internalType": "address",
          "name": "account",
          "type": "address"
        }
      ],
      "name": "revokeRole",
      "outputs": [],
      "stateMutability": "nonpayable",
      "type": "function"
    },
    {
      "inputs": [
        {
          "internalType": "bytes4",
          "name": "interfaceId",
          "type": "bytes4"
        }
      ],
      "name": "supportsInterface",
      "outputs": [
        {
          "internalType": "bool",
          "name": "",
          "type": "bool"
        }
      ],
      "stateMutability": "view",
      "type": "function"
    },
    {
      "inputs": [
        {
          "internalType": "address",
          "name": "target",
          "type": "address"
        },
        {
          "internalType": "string",
          "name": "name",
          "type": "string"
        },
        {
          "internalType": "string",
          "name": "category",
          "type": "string"
        },
        {
          "internalType": "uint8",
          "name": "riskScore",
          "type": "uint8"
        },
        {
          "internalType": "uint8",
          "name": "confidence",
          "type": "uint8"
        }
      ],
      "name": "updateEntityIntelligence",
      "outputs": [],
      "stateMutability": "nonpayable",
      "type": "function"
    }
  ],
  "bytecode": "0x60806040523480156200001157600080fd5b50620000276000801b336200006160201b60201c565b506200005a7f2ce546a9123a334f0813b906327e067431dc69ac2bae68856ec66a5f092b0236336200006160201b60201c565b50620001d6565b60006200007583836200016460201b60201c565b6200015957600160008085815260200190815260200160002060000160008473ffffffffffffffffffffffffffffffffffffffff1673ffffffffffffffffffffffffffffffffffffffff16815260200190815260200160002060006101000a81548160ff021916908315150217905550620000f5620001ce60201b60201c565b73ffffffffffffffffffffffffffffffffffffffff168273ffffffffffffffffffffffffffffffffffffffff16847f2f8788117e7eff1d82e926ec794901d17c78024a50270940304540a733656f0d60405160405180910390a4600190506200015e565b600090505b92915050565b600080600084815260200190815260200160002060000160008373ffffffffffffffffffffffffffffffffffffffff1673ffffffffffffffffffffffffffffffffffffffff16815260200190815260200160002060009054906101000a900460ff16905092915050565b600033905090565b611d5080620001e66000396000f3fe608060405234801561001057600080fd5b50600436106100b45760003560e01c806391d148541161007157806391d14854146101a45780639543bc01146101d4578063a217fddf14610204578063d547741f14610222578063dd1829961461023e578063e50349851461025a576100b4565b806301ffc9a7146100b9578063248a9ca3146100e95780632f2ff15d146101195780632f9f23131461013557806336568abe14610153578063434478ab1461016f575b600080fd5b6100d360048036038101906100ce9190611113565b610276565b6040516100e0919061115b565b60405180910390f35b61010360048036038101906100fe91906111ac565b6102f0565b60405161011091906111e8565b60405180910390f35b610133600480360381019061012e9190611261565b61030f565b005b61013d610331565b60405161014a91906111e8565b60405180910390f35b61016d60048036038101906101689190611261565b610355565b005b610189600480360381019061018491906112a1565b6103d0565b60405161019b96959493929190611393565b60405180910390f35b6101be60048036038101906101b99190611261565b6105de565b6040516101cb919061115b565b60405180910390f35b6101ee60048036038101906101e99190611467565b610648565b6040516101fb919061167d565b60405180910390f35b61020c6108dd565b60405161021991906111e8565b60405180910390f35b61023c60048036038101906102379190611261565b6108e4565b005b610258600480360381019061025391906112a1565b610906565b005b610274600480360381019061026f9190611721565b610aac565b005b60007f7965db0b000000000000000000000000000000000000000000000000000000007bffffffffffffffffffffffffffffffffffffffffffffffffffffffff1916827bffffffffffffffffffffffffffffffffffffffffffffffffffffffff191614806102e957506102e882610d5c565b5b9050919050565b6000806000838152602001908152602001600020600101549050919050565b610318826102f0565b61032181610dc6565b61032b8383610dda565b50505050565b7f2ce546a9123a334f0813b906327e067431dc69ac2bae68856ec66a5f092b023681565b61035d610ecb565b73ffffffffffffffffffffffffffffffffffffffff168173ffffffffffffffffffffffffffffffffffffffff16146103c1576040517f6697b23200000000000000000000000000000000000000000000000000000000815260040160405180910390fd5b6103cb8282610ed3565b505050565b6060806000806000806000600160008973ffffffffffffffffffffffffffffffffffffffff1673ffffffffffffffffffffffffffffffffffffffff1681526020019081526020016000206040518060c00160405290816000820180546104359061180c565b80601f01602080910402602001604051908101604052809291908181526020018280546104619061180c565b80156104ae5780601f10610483576101008083540402835291602001916104ae565b820191906000526020600020905b81548152906001019060200180831161049157829003601f168201915b505050505081526020016001820180546104c79061180c565b80601f01602080910402602001604051908101604052809291908181526020018280546104f39061180c565b80156105405780601f1061051557610100808354040283529160200191610540565b820191906000526020600020905b81548152906001019060200180831161052357829003601f168201915b505050505081526020016002820160009054906101000a900460ff1660ff1660ff1681526020016002820160019054906101000a900460ff1660ff1660ff168152602001600382015481526020016004820160009054906101000a900460ff1615151515815250509050806000015181602001518260400151836060015184608001518560a001519650965096509650965096505091939550919395565b600080600084815260200190815260200160002060000160008373ffffffffffffffffffffffffffffffffffffffff1673ffffffffffffffffffffffffffffffffffffffff16815260200190815260200160002060009054906101000a900460ff16905092915050565b606060008383905067ffffffffffffffff8111156106695761066861183d565b5b6040519080825280602002602001820160405280156106a257816020015b61068f611016565b8152602001906001900390816106875790505b50905060005b848490508110156108d257600160008686848181106106ca576106c961186c565b5b90506020020160208101906106df91906112a1565b73ffffffffffffffffffffffffffffffffffffffff1673ffffffffffffffffffffffffffffffffffffffff1681526020019081526020016000206040518060c00160405290816000820180546107349061180c565b80601f01602080910402602001604051908101604052809291908181526020018280546107609061180c565b80156107ad5780601f10610782576101008083540402835291602001916107ad565b820191906000526020600020905b81548152906001019060200180831161079057829003601f168201915b505050505081526020016001820180546107c69061180c565b80601f01602080910402602001604051908101604052809291908181526020018280546107f29061180c565b801561083f5780601f106108145761010080835404028352916020019161083f565b820191906000526020600020905b81548152906001019060200180831161082257829003601f168201915b505050505081526020016002820160009054906101000a900460ff1660ff1660ff1681526020016002820160019054906101000a900460ff1660ff1660ff168152602001600382015481526020016004820160009054906101000a900460ff1615151515815250508282815181106108ba576108b961186c565b5b602002602001018190525080806001019150506106a8565b508091505092915050565b6000801b81565b6108ed826102f0565b6108f681610dc6565b6109008383610ed3565b50505050565b7f2ce546a9123a334f0813b906327e067431dc69ac2bae68856ec66a5f092b023661093081610dc6565b600160008373ffffffffffffffffffffffffffffffffffffffff1673ffffffffffffffffffffffffffffffffffffffff16815260200190815260200160002060040160009054906101000a900460ff166109bf576040517f08c379a00000000000000000000000000000000000000000000000000000000081526004016109b6906118e7565b60405180910390fd5b600160008373ffffffffffffffffffffffffffffffffffffffff1673ffffffffffffffffffffffffffffffffffffffff16815260200190815260200160002060008082016000610a0f9190611054565b600182016000610a1f9190611054565b6002820160006101000a81549060ff02191690556002820160016101000a81549060ff021916905560038201600090556004820160006101000a81549060ff021916905550508173ffffffffffffffffffffffffffffffffffffffff167f66baa8598dad476a7a23c2c39a3c9ea353a313b8050f5f2ff7df3121abe1f98360405160405180910390a25050565b7f2ce546a9123a334f0813b906327e067431dc69ac2bae68856ec66a5f092b0236610ad681610dc6565b60648360ff161115610b1d576040517f08c379a0000000000000000000000000000000000000000000000000000000008152600401610b1490611953565b60405180910390fd5b60648260ff161115610b64576040517f08c379a0000000000000000000000000000000000000000000000000000000008152600401610b5b906119bf565b60405180910390fd5b6040518060c0016040528088888080601f016020809104026020016040519081016040528093929190818152602001838380828437600081840152601f19601f82011690508083019250505050505050815260200186868080601f016020809104026020016040519081016040528093929190818152602001838380828437600081840152601f19601f8201169050808301925050505050505081526020018460ff1681526020018360ff16815260200142815260200160011515815250600160008a73ffffffffffffffffffffffffffffffffffffffff1673ffffffffffffffffffffffffffffffffffffffff1681526020019081526020016000206000820151816000019081610c769190611b8b565b506020820151816001019081610c8c9190611b8b565b5060408201518160020160006101000a81548160ff021916908360ff16021790555060608201518160020160016101000a81548160ff021916908360ff1602179055506080820151816003015560a08201518160040160006101000a81548160ff0219169083151502179055509050508773ffffffffffffffffffffffffffffffffffffffff167f340178e151c64cafa8286aa41f1d0f0e63b1557d63fc335ce1130c54c7487a5d8888888888604051610d4a959493929190611c99565b60405180910390a25050505050505050565b60007f01ffc9a7000000000000000000000000000000000000000000000000000000007bffffffffffffffffffffffffffffffffffffffffffffffffffffffff1916827bffffffffffffffffffffffffffffffffffffffffffffffffffffffff1916149050919050565b610dd781610dd2610ecb565b610fc5565b50565b6000610de683836105de565b610ec057600160008085815260200190815260200160002060000160008473ffffffffffffffffffffffffffffffffffffffff1673ffffffffffffffffffffffffffffffffffffffff16815260200190815260200160002060006101000a81548160ff021916908315150217905550610e5d610ecb565b73ffffffffffffffffffffffffffffffffffffffff168273ffffffffffffffffffffffffffffffffffffffff16847f2f8788117e7eff1d82e926ec794901d17c78024a50270940304540a733656f0d60405160405180910390a460019050610ec5565b600090505b92915050565b600033905090565b6000610edf83836105de565b15610fba57600080600085815260200190815260200160002060000160008473ffffffffffffffffffffffffffffffffffffffff1673ffffffffffffffffffffffffffffffffffffffff16815260200190815260200160002060006101000a81548160ff021916908315150217905550610f57610ecb565b73ffffffffffffffffffffffffffffffffffffffff168273ffffffffffffffffffffffffffffffffffffffff16847ff6391f5c32d9c69d2a47ea670b442974b53935d1edc7fd64eb21e047a839171b60405160405180910390a460019050610fbf565b600090505b92915050565b610fcf82826105de565b6110125780826040517fe2517d3f000000000000000000000000000000000000000000000000000000008152600401611009929190611cf1565b60405180910390fd5b5050565b6040518060c001604052806060815260200160608152602001600060ff168152602001600060ff168152602001600081526020016000151581525090565b5080546110609061180c565b6000825580601f106110725750611091565b601f0160209004906000526020600020908101906110909190611094565b5b50565b5b808211156110ad576000816000905550600101611095565b5090565b600080fd5b600080fd5b60007fffffffff0000000000000000000000000000000000000000000000000000000082169050919050565b6110f0816110bb565b81146110fb57600080fd5b50565b60008135905061110d816110e7565b92915050565b600060208284031215611129576111286110b1565b5b6000611137848285016110fe565b91505092915050565b60008115159050919050565b61115581611140565b82525050565b6000602082019050611170600083018461114c565b92915050565b6000819050919050565b61118981611176565b811461119457600080fd5b50565b6000813590506111a681611180565b92915050565b6000602082840312156111c2576111c16110b1565b5b60006111d084828501611197565b91505092915050565b6111e281611176565b82525050565b60006020820190506111fd60008301846111d9565b92915050565b600073ffffffffffffffffffffffffffffffffffffffff82169050919050565b600061122e82611203565b9050919050565b61123e81611223565b811461124957600080fd5b50565b60008135905061125b81611235565b92915050565b60008060408385031215611278576112776110b1565b5b600061128685828601611197565b92505060206112978582860161124c565b9150509250929050565b6000602082840312156112b7576112b66110b1565b5b60006112c58482850161124c565b91505092915050565b600081519050919050565b600082825260208201905092915050565b60005b838110156113085780820151818401526020810190506112ed565b60008484015250505050565b6000601f19601f8301169050919050565b6000611330826112ce565b61133a81856112d9565b935061134a8185602086016112ea565b61135381611314565b840191505092915050565b600060ff82169050919050565b6113748161135e565b82525050565b6000819050919050565b61138d8161137a565b82525050565b600060c08201905081810360008301526113ad8189611325565b905081810360208301526113c18188611325565b90506113d0604083018761136b565b6113dd606083018661136b565b6113ea6080830185611384565b6113f760a083018461114c565b979650505050505050565b600080fd5b600080fd5b600080fd5b60008083601f84011261142757611426611402565b5b8235905067ffffffffffffffff81111561144457611443611407565b5b6020830191508360208202830111156114605761145f61140c565b5b9250929050565b6000806020838503121561147e5761147d6110b1565b5b600083013567ffffffffffffffff81111561149c5761149b6110b6565b5b6114a885828601611411565b92509250509250929050565b600081519050919050565b600082825260208201905092915050565b6000819050602082019050919050565b600082825260208201905092915050565b60006114fc826112ce565b61150681856114e0565b93506115168185602086016112ea565b61151f81611314565b840191505092915050565b6115338161135e565b82525050565b6115428161137a565b82525050565b61155181611140565b82525050565b600060c083016000830151848203600086015261157482826114f1565b9150506020830151848203602086015261158e82826114f1565b91505060408301516115a3604086018261152a565b5060608301516115b6606086018261152a565b5060808301516115c96080860182611539565b5060a08301516115dc60a0860182611548565b508091505092915050565b60006115f38383611557565b905092915050565b6000602082019050919050565b6000611613826114b4565b61161d81856114bf565b93508360208202850161162f856114d0565b8060005b8581101561166b578484038952815161164c85826115e7565b9450611657836115fb565b925060208a01995050600181019050611633565b50829750879550505050505092915050565b600060208201905081810360008301526116978184611608565b905092915050565b60008083601f8401126116b5576116b4611402565b5b8235905067ffffffffffffffff8111156116d2576116d1611407565b5b6020830191508360018202830111156116ee576116ed61140c565b5b9250929050565b6116fe8161135e565b811461170957600080fd5b50565b60008135905061171b816116f5565b92915050565b600080600080600080600060a0888a0312156117405761173f6110b1565b5b600061174e8a828b0161124c565b975050602088013567ffffffffffffffff81111561176f5761176e6110b6565b5b61177b8a828b0161169f565b9650965050604088013567ffffffffffffffff81111561179e5761179d6110b6565b5b6117aa8a828b0161169f565b945094505060606117bd8a828b0161170c565b92505060806117ce8a828b0161170c565b91505092959891949750929550565b7f4e487b7100000000000000000000000000000000000000000000000000000000600052602260045260246000fd5b6000600282049050600182168061182457607f821691505b602082108103611837576118366117dd565b5b50919050565b7f4e487b7100000000000000000000000000000000000000000000000000000000600052604160045260246000fd5b7f4e487b7100000000000000000000000000000000000000000000000000000000600052603260045260246000fd5b7f456e7469747920646f6573206e6f742065786973740000000000000000000000600082015250565b60006118d16015836112d9565b91506118dc8261189b565b602082019050919050565b60006020820190508181036000830152611900816118c4565b9050919050565b7f5269736b2073636f7265206d757374206265203c3d2031303000000000000000600082015250565b600061193d6019836112d9565b915061194882611907565b602082019050919050565b6000602082019050818103600083015261196c81611930565b9050919050565b7f436f6e666964656e63652073636f7265206d757374206265203c3d2031303000600082015250565b60006119a9601f836112d9565b91506119b482611973565b602082019050919050565b600060208201905081810360008301526119d88161199c565b9050919050565b60008190508160005260206000209050919050565b60006020601f8301049050919050565b600082821b905092915050565b600060088302611a417fffffffffffffffffffffffffffffffffffffffffffffffffffffffffffffffff82611a04565b611a4b8683611a04565b95508019841693508086168417925050509392505050565b6000819050919050565b6000611a88611a83611a7e8461137a565b611a63565b61137a565b9050919050565b6000819050919050565b611aa283611a6d565b611ab6611aae82611a8f565b848454611a11565b825550505050565b600090565b611acb611abe565b611ad6818484611a99565b505050565b5b81811015611afa57611aef600082611ac3565b600181019050611adc565b5050565b601f821115611b3f57611b10816119df565b611b19846119f4565b81016020851015611b28578190505b611b3c611b34856119f4565b830182611adb565b50505b505050565b600082821c905092915050565b6000611b6260001984600802611b44565b1980831691505092915050565b6000611b7b8383611b51565b9150826002028217905092915050565b611b94826112ce565b67ffffffffffffffff811115611bad57611bac61183d565b5b611bb7825461180c565b611bc2828285611afe565b600060209050601f831160018114611bf55760008415611be3578287015190505b611bed8582611b6f565b865550611c55565b601f198416611c03866119df565b60005b82811015611c2b57848901518255600182019150602085019450602081019050611c06565b86831015611c485784890151611c44601f891682611b51565b8355505b6001600288020188555050505b505050505050565b82818337600083830152505050565b6000611c7883856112d9565b9350611c85838584611c5d565b611c8e83611314565b840190509392505050565b60006060820190508181036000830152611cb4818789611c6c565b90508181036020830152611cc9818587611c6c565b9050611cd8604083018461136b565b9695505050505050565b611ceb81611223565b82525050565b6000604082019050611d066000830185611ce2565b611d1360208301846111d9565b939250505056fea264697066735822122091665e817f0290e630df68b3b903c2abc7606518db9566ab85e97cd6f638767c64736f6c63430008160033",
  "linkReferences": {},
  "deployedLinkReferences": {}
}