{
  "_format": "hh-sol-artifact-1",
  "contractName": "ZKEventVerifier",
  "sourceName": "contracts/civilization/zk/ZKEventVerifier.sol",
  "abi": [
    {
      "inputs": [],
      "stateMutability": "nonpayable",
      "type": "constructor"
    },
    {
      "inputs": [],
      "name": "ProofInvalid",
      "type": "error"
    },
    {
      "inputs": [],
      "name": "RootAlreadyVerified",
      "type": "error"
    },
    {
      "inputs": [],
      "name": "UnauthorizedProver",
      "type": "error"
    },
    {
      "anonymous": false,
      "inputs": [
        {
          "indexed": true,
          "internalType": "bytes32",
          "name": "eventRoot",
          "type": "bytes32"
        },
        {
          "indexed": false,
          "internalType": "uint256",
          "name": "batchId",
          "type": "uint256"
        },
        {
          "indexed": false,
          "internalType": "uint256",
          "name": "timestamp",
          "type": "uint256"
        }
      ],
      "name": "WhaleEventsAuthenticated",
      "type": "event"
    },
    {
      "inputs": [
        {
          "internalType": "uint256",
          "name": "",
          "type": "uint256"
        }
      ],
      "name": "authenticatedRoots",
      "outputs": [
        {
          "internalType": "bytes32",
          "name": "",
          "type": "bytes32"
        }
      ],
      "stateMutability": "view",
      "type": "function"
    },
    {
      "inputs": [],
      "name": "currentBatchId",
      "outputs": [
        {
          "internalType": "uint256",
          "name": "",
          "type": "uint256"
        }
      ],
      "stateMutability": "view",
      "type": "function"
    },
    {
      "inputs": [
        {
          "internalType": "bytes",
          "name": "proof",
          "type": "bytes"
        },
        {
          "internalType": "bytes32",
          "name": "eventRoot",
          "type": "bytes32"
        }
      ],
      "name": "verifyWhaleEvents",
      "outputs": [],
      "stateMutability": "nonpayable",
      "type": "function"
    },
    {
      "inputs": [],
      "name": "zkAggregator",
      "outputs": [
        {
          "internalType": "address",
          "name": "",
          "type": "address"
        }
      ],
      "stateMutability": "view",
      "type": "function"
    }
  ],
  "bytecode": "0x608060405234801561001057600080fd5b5033600260006101000a81548173ffffffffffffffffffffffffffffffffffffffff021916908373ffffffffffffffffffffffffffffffffffffffff160217905550610588806100616000396000f3fe608060405234801561001057600080fd5b506004361061004c5760003560e01c80630a763da11461005157806375794f261461006f5780639511db0f1461008d578063f4b67d6d146100bd575b600080fd5b6100596100d9565b60405161006691906102b3565b60405180910390f35b6100776100df565b604051610084919061030f565b60405180910390f35b6100a760048036038101906100a29190610360565b610105565b6040516100b491906103a6565b60405180910390f35b6100d760048036038101906100d29190610452565b61011d565b005b60005481565b600260009054906101000a900473ffffffffffffffffffffffffffffffffffffffff1681565b60016020528060005260406000206000915090505481565b600260009054906101000a900473ffffffffffffffffffffffffffffffffffffffff1673ffffffffffffffffffffffffffffffffffffffff163373ffffffffffffffffffffffffffffffffffffffff16146101a4576040517f8ebcfe1e00000000000000000000000000000000000000000000000000000000815260040160405180910390fd5b600083839050036101e1576040517f7fcdd1f400000000000000000000000000000000000000000000000000000000815260040160405180910390fd5b806001600080548152602001908152602001600020540361022e576040517f99cac5f700000000000000000000000000000000000000000000000000000000815260040160405180910390fd5b80600160008060008154610241906104e1565b919050819055815260200190815260200160002081905550807fe20d5b7c5c915fccc4c1599dc5e448e27c99a54a25eb05f954bb811b5c947e376000544260405161028d929190610529565b60405180910390a2505050565b6000819050919050565b6102ad8161029a565b82525050565b60006020820190506102c860008301846102a4565b92915050565b600073ffffffffffffffffffffffffffffffffffffffff82169050919050565b60006102f9826102ce565b9050919050565b610309816102ee565b82525050565b60006020820190506103246000830184610300565b92915050565b600080fd5b600080fd5b61033d8161029a565b811461034857600080fd5b50565b60008135905061035a81610334565b92915050565b6000602082840312156103765761037561032a565b5b60006103848482850161034b565b91505092915050565b6000819050919050565b6103a08161038d565b82525050565b60006020820190506103bb6000830184610397565b92915050565b600080fd5b600080fd5b600080fd5b60008083601f8401126103e6576103e56103c1565b5b8235905067ffffffffffffffff811115610403576104026103c6565b5b60208301915083600182028301111561041f5761041e6103cb565b5b9250929050565b61042f8161038d565b811461043a57600080fd5b50565b60008135905061044c81610426565b92915050565b60008060006040848603121561046b5761046a61032a565b5b600084013567ffffffffffffffff8111156104895761048861032f565b5b610495868287016103d0565b935093505060206104a88682870161043d565b9150509250925092565b7f4e487b7100000000000000000000000000000000000000000000000000000000600052601160045260246000fd5b60006104ec8261029a565b91507fffffffffffffffffffffffffffffffffffffffffffffffffffffffffffffffff820361051e5761051d6104b2565b5b600182019050919050565b600060408201905061053e60008301856102a4565b61054b60208301846102a4565b939250505056fea264697066735822122089b2abef4a18c4c528d3e92e842b1c6e372645368a2dbc686f94c43183460bef64736f6c63430008160033",
  "linkReferences": {},
  "deployedLinkReferences": {}
}